:100000000C9472000C9493000C9493000C94930045
:100010000C9493000C945E020C9439020C9493009F
:100020000C9493000C9493000C9493000C94930004
:100030000C9493000C9493000C9493000C949300F4
:100040000C9493000C9493000C9493000C949300E4
:100050000C9493000C9493000C9493000C949300D4
:100060000C9493000C9493000C9493000C949300C4
:100070000C9493000C9493000C9493000C949300B4
:100080000C9493000C9493000C9493000C949300A4
:100090000C9493000C9493000C9493000C94930094
:1000A0000C9493000C9493000C9493000C94930084
:1000B0000C9493000C9493000C9493000C94930074
:1000C0000C9493000C9493000C9493000C94930064
:1000D0000C9493000C9493000C9493000C94930054
:1000E0000C94930011241FBECFEFD1E2DEBFCDBF31
:1000F00000E00CBF14E0A0E0B2E0E6E7FAE100E0C7
:100100000BBF02C007900D92A035B107D9F714E0DC
:10011000A0E5B4E001C01D92A937B107E1F70E9444
:10012000B4040C94390D0C94000086E69EE0FC01AA
:100130003197F1F74098419840E348B9429A20E05E
:1001400038E4F9013197F1F74298FC013197F1F762
:100150004098419848B9429AF9013197F1F742988D
:10016000FC013197F1F74098419848B9429AF9015A
:100170003197F1F742980197F1F74098419880E262
:1001800088B9429AC9010197F1F74298089598B148
:100190009F7098B928B1982F907F922B98B940986A
:1001A0004198429A20E038E4F9013197F1F74298FA
:1001B00098B19F7098B998B18295807F982B98B923
:1001C00040984198429AC9010197F1F742980895E1
:1001D0000E94950086E69EE00197F1F788E20E9472
:1001E000C70081E00E94C70086E00E94C7008EE041
:1001F0000E94C70080E80E94C700089598B19F70D0
:1002000098B928B1982F907F922B98B9409A41982D
:10021000429A20E038E4F9013197F1F7429898B119
:100220009F7098B998B18295807F982B98B9409A21
:100230004198429AC9010197F1F74298089580E8E0
:100240000E94C7000895CF93DF93EC0103C00E9482
:10025000FE00219688818823D1F7DF91CF91089500
:10026000823069F0833018F48130A9F405C08330FE
:1002700049F0843081F40BC0862F815805C0862F49
:10028000815402C0862F8D560E94C7000895862F84
:100290008D520E94C70008950F931F93CF93DF9351
:1002A0008A01E901882311F0662319F40E941F01D5
:1002B00002C00E943001C530D10571F4C80160E16F
:1002C00077E20E94EE0CCB01C09690936904809374
:1002D00068040E94FE0005C0C430D10511F080E022
:1002E00016C0C80168EE73E00E94EE0CCB0160936B
:1002F0006A0490936B046AE070E00E94EE0CC09672
:1003000090937804809377040E94FE0081E0C330CC
:10031000D10521F0813011F080E016C0C80164E6FB
:1003200070E00E94EE0CCB0160936A0490936B0422
:100330006AE070E00E94EE0CC09690937204809385
:1003400071040E94FE0081E0C230D10521F08130AD
:1003500011F080E016C0C8016AE070E00E94EE0C67
:10036000CB0160936A0490936B046AE070E00E9492
:10037000EE0CC09690936E0480936D040E94FE0074
:1003800081E0C130D10511F0813061F4C8016AE02B
:1003900070E00E94EE0CC0969093760480937504F2
:1003A0000E94FE0026971CF085E40E94FE00DF916B
:1003B000CF911F910F9108953B9A4398089587B16B
:1003C000876F87B988B1807888B9089510BA11BA53
:1003D0001092070110920801089581B18F6081B9D0
:1003E00082B1807F82B9EAE0F1E080818861808318
:1003F000EBE0F1E080818861808308956C98749AC5
:1004000008956D98759A089587B1876F87B988B1F7
:10041000807888B910BA11BA1092070110920801B9
:1004200081B18F6081B982B1807F82B9EAE0F1E069
:10043000808188618083EBE0F1E080818861808346
:100440003B9A43986C98749A6D98759A0895F894AD
:10045000EAE6F0E0808182608083EC9A78940895E7
:10046000F894EAE6F0E0808188608083ED9A7894E1
:1004700008951F920F920FB60F9211248F939F939E
:10048000AF93BF938091540490915504A09156046A
:10049000B09157040196A11DB11D8093540490930F
:1004A0005504A0935604B0935704BF91AF919F9108
:1004B0008F910F900FBE0F901F9018951F920F9263
:1004C0000FB60F9211248F939F93AF93BF93809198
:1004D000500490915104A0915204B091530401969C
:1004E000A11DB11D8093500490935104A093520418
:1004F000B0935304BF91AF919F918F910F900FBE16
:100500000F901F90189586B1886088B9089586B1BC
:10051000877F88B90895E1E2F1E010829FEF909320
:10052000250181E0809324011092290190932801F4
:1005300010922B0190932A0110922D0190932C017F
:1005400089EA809320018BE080830895EAE7F0E058
:10055000108210927B0080E280937C0080E880BF54
:1005600086E880830895982F883018F088E080937B
:100570007B009770906290937C0080917A008064F9
:1005800080937A0080917A0084FFFCCF809179007B
:1005900090917A00906190937A0010927B00089578
:1005A0000F931F93182F062F842F0E94B302482FFA
:1005B00080936C04812F602F50E023E030E00E9494
:1005C0004C011F910F9108958093280160932A0197
:1005D000089592B1907F8F70892B82B9089582B16E
:1005E000807F866082B9089582B1807F896082B9F8
:1005F000089582B1807F856082B9089582B1807F3D
:100600008A6082B9089582B1807F846082B908953A
:1006100082B1807F826082B9089582B1807F8160DB
:1006200082B9089582B1807F886082B9089582B1CD
:10063000807F82B90895EF92FF920F931F93A0E0FD
:10064000B0E0BC01CD010E94800A28E431EE42E80E
:1006500050E40E9450090E947A077B0100E010E0FC
:10066000109254041092550410925604109257049C
:10067000109250041092510410925204109253049C
:100680008091540490915504A0915604B091570460
:1006900020915004309151044091520450915304E0
:1006A0008E159F05A007B10728F42E153F054007BA
:1006B000510730F382B1807F82B91F910F91FF9073
:1006C000EF90089522B1207F256022B90E941B037C
:1006D000089522B1207F2A6022B90E941B03089549
:1006E00022B1207F246022B9880F991F0E941B032A
:1006F000089522B1207F226022B9880F991F0E949D
:100700001B03089522B1207F216022B9880F991F11
:100710000E941B03089522B1207F286022B9880F10
:10072000991F0E941B030895F8940E940402EAE7AF
:10073000F0E0108210927B0080E280937C0080E8E1
:1007400080BF86E88083E1E2F1E010829FEF909322
:10075000250181E0809324011092290190932801C2
:1007600010922B0190932A0110922D0190932C014D
:1007700089EA809320018BE08083F894EAE6F0E038
:10078000808182608083EC9A7894F894EAE6F0E0C5
:10079000808188608083ED9A78947894089583E0CE
:1007A0000E94B30280936F041092700482E00E9452
:1007B000B302809364041092650481E00E94B30246
:1007C000282F30E0309374042093730440916F0419
:1007D0005091700449325105F4F080916404909175
:1007E00065048897C4F482B1807F866082B988EC02
:1007F00090E090935F0480935E048FEF90E090937D
:1008000061048093600488EC809328018FEF8093CB
:100810002A0181E020C02932310504F1809164046D
:10082000909165048897D4F482B1807F866082B904
:100830008FEF90E090935F0480935E0488EC90E0EB
:1008400090936104809360048FEF8093280188EC7B
:1008500080932A0182E08093580408958091640473
:100860009091650489329105C4F048325105ACF489
:1008700028323105DCF582B1807F866082B98FEF46
:1008800090E090935F0480935E0490936104809362
:1008900060048FEF8093280120C02832310534F5A1
:1008A000889724F5483251050CF582B1807F866027
:1008B00082B98AEA90E090935F0480935E048FEFA0
:1008C00090E090936104809360048091580481309B
:1008D00039F48AEA809328018FEF80932A010895E2
:1008E0008FEF809328018AEA80932A010895EF927E
:1008F000FF920F931F93A0E0B0E0BC01CD010E94D6
:10090000800A25EE30ED4AEA50E40E9450090E9428
:100910007A077B018C0110925404109255041092B6
:100920005604109257040E94CF0380915404909172
:100930005504A0915604B0915704E816F9060A0729
:100940001B0788F782B1807F82B91F910F91FF90BA
:10095000EF90089522B1207F296022B90E94770488
:1009600008950E9477040895CF92DF92EF92FF924C
:100970000F931F93DF93CF93CDB7DEB7CC57D04003
:100980000FB6F894DEBF0FBECDBF0E9494030E9445
:1009900095000E94E800DE011196ECECF2E08CE795
:1009A00001900D928150E1F70FEF1FEF80E7E82EE5
:1009B00081E0F82E6E010894C11CD11C86E00E94D3
:1009C000B302809363048A35A0F581E061E00E9460
:1009D000300180E092E00E94230182E061E00E9409
:1009E000300181E192E00E94230182B1807F8A6020
:1009F00082B988EE93E0F7013197F1F70197D9F7C3
:100A000082B1807F8A6082B982E00E94B3028093C3
:100A10005A048035A8F382B1807F82B988EE93E0D2
:100A2000F7013197F1F70197D9F782B1807F86609E
:100A300082B90E94CF0380916404909165048997E4
:100A40000CF418C280916F049091700489970CF493
:100A5000E9C082E061E00E94300182E292E00E94FF
:100A600023010F5F1F4FF801EE0FFF1FEC0DFD1D5F
:100A7000808191818F5F9F4FF1F486B1886088B942
:100A800082B1807F82B91092280110922A0182E0FF
:100A900061E00E94300183E392E00E94230188E834
:100AA00093E1F7013197F1F70197D9F786B1877F85
:100AB00088B90F5F1F4FF801EE0FFF1FEC0DFD1DF2
:100AC0000190F081E02DEC33F105F9F48CE390E036
:100AD0000E94770488EE93E0F7013197F1F70197D0
:100AE000D9F78EE190E00E94620382B1807F856039
:100AF00082B982E00E94B30290E0909365048093F3
:100B000064048E3691058CF3EFC0E837F105F9F4F3
:100B10008FE090E00E94770488EE93E0F701319730
:100B2000F1F70197D9F78EE190E00E94820382B13C
:100B3000807F846082B982E00E94B30290E090934B
:100B40006504809364048E3691058CF3F8C08FEFB2
:100B5000E43CF807F9F48CE390E00E94770488EE17
:100B600093E0F7013197F1F70197D9F78EE190E023
:100B70000E94690382B1807F8A6082B982E00E940C
:100B8000B30290E090936504809364048E369105DF
:100B90008CF303C12FEFE838F207F9F48FE090E00F
:100BA0000E94770488EE93E0F7013197F1F70197FF
:100BB000D9F78EE190E00E948B0382B1807F826042
:100BC00082B982E00E94B30290E090936504809322
:100BD00064048E3691058CF30CC1E43BF10509F0F9
:100BE00039C182B1807F856082B988E893E1F701DD
:100BF0003197F1F70197D9F782B1807F856082B98B
:100C000082E00E94B30280935A048E36A8F382B128
:100C1000807F82B988EE93E0F7013197F1F7019771
:100C2000D9F714C1809173049091740489970CF4DE
:100C300021C182E061E00E94300182E292E00E94E4
:100C400023010F5F1F4FF801EE0FFF1FEC0DFD1D7D
:100C5000808191818F5F9F4FF1F486B1886088B960
:100C600082E061E00E94300182B1807F82B91092FF
:100C7000280110922A0183E392E00E94230188E870
:100C800093E1F7013197F1F70197D9F786B1877FA3
:100C900088B90F5F1F4FF801EE0FFF1FEC0DFD1D10
:100CA0000190F081E02DEC33F10541F58CE390E00B
:100CB0000E94770488EE93E0F7013197F1F70197EE
:100CC000D9F78EE190E00E94620382B1807F856057
:100CD00082B982E00E94B30290E090936504809311
:100CE00064048E3691058CF382B1807F82B981E0F5
:100CF00061E00E94300184E492E02AC0E837F10507
:100D000051F58FE090E00E94770488EE93E0F701C0
:100D10003197F1F70197D9F78EE190E00E948203B5
:100D200082B1807F846082B982E00E94B30290E049
:100D300090936504809364048E3691058CF382B1A0
:100D4000807F82B981E061E00E94300185E592E018
:100D50000E9423017FC08FEFE43CF80741F58CE34C
:100D600090E00E94770488EE93E0F7013197F1F765
:100D70000197D9F78EE190E00E94690382B1807FEC
:100D80008A6082B982E00E94B30290E09093650489
:100D9000809364048E3691058CF382B1807F82B992
:100DA00081E061E00E94300186E692E0D1CF2FEF32
:100DB000E838F20741F58FE090E00E94770488EE72
:100DC00093E0F7013197F1F70197D9F78EE190E0C1
:100DD0000E948B0382B1807F826082B982E00E9490
:100DE000B30290E090936504809364048E3691057D
:100DF0008CF382B1807F82B981E061E00E94300192
:100E000087E792E0A5CFE43BF10521F582B1807F31
:100E1000856082B988E893E1F7013197F1F701978E
:100E2000D9F782B1807F856082B982E00E94B302E7
:100E300080935A048E36A8F382B1807F82B988EEFF
:100E400093E0F7013197F1F70197D9F782B1807FED
:100E5000866082B981E061E00E94300188E892E01A
:100E60000E94230182E061E00E94300189E992E062
:100E70000E9423010D3311050CF4A0CD20E030E0D9
:100E800040E751E082B1807F82B910922801109230
:100E90002A0186B1886088B988EE93E0FA0131971B
:100EA000F1F70197D9F786B1877F88B98CED95E086
:100EB000FA013197F1F70197D9F72F5F3F4F2431AE
:100EC000310501F782B1807F82B91092280110921A
:100ED0002A0181E061E00E9430018AEA92E00E94EA
:100EE000230182E061E00E9430018BEB92E00E94DE
:100EF0002301E8CFEF92FF920F931F937B018C01A8
:100F000020E030E040E05FE40E94FC0988238CF0A0
:100F1000C801B70120E030E040E05FE40E94F20841
:100F20000E942C0A9B01AC012050304040405048A8
:100F300006C0C801B7010E942C0A9B01AC01B9018F
:100F4000CA011F910F91FF90EF900895A0E0B0E0CB
:100F5000ECEAF7E00C94020DDC012B01FA019C9104
:100F6000923008F439C1EB018881823008F433C132
:100F7000943069F4843009F02FC111969C91119737
:100F80008981981709F428C1A8E4B3E025C1843009
:100F900009F421C18230A9F4923009F01DC19A01EF
:100FA000AD0188E0EA010990AE01E90109929E01D4
:100FB0008150C1F7E201898111969C918923818337
:100FC00008C1923009F407C112962D903C901397F6
:100FD000EB018A819B811496AD90BD90CD90DC9001
:100FE0001797EC80FD800E811F819101281B390B22
:100FF000B90137FF04C066277727621B730B603285
:1010000071050CF061C0121613066CF5370148012A
:10101000062E04C096948794779467940A94D2F726
:1010200021E030E040E050E004C0220F331F441FB5
:10103000551F6A95D2F721503040404050402E2134
:101040003F2140235123211531054105510521F050
:1010500021E030E040E050E079018A01E628F728FD
:10106000082919293CC0232BD1F1260E371E350142
:101070004601062E04C096948794779467940A9448
:10108000D2F721E030E040E050E004C0220F331FEF
:10109000441F551F6A95D2F72150304040405040C0
:1010A0002A213B214C215D212115310541055105A6
:1010B00021F021E030E040E050E059016A01A6282B
:1010C000B728C828D9280BC0821593052CF01C011D
:1010D000AA24BB24650103C0EE24FF2487011196D6
:1010E0009C91D20111968C91981709F445C09923CF
:1010F00039F0A80197012A193B094C095D0906C07E
:10110000A60195012E193F09400B510B57FD08C050
:1011100011823382228224833583468357831DC004
:1011200081E081833382228288279927DC01821B18
:10113000930BA40BB50B84839583A683B7830DC053
:10114000220F331F441F551F248335834683578343
:1011500082819381019793838283248135814681A3
:101160005781DA01C9010197A109B1098F5F9F4F2A
:10117000AF4FBF4328F30BC0918333822282EA0C26
:10118000FB1C0C1D1D1DE482F5820683178383E082
:101190008083248135814681578157FF1AC0C90158
:1011A000AA2797FDA095BA2F81709070A070B0709B
:1011B0005695479537952795822B932BA42BB52BC6
:1011C00084839583A683B7838281938101969383D9
:1011D0008283DF0101C0D201CD01CDB7DEB7E2E1EC
:1011E0000C941E0DA0E2B0E0E8EFF8E00C940E0DB8
:1011F00069837A838B839C832D833E834F835887B7
:10120000E9E0EE2EF12CEC0EFD1ECE010196B701A9
:101210000E941D0C8E010F5E1F4FCE010596B80176
:101220000E941D0C8A8991E089278A8BC701B80129
:10123000AE01475E5F4F0E94A6070E94480BA09632
:10124000E6E00C942A0DA0E2B0E0E9E2F9E00C94AB
:101250000E0D69837A838B839C832D833E834F831A
:101260005887F9E0EF2EF12CEC0EFD1ECE01019611
:10127000B7010E941D0C8E010F5E1F4FCE01059617
:10128000B8010E941D0CC701B801AE01475E5F4F57
:101290000E94A6070E94480BA096E6E00C942A0D37
:1012A000A8E1B0E0E6E5F9E00C940A0D69837A83E1
:1012B0008B839C832D833E834F835887B9E0EB2E2D
:1012C000F12CEC0EFD1ECE010196B7010E941D0C03
:1012D0008E010F5E1F4FCE010596B8010E941D0CB6
:1012E0002985223008F47EC03989323010F4B801E3
:1012F0007CC08A859A8989278A87243011F0223018
:1013000031F4231709F06EC068E473E06EC0343026
:1013100039F41D861E861F86188A1C861B8604C00B
:10132000323021F484E08987B7015FC02B853C858A
:101330008B899C89281B390B3C872B87ED84FE8485
:101340000F851889AD88BE88CF88D88CEA14FB0435
:101350000C051D0540F4EE0CFF1C001F111F215051
:1013600030403C872B8720E030E040E050E080E0D8
:1013700090E0A0E0B0E460E070E0EA14FB040C054B
:101380001D0540F0282B392B4A2B5B2BEA18FB0854
:101390000C091D09B695A79597958795EE0CFF1C2E
:1013A000001F111F6F5F7F4F6F31710531F7DA0139
:1013B000C9018F779070A070B07080349105A1053D
:1013C000B10561F427FD0AC0E114F104010511051E
:1013D00029F0205C3F4F4F4F5F4F20782D873E878D
:1013E0004F87588BBE01675F7F4FCB010E94480B30
:1013F0006896EAE00C94260DA8E1B0E0E2E0FAE09D
:101400000C940E0D69837A838B839C832D833E839A
:101410004F83588789E0E82EF12CEC0EFD1ECE019B
:101420000196B7010E941D0C8E010F5E1F4FCE0169
:101430000596B8010E941D0C8985823040F089898B
:10144000823028F0C701B8010E94950C01C08FEFCF
:101450006896E6E00C942A0DACE0B0E0E2E3FAE036
:101460000C94120D69837A838B839C83CE01019641
:10147000BE016B5F7F4F0E941D0C8D81823061F138
:10148000823050F1843021F48E81882351F12EC0B6
:101490002F81388537FD20C06E812F3131051CF03A
:1014A0006623F9F023C08EE190E0821B930B29851F
:1014B0003A854B855C8504C05695479537952795A9
:1014C0008A95D2F76623B1F05095409530952195D5
:1014D0003F4F4F4F5F4F0EC020E030E040E050E004
:1014E00009C02FEF3FEF4FEF5FE704C020E030E08F
:1014F00040E050E8B901CA012C96E2E00C942E0DB0
:10150000A8E0B0E0E6E8FAE00C940A0D7B018C015B
:10151000611571058105910519F482E0898360C028
:1015200083E089838EE1C82ED12CDC82CB82ED82D0
:10153000FE820F831887C801B7010E94F90AFC01D7
:101540003197F7FF3BC0222733272E1B3F0B570154
:101550006801022E04C0D694C794B794A7940A9445
:10156000D2F740E050E060E070E081E090E0A0E081
:10157000B0E004C0880F991FAA1FBB1F2A95D2F79D
:101580000197A109B1098E219F21A023B1230097C2
:10159000A105B10521F041E050E060E070E04A298A
:1015A0005B296C297D294D835E836F8378878EE16B
:1015B00090E08E1B9F0B9C838B8312C0309781F031
:1015C0000E2E04C0EE0CFF1C001F111F0A94D2F750
:1015D000ED82FE820F831887CE1ADF0ADC82CB826F
:1015E0001A82CE0101960E94480B2896EAE00C94DC
:1015F000260DEF92FF920F931F937B018C0180E0E9
:10160000E81680E0F80681E0080780E0180788F413
:101610008FEFE816F1040105110531F028F088E09C
:1016200090E0A0E0B0E017C080E090E0A0E0B0E083
:1016300012C080E0E81680E0F80680E0080781E04C
:10164000180728F088E190E0A0E0B0E004C080E155
:1016500090E0A0E0B0E020E230E040E050E0281B65
:10166000390B4A0B5B0B04C016950795F794E7946A
:101670008A95D2F7F701E05BFC4F8081281B310986
:1016800041095109C9011F910F91FF90EF900895F1
:10169000DF92EF92FF920F931F93FC01E480F5809D
:1016A00006811781D1808081823048F480E090E00B
:1016B000A0E1B0E0E82AF92A0A2B1B2BA5C0843050
:1016C00009F49FC0823021F4EE24FF24870105C075
:1016D000E114F1040105110519F4E0E0F0E096C011
:1016E000628173819FEF623879070CF05BC022E85A
:1016F0003FEF261B370B2A3131052CF020E030E07C
:1017000040E050E02AC0B801A701022E04C076953F
:101710006795579547950A94D2F781E090E0A0E04D
:10172000B0E004C0880F991FAA1FBB1F2A95D2F7EB
:101730000197A109B1098E219F21A023B123009710
:10174000A105B10521F081E090E0A0E0B0E09A01B0
:10175000AB01282B392B4A2B5B2BDA01C9018F7780
:101760009070A070B07080349105A105B10539F476
:1017700027FF09C0205C3F4F4F4F5F4F04C0215CE3
:101780003F4F4F4F5F4FE0E0F0E02030A0E03A07DE
:10179000A0E04A07A0E45A0710F0E1E0F0E0790188
:1017A0008A0127C06038710564F5FB01E158FF4FDD
:1017B000D801C7018F779070A070B0708034910508
:1017C000A105B10539F4E7FE0DC080E490E0A0E08A
:1017D000B0E004C08FE390E0A0E0B0E0E80EF91EB6
:1017E0000A1F1B1F17FF05C016950795F794E7946E
:1017F000319687E016950795F794E7948A95D1F787
:1018000005C0EE24FF248701EFEFF0E06E2F67950F
:1018100066276795902F9F77D794DD24D7948E2FD6
:101820008695492F462B582F5D29B701CA011F9174
:101830000F91FF90EF90DF900895FC01DB01408154
:1018400051812281622F6F7770E0221F2227221F91
:101850009381892F880F822B282F30E0991F992799
:10186000991F11969C93119721153105A9F54115E2
:1018700051056105710511F482E037C082E89FEFE0
:1018800013969C938E9312979A01AB0167E0220FF7
:10189000331F441F551F6A95D1F783E08C930DC009
:1018A000220F331F441F551F12968D919C91139741
:1018B000019713969C938E931297203080E03807FF
:1018C00080E0480780E4580758F314962D933D9321
:1018D0004D935C93179708952F3F310579F4411587
:1018E00051056105710519F484E08C93089564FF36
:1018F00003C081E08C9312C01C9210C02F5730405F
:1019000013963C932E93129783E08C9387E0440FB9
:10191000551F661F771F8A95D1F7706414964D93F3
:101920005D936D937C93179708951F93DC01FB01E2
:101930009C91923008F447C08081823008F443C003
:10194000943051F411961C91843099F58181682F5F
:1019500070E0611B71093FC0843021F0923031F496
:101960008230B9F18181882389F12DC011961C91B3
:1019700011978230F1F081811817D9F412962D91C8
:101980003C911397828193818217930794F02817D3
:101990003907BCF014968D919D910D90BC91A02DAE
:1019A0002481358146815781281739074A075B070B
:1019B00018F4112341F00AC082179307A407B50752
:1019C00040F4112319F061E070E005C06FEF7FEF84
:1019D00002C060E070E0CB011F910895AA1BBB1B01
:1019E00051E107C0AA1FBB1FA617B70710F0A61B1F
:1019F000B70B881F991F5A95A9F780959095BC0140
:101A0000CD0108952F923F924F925F926F927F92F5
:101A10008F929F92AF92BF92CF92DF92EF92FF92FE
:101A20000F931F93CF93DF93CDB7DEB7CA1BDB0BAA
:101A30000FB6F894DEBF0FBECDBF19942A8839883F
:101A400048885F846E847D848C849B84AA84B98456
:101A5000C884DF80EE80FD800C811B81AA81B98162
:101A6000CE0FD11D0FB6F894DEBF0FBECDBFED0176
:061A70000895F894FFCF79
:101A7600202020204F4253545241434C45202020E1
:101A8600002020202044455445435445442021202D
:101A960020004E4F54452044455445435445442167
:101AA6002121004D4E502044455445435445442081
:101AB60021212100363020646567726565207375C3
:101AC6006363657300313230206465677265652033
:101AD6007375636573002D363020646567726565BE
:101AE600207375636573002D31323020646567722B
:101AF6006520737563657300202020202020202038
:101B06002020202020202020004D4F56494E4720DF
:101B16004F4E20464C4558212100202020202020D1
:101B26005461736B202020202020002020436F6DFD
:101B3600706C657465642121212020000000C4FFBB
:101B460000003C000000FFFF88FF0000FFFF88FF49
:101B5600FFFF7800C4FFC4FF78007800000078001B
:101B66000000C4FF00003C00FFFFB400C4FF0000FB
:101B76003C000000C4FFFFFFB4003C0000003C0036
:101B8600C4FFC4FF780088FF000078000000FFFF54
:101B960000000000B40000000000000088FF000004
:101BA600C4FFFFFFB4003C000000C4FFFFFF0000BD
:101BB600000000000000FFFF000000000000000021
:101BC60000010202030303030404040404040404DE
:101BD60005050505050505050505050505050505AF
:101BE600060606060606060606060606060606068F
:101BF600060606060606060606060606060606067F
:101C0600070707070707070707070707070707075E
:101C1600070707070707070707070707070707074E
:101C2600070707070707070707070707070707073E
:101C3600070707070707070707070707070707072E
:101C4600080808080808080808080808080808080E
:101C560008080808080808080808080808080808FE
:101C660008080808080808080808080808080808EE
:101C760008080808080808080808080808080808DE
:101C860008080808080808080808080808080808CE
:101C960008080808080808080808080808080808BE
:101CA60008080808080808080808080808080808AE
:101CB600080808080808080808080808080808089E
:00000001FF
