:100000000C9472000C9493000C9493000C94930045
:100010000C9493000C94F0020C94CB020C9493007B
:100020000C9493000C9493000C9493000C94930004
:100030000C9493000C9493000C9493000C949300F4
:100040000C9493000C9493000C9493000C949300E4
:100050000C9493000C9493000C9493000C949300D4
:100060000C9493000C9414080C9493000C9493003B
:100070000C9493000C9493000C9493000C949300B4
:100080000C9493000C9493000C9493000C949300A4
:100090000C9493000C9493000C9493000C94930094
:1000A0000C9493000C9493000C9493000C94930084
:1000B0000C9493000C9493000C9493000C94930074
:1000C0000C9493000C9493000C9493000C94890866
:1000D0000C9493000C9493000C9493000C94930054
:1000E0000C94930011241FBECFEFD1E2DEBFCDBF31
:1000F00000E00CBF15E0A0E0B2E0E6E1FFE200E0C6
:100100000BBF02C007900D92A037B107D9F710E1DD
:10011000A0E7B5E001C01D92A232B107E1F70E944D
:10012000B10F0C9489170C940000FC0120E030E022
:1001300080819181892B11F421E030E0C90108957B
:10014000CF93DF9320E030E062E370E040EC57E2D1
:100150000BC04193519301968A309105D1F72F5FDF
:100160003F4F2A30310561F0269FF001279FF00DA7
:10017000369FF00D1124E657FA4F80E090E0E9CF6A
:10018000ECEBF5E081E090E09583848391838083BC
:10019000F49628E0E036F207B9F7ECEFF8E081E0FA
:1001A00090E09583848391838083F4962AE0E836F7
:1001B000F207B9F790936108809360089093CD0897
:1001C0008093CC089183808390935908809358083A
:1001D000909369078093680790934D0880934C082B
:1001E00090933D0680933C0690931B0880931A08D9
:1001F00090933B0680933A069093910880939008E1
:1002000090930108809300089093270A8093260A10
:100210009093A7088093A6089093290A8093280AB0
:100220009093D9088093D8089093F5088093F408A8
:10023000909305088093040890933D0A80933C0AAC
:100240009093ED058093EC05E4E7FAE081E090E01F
:100250002FEF3FEF9183808333832283019634967F
:1002600089319105B9F781E090E09093D50A8093A8
:10027000D40A85E090E09093DD0A8093DC0A85E162
:1002800090E09093F50A8093F40A8EE090E09093CA
:10029000D90A8093D80A8BE090E09093DB0A809390
:1002A000DA0AC6EDDBE0FE01F49622EE3FEFE097BE
:1002B00039832883E0963D832C8337FF04C0C9012E
:1002C0008C549F4F06C0121613063CF4C901845B80
:1002D000904099838883918380832E5130408FEFA3
:1002E0002C34380714F426E930E0C859DF4FE859B8
:1002F000FF4F80E1CE34D807D1F61092730B1092E5
:10030000720B84EB90E09093A30B8093A20B9093DD
:100310009F0B80939E0B1092EF0F1092EE0FAAE6A8
:10032000BFEFB093050CA093040CEEE1F0E0F09366
:100330002510E093241066EA7FEF7093070C60931A
:10034000060C4AE550E05987488726E930E03093AB
:10035000F50C2093F40C82EE9FEF9093151480938C
:10036000141470931110609310105093D113409394
:10037000D013909313108093121030930314209392
:1003800002149D838C833DAB2CAB50936912409338
:1003900068127093E9136093E81330939D122093D1
:1003A0009C1290931D1480931C149093DD108093E5
:1003B000DC1030933D1420933C14B093CF10A093E5
:1003C000CE10F093DF12E093DE12909367128093C9
:1003D00066123093B7132093B61370938F12609305
:1003E0008E125093BF124093BE123093C3122093CB
:1003F000C2129093F3128093F212B98FA88FF093E8
:100400007712E093761279AF68AFF0932712E093FA
:100410002612B0935712A0935612F0935B12E093FA
:100420005A12B0938B12A0938A12F093370FE09375
:10043000360FB0930712A093061280E090E0DF9190
:10044000CF910895680F791FCB010895EF92FF9225
:100450000F931F93CF93DF938B017A01BC01E801C7
:10046000AFEFBFEF40E050E01BC0FB018081918106
:10047000892B89F0FFEFAF3FBF0761F0FD01EE0F61
:10048000FF1FE00FF11F208131818881998128179A
:1004900039070CF0DA014F5F5F4F6E5F7F4F229696
:1004A0004E155F0514F3CD01DF91CF911F910F9190
:1004B000FF90EF90089561507040DC01FB01EE0F5A
:1004C000FF1FEA0FFB1F40E050E00EC02D913C9152
:1004D0001197808191818D939D93318320834F5F0C
:1004E0005F4F615070403297461757077CF308956D
:1004F00010BA11BA1092070110920801089581B143
:100500008F6081B982B1807F82B9EAE0F1E08081B9
:1005100088618083EBE0F1E08081886180830895C9
:100520006C98749A08956D98759A089587B1876F3D
:1005300087B988B1807888B910BA11BA10920701CA
:100540001092080181B18F6081B982B1807F82B938
:10055000EAE0F1E0808188618083EBE0F1E0808176
:10056000886180833B9A43986C98749A6D98759AC9
:100570000895F894EAE6F0E0808182608083EC9A46
:1005800078940895F894EAE6F0E0808188608083AA
:10059000ED9A789408951F920F920FB60F9211243E
:1005A0008F939F93AF93BF9380917405909175053E
:1005B000A0917605B09177050196A11DB11D80939C
:1005C000740590937505A0937605B0937705BF9158
:1005D000AF919F918F910F900FBE0F901F90189524
:1005E0001F920F920FB60F9211248F939F93AF9388
:1005F000BF938091700590917105A0917205B091A3
:1006000073050196A11DB11D80937005909371052E
:10061000A0937205B0937305BF91AF919F918F9195
:100620000F900FBE0F901F901895E1E8F0E0108238
:100630008CEF8093850081E08093840093E0909319
:1006400089008FEF8093880090938B0080938A00BD
:1006500090938D0080938C00909387008093860008
:100660008BEA80938000109282008CE08083089552
:10067000E1E2F1E010829FEF9093250181E0809309
:100680002401109229019093280110922B0190933C
:100690002A0110922D0190932C0189EA8093200168
:1006A0008BE080830895EAE7F0E0108210927B00EF
:1006B00080E280937C0080E880BF86E88083089594
:1006C000982F883018F088E080937B0097709062B4
:1006D00090937C0080917A00806480937A0080916E
:1006E0007A0084FFFCCF8091790090917A0090612C
:1006F00090937A0010927B00089580932801609374
:100700002A01089592B1907F8F70892B82B9089544
:1007100082B1807F866082B9089582B1807F8960CE
:1007200082B9089582B1807F856082B9089582B1CF
:10073000807F8A6082B9089582B1807F846082B9A7
:10074000089582B1807F826082B9089582B1807FEE
:10075000816082B9089582B1807F886082B90895EE
:1007600082B1807F82B90895EF92FF920F931F9319
:10077000A0E0B0E0BC01CD010E94CB1328E431EE33
:1007800042E850E40E949B120E94C5107B0100E0E9
:1007900010E0109274051092750510927605109273
:1007A00077051092700510927105109272051092E3
:1007B00073058091740590917505A0917605B091AF
:1007C0007705209170053091710540917205509127
:1007D00073058E159F05A007B10728F42E153F0558
:1007E0004007510730F382B1807F82B91F910F918A
:1007F000FF90EF90089522B1207F256022B90E94DA
:10080000B403089522B1207F2A6022B90E94B40364
:10081000089522B1207F246022B9880F991F0E9479
:10082000B403089522B1207F226022B9880F991F56
:100830000E94B403089522B1207F216022B9880F5D
:10084000991F0E94B403089522B1207F286022B925
:10085000880F991F0E94B4030895F8940E9496028D
:10086000EAE7F0E0108210927B0080E280937C0047
:1008700080E880BF86E88083E1E2F1E010829FEFAC
:100880009093250181E08093240110922901909397
:10089000280110922B0190932A0110922D01909320
:1008A0002C0189EA809320018BE08083F894EAE6AA
:1008B000F0E0808182608083EC9A7894F894EAE694
:1008C000F0E0808188608083ED9A78947894089530
:1008D00083E00E9460038093290B10922A0B82E030
:1008E0000E94600380936E0A10926F0A81E00E945A
:1008F0006003282F30E03093350B2093340B409168
:10090000290B50912A0B49325105F4F080916E0A5F
:1009100090916F0A8897C4F482B1807F866082B913
:100920008DE790E090937F0580937E058AEF90E0BD
:1009300090938105809380058DE7809328018AEF4D
:1009400080932A0181E020C02932310504F1809191
:100950006E0A90916F0A8897D4F482B1807F866086
:1009600082B98AEF90E090937F0580937E058DE7B2
:1009700090E090938105809380058AEF8093280111
:100980008DE780932A0182E0809378050895809115
:100990006E0A90916F0A89329105C4F04832510570
:1009A000ACF428323105DCF582B1807F866082B9F3
:1009B0008AEF90E090937F0580937E059093810568
:1009C000809380058AEF8093280120C0283231056A
:1009D00034F5889724F5483251050CF582B1807FB3
:1009E000866082B984E690E090937F0580937E05CF
:1009F0008AEF90E09093810580938005809178053F
:100A0000813039F484E6809328018AEF80932A01AB
:100A100008958AEF8093280184E680932A0108953F
:100A2000EF92FF920F931F93A0E0B0E0BC01CD01C5
:100A30000E94CB1325EE30ED4AEA50E40E949B124F
:100A40000E94C5107B018C011092740510927505EF
:100A500010927605109277050E94680480917405C3
:100A600090917505A0917605B0917705E816F90685
:100A70000A071B0788F782B1807F82B91F910F9107
:100A8000FF90EF90089522B1207F296022B90E9443
:100A90001005089522B1207F266022B90E9410051A
:100AA000089586E69EE0FC013197F1F74098419861
:100AB00040E348B9429A20E038E4F9013197F1F770
:100AC0004298FC013197F1F74098419848B9429A11
:100AD000F9013197F1F74298FC013197F1F740980D
:100AE000419848B9429AF9013197F1F74298019734
:100AF000F1F74098419880E288B9429AC90101977C
:100B0000F1F74298089598B19F7098B928B1982F3D
:100B1000907F922B98B940984198429A20E038E40F
:100B2000F9013197F1F7429898B19F7098B998B14F
:100B30008295807F982B98B940984198429AC90134
:100B40000197F1F7429808950E94510586E69EE0CC
:100B50000197F1F788E20E94830581E00E948305F6
:100B600086E00E9483058EE00E94830580E80E9453
:100B70008305089598B19F7098B928B1982F907FF8
:100B8000922B98B9409A4198429A20E038E4F901B2
:100B90003197F1F7429898B19F7098B998B18295C2
:100BA000807F982B98B9409A4198429AC901019741
:100BB000F1F74298089580E80E9483050895CF9345
:100BC000DF93EC0103C00E94BA0521968881882337
:100BD000D1F7DF91CF910895823069F0833018F416
:100BE0008130A9F405C0833049F0843081F40BC012
:100BF000862F815805C0862F815402C0862F8D56BE
:100C00000E9483050895862F8D520E9483050895C2
:100C10000F931F93CF93DF938A01E901882311F08B
:100C2000662319F40E94DB0502C00E94EC05C53062
:100C3000D10571F4C80160E177E20E943E17CB0153
:100C4000C0969093FB0A8093FA0A0E94BA0505C0E9
:100C5000C430D10511F080E016C0C80168EE73E021
:100C60000E943E17CB016093240B9093250B6AE002
:100C700070E00E943E17C09690933B0B80933A0B16
:100C80000E94BA0581E0C330D10521F0813011F016
:100C900080E016C0C80164E670E00E943E17CB01F8
:100CA0006093240B9093250B6AE070E00E943E173E
:100CB000C0969093330B8093320B0E94BA0581E06B
:100CC000C230D10521F0813011F080E016C0C8019A
:100CD0006AE070E00E943E17CB016093240B909372
:100CE000250B6AE070E00E943E17C0969093280B97
:100CF0008093270B0E94BA0581E0C130D10511F025
:100D0000813061F4C8016AE070E00E943E17C0962D
:100D10009093390B8093380B0E94BA0526971CF0EC
:100D200085E40E94BA05DF91CF911F910F9108953C
:100D30000F931F93182F062F842F0E946003482FB4
:100D40008093260B812F90E0602F70E050E023E02D
:100D500030E00E9408061F910F910895279A2F9A5C
:100D600008953B9A4398089587B1876F87B988B1F2
:100D7000807888B90895279A2F9A87B1876F87B9A5
:100D800088B1807888B910BA11BA10920701109210
:100D9000080181B18F6081B982B1807F82B9EAE0B8
:100DA000F1E0808188618083EBE0F1E080818861FF
:100DB00080833B9A43986C98749A6D98759A0895BD
:100DC000E1ECF0E010821092C00086E08093C20057
:100DD0008FE58093C4001092C50088E98083089550
:100DE000E1EDF0E010821092D00086E08093D20016
:100DF0008FE58093D4001092D50088E98083089510
:100E000086B1886088B9089586B1877F88B90895CA
:100E100010928D0090E0A0E0B0E0BC01CD010E94F6
:100E2000CB132BE734E14EEE5FE30E949B1220E0F0
:100E300030E04CE052E40E946E120E94C5106093B4
:100E40008C000895CF92DF92EF92FF920F931F9341
:100E5000CF93DF93E090300BF090310B00912E0B8D
:100E600010912F0BA0916C0AB0916D0AC0E0D0E0F8
:100E700040E050E060E7C62E61E0D62E3CC06C91A9
:100E800011967C9111979B01C90108970B9728F047
:100E90002C51304025303105A0F4F701E40FF51F47
:100EA0006083718388EE93E0F6013197F1F7019743
:100EB000D9F76093C600F801E40FF51F1182108284
:100EC00016C0F701E40FF51F1182108288EE93E03F
:100ED000F6013197F1F70197D9F71092C600F801A2
:100EE000E40FF51F8D919C9111979183808321963A
:100EF0004E5F5F4F12968091840590918505C817CB
:100F0000D9070CF4BCCFDF91CF911F910F91FF90C7
:100F1000EF90DF90CF90089581E090E09093FD0AEC
:100F20008093FC0A6091840570918505A0912E0B39
:100F3000B0912F0B20E030E011C04D915C911197E2
:100F40004115510541F0FC01EE0FFF1FE450F54F34
:100F50005183408301962F5F3F4F12962617370724
:100F600064F3909387058093860508951F93CF932C
:100F7000DF9381E061E00E94EC0580E092E00E9456
:100F8000DF058091880590918905880F991FE09170
:100F90002E0BF0912F0BE80FF91F4081518181E05A
:100FA0006EE022E030E00E94080682E061E00E94EC
:100FB000EC058EE092E00E94DF0519E6C0E0D8E47F
:100FC000812F0E940807CE010197F1F71F5F123DA4
:100FD000B9F784EF91E020E731E0F9013197F1F7BB
:100FE0000197D9F7C0E0D8E4812F0E940807CE010D
:100FF0000197F1F71150C1F784EF91E020E731E05C
:10100000F9013197F1F70197D9F7C0E0D0E9812FC5
:101010000E940807CE010197F1F71F5F1936B9F753
:10102000DF91CF911F9108951F920F920FB60F92EB
:1010300011248F939F938091C60080932D0B90E095
:101040009093370B8093360B009721F0909389058E
:10105000809388059F918F910F900FBE0F901F90E6
:101060001895F8940E94BB06EAE7F0E0108210920F
:101070007B0080E280937C0080E880BF86E88083EC
:101080000E941503E1E2F1E010829FEF90932501A9
:1010900081E08093240110922901909328011092FD
:1010A0002B0190932A0110922D0190932C0189EA33
:1010B000809320018BE08083F894EAE6F0E0808161
:1010C00082608083EC9A7894F894EAE6F0E080817C
:1010D00088608083ED9A7894E1ECF0E010821092C1
:1010E000C00026E02093C2009FE59093C4001092B8
:1010F000C50088E98083E1EDF0E010821092D00015
:101100002093D2009093D4001092D50080837894DD
:1011100008951F920F920FB60F920BB60F921124E3
:101120002F933F934F935F936F937F938F939F93EF
:10113000AF93BF93EF93FF932091D60020932D0B95
:101140002093D600E0915F04F09160048FEFEF3FB1
:10115000F80761F5822F90E0C09790938505809302
:1011600084051092600410925F04880F991F0E94FA
:10117000391680936C0A90936D0A80918405909142
:101180008505880F991F0E94391680932E0B909326
:101190002F0B8091840590918505880F991F0E94DF
:1011A00039168093300B9093310B27C080918405C2
:1011B00090918505E817F90704F580916C0A9091E4
:1011C0006D0AEE0FFF1FE80FF91F20831182E091D7
:1011D0005F04F0916004EE0FFF1FE80FF91F80819C
:1011E0009181C0979183808380915F049091600486
:1011F00001969093600480935F04FF91EF91BF91FB
:10120000AF919F918F917F916F915F914F913F919E
:101210002F910F900BBE0F900FBE0F901F9018953F
:101220008F929F92AF92BF92DF92EF92FF920F93B5
:101230001F93CF93DF934C015B0181E090E064E06A
:1012400070E0A50122E030E00E94080680E29EE402
:1012500020E731E0F9013197F1F70197D9F786E0FE
:1012600090E00E943916EC01198218821B821A82C2
:101270001D821C82EE24EA94FE2CBAEFDB2E00E7DE
:1012800011E05DC18BE00E94600380938305809133
:101290006E0A90916F0AC3970CF44FC18091290B8D
:1012A00090912A0BC3973CF48091340B9091350BAD
:1012B000C3970CF442C182E090E061E070E00E94CC
:1012C000EC058FE192E00E94DF050894E11CF11C1F
:1012D00082B1807F82B9F701EE0FFF1FE80DF91D83
:1012E0000190F081E02DEC33F10521F08EEFE43D2B
:1012F000F80771F5D0922801D0922A018CE390E092
:101300000E944A0588EE93E0F8013197F1F70197C2
:10131000D9F78EE190E00E94FB0382B1807F856067
:1013200082B982E00E94600390E090936F0A8093FC
:101330006E0A8B3491058CF382B1807F82B981E093
:1013400090E061E070E00E94EC0580E392E03BC039
:10135000E837F10521F08FEFE031F807B9F5D092C9
:101360002801D0922A0182B1807F866082B98CEAFE
:101370009DE0F8013197F1F70197D9F78AE590E000
:101380000E94FB0388E893E1F8013197F1F7019798
:10139000D9F782B1807F856082B982E00E946003C4
:1013A00090E090936F0A80936E0A8B3491058CF3D2
:1013B00082B1807F82B981E090E061E070E00E94BC
:1013C000EC0581E492E00E94DF05A0C08FEFE43CD1
:1013D000F80721F081E0EC32F80771F5D09228018E
:1013E000D0922A018CE390E00E944A0588EE93E0B7
:1013F000F8013197F1F70197D9F78EE190E00E945B
:10140000020482B1807F8A6082B982E00E94600318
:1014100090E090936F0A80936E0A8B3491058CF361
:1014200082B1807F82B981E090E061E070E00E944B
:10143000EC0583E592E0C7CF8FEFE838F80719F0A5
:10144000E03FF10551F5D0922801D0922A0182B1F6
:10145000807F866082B98CEA9DE0F8013197F1F7D0
:101460000197D9F78AE590E00E94020488E893E1A9
:10147000F8013197F1F70197D9F782B1807F8A603F
:1014800082B982E00E94600390E090936F0A80939B
:101490006E0A8B3491058CF38BCFE43BF10519F088
:1014A000EC54FF4F99F5D0922801D0922A0182B1D5
:1014B000807F866082B982B1807F8A6082B988EB42
:1014C0009BE0F8013197F1F70197D9F782B1807F5E
:1014D000896082B980ED97E0F8013197F1F70197C3
:1014E000D9F782B1807F8A6082B982E00E9460036E
:1014F00080937A058B34A8F382B1807F82B988EE1D
:1015000093E0F8013197F1F70197D9F781E090E086
:1015100061E070E00E94EC0584E692E00E94DF0545
:1015200082E090E061E070E00E94EC0585E792E0E7
:101530000E94DF05EA14FB0414F40E946804EA1414
:10154000FB040CF49FCECE01DF91CF911F910F9140
:10155000FF90EF90DF90BF90AF909F908F90089595
:10156000CF92DF92EF92FF920F931F93CF93DF936F
:101570006C01162F072F7A0184E190E00E94391642
:10158000EC0121E030E0D7012D933C9318830983CF
:10159000AC01212F302FC901E1E0F0E00EC0D701EE
:1015A0008D919C91119701968D939C93DB018D9168
:1015B0009C91DA018D939C933196BC01660F771F45
:1015C0006C0D7D1D4E5F5F4FDB018D919C91BFEFD8
:1015D0008F3F9B0721F7EE0FFF1FEC0FFD1F91833D
:1015E0008083F70160817181CE010E945B02CE0190
:1015F000DF91CF911F910F91FF90EF90DF90CF90EF
:101600000895FF920F931F9381E090E061E070E0F6
:101610000E94EC0586E892E00E94DF0584E090E0FD
:101620000E943916F92E082F192F81E090E061E011
:1016300070E00E94EC0587E992E00E94DF05F80166
:101640001182108281E090E061E070E00E94EC0580
:1016500088EA92E00E94DF05F8011382128281E09D
:1016600090E061E070E00E94EC0589EB92E00E945E
:10167000DF05802F9F2D1F910F91FF90089584E02B
:1016800090E00E943916FC011382128208950F9394
:101690001F93CF93DF93EC018B010E943F0BDC0182
:1016A00011961C930E9388819981892B39F48A8134
:1016B0009B81892B19F4B983A88304C0EA81FB813B
:1016C000B383A283BB83AA83DF91CF911F910F9134
:1016D00008958F929F92AF92BF92CF92DF92EF9236
:1016E000FF920F931F93CF93DF935C017B01CB019C
:1016F000880F991F0E9439168C01E501BC0141E059
:1017000050E067010894C108D10829E1822E912C8C
:101710002CC02A813B81289DD001299DB00D389D88
:10172000B00D11248C819D81A80FB91FAA0FBB1F7A
:10173000A45CB44F89919991889DF001899DF00D29
:10174000989DF00D1124E20FF31FEE0FFF1FE45CD4
:10175000F44F8D919C9120813181821B930BFB0171
:1017600081939193BF014F5F5F4F4C155D058CF2E4
:10177000F7013197EE0FFF1FE00FF11F8FEF9FEF83
:101780009183808381E090E06EE070E0A70122E029
:1017900030E00E9408066701CC0CDD1CC4E0D0E0FC
:1017A0000EC0FE01EE7FEA0DFB1D4081518181E0FC
:1017B00090E0BE0122E030E00E9408062296CC159F
:1017C000DD057CF380E593EC20E731E0F90131970A
:1017D000F1F70197D9F7C801B7010E941009EC0190
:1017E00088819981892BA1F0EA81FB81EE0FFF1F8F
:1017F000EA0DFB1D808191819B838A83EC81FD81B1
:10180000EE0FFF1FEA0DFB1D808191819D838C836C
:10181000C8010E94E616CE01DF91CF911F910F9172
:10182000FF90EF90DF90CF90BF90AF909F908F9000
:101830000895CF93DF93DC01ED91FC9111973097E0
:1018400049F412968D919C911397892B19F4CFEF3F
:10185000DFEF10C0C081D1818281938111969C936A
:101860008E93892B21F413961C921E921297CF010E
:101870000E94E616CE01DF91CF9108952F923F92FC
:101880004F925F926F927F928F929F92AF92BF9290
:10189000CF92DF92EF92FF920F931F93DF93CF933C
:1018A000CDB7DEB764970FB6F894DEBF0FBECDBFDD
:1018B0005C0181E090E061E070E00E94EC058AEC60
:1018C00092E00E94DF050E94010B2C0181E090E074
:1018D00061E070E00E94EC058BED92E00E94DF0574
:1018E00084E190E00E9439161C014C017C018E01BC
:1018F0000D5F1F4F65E1C62ED12CCC0EDD1EF7010A
:1019000013821282F801119211928F0181E090E00E
:1019100061E070E00E94EC058CEE92E00E94DF0531
:1019200022E030E0E20EF31E0C151D0541F781E0C8
:1019300090E061E070E00E94EC058DEF92E00E9483
:10194000DF05C201B5010E94470B78C081E090E03D
:1019500061E070E00E94EC058EE093E00E94DF05FC
:10196000C2010E94190C3C01660C771C680C791CA2
:10197000E2E3F0E08E9F70018F9FF00C9E9FF00CD1
:1019800011242CE835E0E20EF31E43E0A42EB12C26
:10199000AC0EBD1E610101E010E0F5018081918176
:1019A000892BA1F4F30180819181F701208131819C
:1019B000820F931FF60193838283C201B8010E94B4
:1019C000470B21E030E0F5013183208381E090E096
:1019D00061E070E00E94EC058FE193E00E94DF057A
:1019E00081E090E06FE070E0A80122E030E00E942A
:1019F00008060F5F1F4F82E090E0A80EB91EE80EA8
:101A0000F91EC80ED91E0A30110539F681E090E0A2
:101A100061E070E00E94EC058EE293E00E94DF0539
:101A200086B1886088B980ED97E0E0E7F1E0319712
:101A3000F1F70197D1F786B1877F88B9F2018081EC
:101A40009181892B09F082CF81E090E061E070E024
:101A50000E94EC058EE393E00E94DF05C4016496CA
:101A60000FB6F894DEBF0FBECDBFCF91DF911F91AF
:101A70000F91FF90EF90DF90CF90BF90AF909F902D
:101A80008F907F906F905F904F903F902F90089530
:101A90000F931F938C0181E090E061E070E00E9461
:101AA000EC058FE493E00E94DF05C8010E943E0C24
:101AB0001F910F910895CF93DF93EC0103C0CE01E6
:101AC0000E94190C88819981892BC9F7DF91CF91E8
:101AD00008952F923F924F925F926F927F928F92D2
:101AE0009F92AF92BF92CF92DF92EF92FF920F93AD
:101AF0001F93DF93CF93CDB7DEB7CE56D0400FB64E
:101B0000F894DEBF0FBECDBF2C01A9967FAF6EAF9C
:101B1000A9979E01235C3F4FAD963FAF2EAFAD9787
:101B2000AB01440F551F81E090E08C0F9D1F840F87
:101B3000951FAB969FAF8EAFAB9781E090E061E0D1
:101B400070E00E94EC0580E693E00E94DF0581E0F2
:101B500090E061E070E00E94EC0581E793E00E9474
:101B6000DF05A9968EAD9FADA9970E94480DA79657
:101B70009FAF8EAFA79781E090E061E070E00E9498
:101B8000EC0582E893E00E94DF05F201EE0FFF1FF3
:101B9000A1E0B0E0AC0FBD1FAE0FBF1FDD961C92E1
:101BA0001E92DC97A1E5B0E0AC0FBD1FAE0FBF1FCA
:101BB000A7962EAD3FADA797E20FF31F80819181CD
:101BC0008D939C9382E090E061E070E00E94EC05D0
:101BD00083E993E00E94DF0580E090E0E9E2F0E035
:101BE000EC0FFD1FE80FF91F11821082E5E1F0E014
:101BF000EC0FFD1FE80FF91F11821082E1E0F0E009
:101C0000EC0FFD1FE80FF91F4FEF5FEF518340838B
:101C1000E1E5F0E0EC0FFD1FE80FF91F20EC37E2E3
:101C200031832083EDE3F0E0EC0FFD1FE80FF91F97
:101C30003183208302968431910581F682E090E021
:101C400061E070E00E94EC0584EA93E00E94DF0509
:101C5000F201EE0FFF1F41E050E04C0F5D1FE40F5B
:101C6000F51F81E090E0958B848B31E0232E312CA1
:101C7000D4C0F70180819181892BB1F0FFEF6F3FD4
:101C80007F0789F0FB01EE0FFF1F21E530E02C0FED
:101C90003D1FE20FF31F208131818D919C9111979F
:101CA000281739070CF0BA014F5F5F4F82E090E0D0
:101CB000E80EF91E12964A305105D9F6FB01EE0FD7
:101CC000FF1F21E030E02C0F3D1FE20FF31F158AAC
:101CD000148A41E050E051A740A7A9968EAD9FAD70
:101CE000A9976817790709F4A5C008942108310855
:101CF00089E2682E712C6C0E7D1E05E1802E912CE0
:101D00008C0E9D1E22E330E0629F7001639FF00CF9
:101D1000729FF00C11244AE855E0E40EF51EDE0136
:101D2000DD96A796AEACBFACA79711E5C12ED12C1E
:101D3000CC0EDD1E8E010F5F1F4FCF01CC96AF96EC
:101D40009FAF8EAFAF97F30180819181892B09F00E
:101D500040C0F40180819181F70140815181892B3C
:101D6000E1F421E030E0F401318320830894211C68
:101D7000311CAF96EEADFFADAF9780819181840F9E
:101D8000951F11969C938E93F50120813181820FCE
:101D9000931FF6019183808319C0AF96EEADFFAD1E
:101DA000AF9720813181240F351F8D919C91119720
:101DB0002817390774F411963C932E93F50180810E
:101DC0009181280F391FF60131832083F801718337
:101DD000608322E030E0620E731E820E931EE20EDC
:101DE000F31E1296A20EB31EC20ED31E0E5F1F4F1D
:101DF000AD964EAD5FADAD976416750609F0A3CFF5
:101E000082E090E061E070E00E94EC0585EB93E0F9
:101E10000E94DF052114310469F0B5E1EB2EF12CAD
:101E2000EC0EFD1EDE01AF5ABF4F40E050E06FEFF9
:101E30007FEF1FCF82E090E061E070E00E94EC0550
:101E400086EC93E00E94DF05AB96EEADFFADAB975D
:101E5000808191818F5F9F4F39F4A7968EAD9FADA2
:101E6000A7970E94E61662C082E090E00E943916B1
:101E70008C01FC0111821082CE010196A9966EADF3
:101E80007FADA997A8010E94B00A7C0181E090E093
:101E900061E070E00E94EC0587ED93E00E94DF05B1
:101EA000F70180819181B8010E94690B7C01A7969E
:101EB0008EAD9FADA7970E94E616C8010E94E61658
:101EC000F70180819181892B31F4C7010E94E616C8
:101ED000442455242BC0F70142805380248135814E
:101EE00089E190E0289FF001299FF00D389FF00DC7
:101EF0001124E40DF51DEE0FFF1FE657FA4F40ECDD
:101F000057E251834083489EF001499EF00D589E50
:101F1000F00D1124E20FF31FEE0FFF1FE657FA4FEB
:101F200051834083C7010E94E61607CEC201C25901
:101F3000DF4F0FB6F894DEBF0FBECDBFCF91DF915C
:101F40001F910F91FF90EF90DF90CF90BF90AF90D7
:101F50009F908F907F906F905F904F903F902F90C9
:101F600008950E9431080E9451050E94A40589E647
:101F70000E94080780915F04909160048F5F9F4FDB
:101F800009F054C081E061E00E94EC0588EE93E026
:101F90000E94DF0582E061E00E94EC0589EF93E09A
:101FA0000E94DF0580E29EE420E731E0F9013197ED
:101FB000F1F70197D9F781E090E067E070E00E94C7
:101FC000690D20E030E040E751E086B1886088B9D3
:101FD00080ED97E0FA013197F1F70197D9F786B1D3
:101FE000877F88B984EF91E0FA013197F1F7019783
:101FF000D9F72F5F3F4F2431310539F782B1807F08
:1020000082B91092280110922A0181E061E00E94B9
:10201000EC058AE094E00E94DF0582E061E00E9426
:10202000EC058BE194E00E94DF05E8CF81E061E000
:102030000E94EC058AE094E00E94DF0582E061E006
:102040000E94EC058CE294E00E94DF0593CFEF92B2
:10205000FF920F931F93CF93DF93EB010E94690DC3
:102060008C01B0E7EB2EB1E0FB2E46C082B1807F41
:1020700082B91092280110922A0181E061E00E9449
:10208000EC058DE394E00E94DF0582E061E00E94B0
:10209000EC058EE494E00E94DF0588EE93E0F70102
:1020A0003197F1F70197D9F78091360B9091370B63
:1020B00097FF22C066277727681B790BCE010E9405
:1020C000690D0E94B6078091880590918905019657
:1020D00090938905809388058093C6008091360B84
:1020E0009091370B909581959F4FBE010E94690D8D
:1020F0001092370B1092360B20912E0B30912F0B34
:10210000E0918805F0918905EE0FFF1FE20FF31FA4
:1021100080819181892B09F4A9CF0115110541F026
:102120004091860550918705F90120E030E017C005
:102130000E94B60780918805909189050196909339
:102140008905809388058093C60018C0819191917C
:102150008C179D0711F4F90105C02F5F3F4F24171D
:102160003507A4F3882799278C1B9D0B8093C60005
:10217000EE0FFF1FE450F54F11830083DF91CF91E5
:102180001F910F91FF90EF900895EF92FF920F93A0
:102190001F937B018C0120E030E040E05FE40E946F
:1021A000471388238CF0C801B70120E030E040E0FD
:1021B0005FE40E943D120E9477139B01AC01205006
:1021C00030404040504806C0C801B7010E94771314
:1021D0009B01AC01B901CA011F910F91FF90EF90D3
:1021E0000895A0E0B0E0E7EFF0E10C945217DC01B5
:1021F0002B01FA019C91923008F439C1EB018881DE
:10220000823008F433C1943069F4843009F02FC16E
:1022100011969C9111978981981709F428C1A1E61C
:10222000B4E025C1843009F421C18230A9F4923090
:1022300009F01DC19A01AD0188E0EA010990AE01E3
:10224000E90109929E018150C1F7E201898111964D
:102250009C918923818308C1923009F407C11296A9
:102260002D903C901397EB018A819B811496AD9041
:10227000BD90CD90DC901797EC80FD800E811F8182
:102280009101281B390BB90137FF04C06627772756
:10229000621B730B603271050CF061C012161306DD
:1022A0006CF537014801062E04C096948794779404
:1022B00067940A94D2F721E030E040E050E004C097
:1022C000220F331F441F551F6A95D2F7215030400B
:1022D000404050402E213F214023512321153105FC
:1022E0004105510521F021E030E040E050E0790166
:1022F0008A01E628F728082919293CC0232BD1F1A7
:10230000260E371E35014601062E04C0969487948A
:10231000779467940A94D2F721E030E040E050E0EF
:1023200004C0220F331F441F551F6A95D2F7215056
:102330003040404050402A213B214C215D21211555
:1023400031054105510521F021E030E040E050E049
:1023500059016A01A628B728C828D9280BC08215B8
:1023600093052CF01C01AA24BB24650103C0EE24B4
:10237000FF24870111969C91D20111968C91981798
:1023800009F445C0992339F0A80197012A193B099E
:102390004C095D0906C0A60195012E193F09400BA5
:1023A000510B57FD08C0118233822282248335836A
:1023B000468357831DC081E0818333822282882730
:1023C0009927DC01821B930BA40BB50B84839583A7
:1023D000A683B7830DC0220F331F441F551F2483CC
:1023E00035834683578382819381019793838283C8
:1023F0002481358146815781DA01C9010197A109FC
:10240000B1098F5F9F4FAF4FBF4328F30BC091833C
:1024100033822282EA0CFB1C0C1D1D1DE482F58216
:102420000683178383E08083248135814681578129
:1024300057FF1AC0C901AA2797FDA095BA2F81702E
:102440009070A070B0705695479537952795822B60
:10245000932BA42BB52B84839583A683B78382818A
:102460009381019693838283DF0101C0D201CD0164
:10247000CDB7DEB7E2E10C946E17A0E2B0E0E3E482
:10248000F2E10C945E1769837A838B839C832D839E
:102490003E834F835887E9E0EE2EF12CEC0EFD1EB3
:1024A000CE010196B7010E9468158E010F5E1F4F85
:1024B000CE010596B8010E9468158A8991E08927A6
:1024C0008A8BC701B801AE01475E5F4F0E94F110D1
:1024D0000E949314A096E6E00C947A17A0E2B0E074
:1024E000E4E7F2E10C945E1769837A838B839C8323
:1024F0002D833E834F835887F9E0EF2EF12CEC0EAD
:10250000FD1ECE010196B7010E9468158E010F5E77
:102510001F4FCE010596B8010E946815C701B8018A
:10252000AE01475E5F4F0E94F1100E949314A09687
:10253000E6E00C947A17A8E1B0E0E1EAF2E10C944D
:102540005A1769837A838B839C832D833E834F83C1
:102550005887B9E0EB2EF12CEC0EFD1ECE01019652
:10256000B7010E9468158E010F5E1F4FCE010596C0
:10257000B8010E9468152985223008F47EC0398987
:10258000323010F4B8017CC08A859A8989278A87FD
:10259000243011F0223031F4231709F06EC061E6C7
:1025A00074E06EC0343039F41D861E861F86188A8A
:1025B0001C861B8604C0323021F484E08987B70171
:1025C0005FC02B853C858B899C89281B390B3C87F8
:1025D0002B87ED84FE840F851889AD88BE88CF884F
:1025E000D88CEA14FB040C051D0540F4EE0CFF1C0E
:1025F000001F111F215030403C872B8720E030E026
:1026000040E050E080E090E0A0E0B0E460E070E006
:10261000EA14FB040C051D0540F0282B392B4A2B2E
:102620005B2BEA18FB080C091D09B695A795979531
:102630008795EE0CFF1C001F111F6F5F7F4F6F31DE
:10264000710531F7DA01C9018F779070A070B07011
:1026500080349105A105B10561F427FD0AC0E1149C
:10266000F1040105110529F0205C3F4F4F4F5F4FEA
:1026700020782D873E874F87588BBE01675F7F4F3D
:10268000CB010E9493146896EAE00C947617A8E1B7
:10269000B0E0EDE4F3E10C945E1769837A838B83F9
:1026A0009C832D833E834F83588789E0E82EF12C4D
:1026B000EC0EFD1ECE010196B7010E9468158E0139
:1026C0000F5E1F4FCE010596B8010E9468158985DF
:1026D000823040F08989823028F0C701B8010E9419
:1026E000E01501C08FEF6896E6E00C947A17ACE035
:1026F000B0E0EDE7F3E10C94621769837A838B8392
:102700009C83CE010196BE016B5F7F4F0E946815CE
:102710008D81823061F1823050F1843021F48E81DC
:10272000882351F12EC02F81388537FD20C06E815E
:102730002F3131051CF06623F9F023C08EE190E0C3
:10274000821B930B29853A854B855C8504C0569581
:102750004795379527958A95D2F76623B1F050951E
:102760004095309521953F4F4F4F5F4F0EC020E071
:1027700030E040E050E009C02FEF3FEF4FEF5FE760
:1027800004C020E030E040E050E8B901CA012C96D6
:10279000E2E00C947E17A8E0B0E0E1EDF3E10C94E8
:1027A0005A177B018C01611571058105910519F49A
:1027B00082E0898360C083E089838EE1C82ED12CBA
:1027C000DC82CB82ED82FE820F831887C801B701BD
:1027D0000E944414FC013197F7FF3BC022273327A6
:1027E0002E1B3F0B57016801022E04C0D694C794DC
:1027F000B794A7940A94D2F740E050E060E070E00C
:1028000081E090E0A0E0B0E004C0880F991FAA1F0B
:10281000BB1F2A95D2F70197A109B1098E219F21EB
:10282000A023B1230097A105B10521F041E050E0BC
:1028300060E070E04A295B296C297D294D835E8325
:102840006F8378878EE190E08E1B9F0B9C838B8338
:1028500012C0309781F00E2E04C0EE0CFF1C001F3A
:10286000111F0A94D2F7ED82FE820F831887CE1AC9
:10287000DF0ADC82CB821A82CE0101960E94931479
:102880002896EAE00C947617EF92FF920F931F932D
:102890007B018C0180E0E81680E0F80681E0080703
:1028A00080E0180788F48FEFE816F10401051105A0
:1028B00031F028F088E090E0A0E0B0E017C080E0C0
:1028C00090E0A0E0B0E012C080E0E81680E0F806FA
:1028D00080E0080781E0180728F088E190E0A0E098
:1028E000B0E004C080E190E0A0E0B0E020E230E0A1
:1028F00040E050E0281B390B4A0B5B0B04C01695D7
:102900000795F794E7948A95D2F7F701E759FB4FBB
:102910008081281B310941095109C9011F910F917B
:10292000FF90EF900895DF92EF92FF920F931F9325
:10293000FC01E480F58006811781D180808182309E
:1029400048F480E090E0A0E1B0E0E82AF92A0A2B00
:102950001B2BA5C0843009F49FC0823021F4EE24E3
:10296000FF24870105C0E114F1040105110519F4E4
:10297000E0E0F0E096C0628173819FEF62387907F2
:102980000CF05BC022E83FEF261B370B2A313105E4
:102990002CF020E030E040E050E02AC0B801A70170
:1029A000022E04C076956795579547950A94D2F7FD
:1029B00081E090E0A0E0B0E004C0880F991FAA1F5A
:1029C000BB1F2A95D2F70197A109B1098E219F213A
:1029D000A023B1230097A105B10521F081E090E08B
:1029E000A0E0B0E09A01AB01282B392B4A2B5B2BDE
:1029F000DA01C9018F779070A070B07080349105B2
:102A0000A105B10539F427FF09C0205C3F4F4F4FA6
:102A10005F4F04C0215C3F4F4F4F5F4FE0E0F0E05D
:102A20002030A0E03A07A0E04A07A0E45A0710F0DF
:102A3000E1E0F0E079018A0127C06038710564F5B2
:102A4000FB01E158FF4FD801C7018F779070A0704C
:102A5000B07080349105A105B10539F4E7FE0DC0D1
:102A600080E490E0A0E0B0E004C08FE390E0A0E05C
:102A7000B0E0E80EF91E0A1F1B1F17FF05C01695D0
:102A80000795F794E794319687E016950795F794A4
:102A9000E7948A95D1F705C0EE24FF248701EFEF74
:102AA000F0E06E2F679566276795902F9F77D794F4
:102AB000DD24D7948E2F8695492F462B582F5D29DC
:102AC000B701CA011F910F91FF90EF90DF90089519
:102AD000FC01DB01408151812281622F6F7770E020
:102AE000221F2227221F9381892F880F822B282FB4
:102AF00030E0991F9927991F11969C9311972115E2
:102B00003105A9F5411551056105710511F482E002
:102B100037C082E89FEF13969C938E9312979A0189
:102B2000AB0167E0220F331F441F551F6A95D1F791
:102B300083E08C930DC0220F331F441F551F129644
:102B40008D919C911397019713969C938E93129756
:102B5000203080E0380780E0480780E4580758F3C9
:102B600014962D933D934D935C93179708952F3FA3
:102B7000310579F4411551056105710519F484E0B9
:102B80008C93089564FF03C081E08C9312C01C9263
:102B900010C02F57304013963C932E93129783E02A
:102BA0008C9387E0440F551F661F771F8A95D1F7D6
:102BB000706414964D935D936D937C93179708956D
:102BC0001F93DC01FB019C91923008F447C0808187
:102BD000823008F443C0943051F411961C91843033
:102BE00099F58181682F70E0611B71093FC08430C5
:102BF00021F0923031F48230B9F18181882389F15A
:102C00002DC011961C9111978230F1F08181181717
:102C1000D9F412962D913C9113978281938182175A
:102C2000930794F028173907BCF014968D919D9165
:102C30000D90BC91A02D24813581468157812817A4
:102C400039074A075B0718F4112341F00AC08217BD
:102C50009307A407B50740F4112319F061E070E071
:102C600005C06FEF7FEF02C060E070E0CB011F9105
:102C70000895CF93DF93BC018230910510F462E098
:102C800070E0A0912010B0912110ED01E0E0F0E0A3
:102C900040E050E021C0888199818617970769F448
:102CA0008A819B81309719F09383828304C090932B
:102CB000211080932010FE0134C06817790738F482
:102CC0004115510519F08417950708F4AC01FE0170
:102CD0008A819B819C01E9012097E9F64115510504
:102CE000A9F1CA01861B970B049708F4BA01E0E02A
:102CF000F0E02AC08D919C91119784179507F9F403
:102D00006417750781F412968D919C9113973097F3
:102D100019F09383828304C0909321108093201034
:102D2000FD0132964FC0CA01861B970BFD01E80FCB
:102D3000F91F6193719302978D939C9343C0FD019A
:102D4000828193819C01D9011097A1F680911E1078
:102D500090911F10892B41F480916B0590916C0527
:102D600090931F1080931E1040916D0550916E0539
:102D70004115510541F44DB75EB7809169059091B9
:102D80006A05481B590B20911E1030911F10241703
:102D90003507B0F4CA01821B930B8617970780F0A2
:102DA000AB014E5F5F4F8417950750F0420F531FE2
:102DB00050931F1040931E10F9016193719302C04C
:102DC000E0E0F0E0CF01DF91CF910895CF93DF9362
:102DD000009709F450C0EC0122971B821A82A0913F
:102DE0002010B0912110109709F140E050E0AC178D
:102DF000BD0708F1BB83AA83FE0121913191E20F47
:102E0000F31FAE17BF0779F48D919C911197280F8E
:102E1000391F2E5F3F4F3983288312968D919C91E5
:102E200013979B838A834115510571F4D093211028
:102E3000C093201020C012968D919C911397AD01E4
:102E4000009711F0DC01D3CFFA01D383C283219123
:102E50003191E20FF31FCE17DF0769F48881998162
:102E6000280F391F2E5F3F4FFA01318320838A815B
:102E70009B8193838283DF91CF910895AA1BBB1B13
:102E800051E107C0AA1FBB1FA617B70710F0A61B6A
:102E9000B70B881F991F5A95A9F780959095BC018B
:102EA000CD0108952F923F924F925F926F927F9241
:102EB0008F929F92AF92BF92CF92DF92EF92FF924A
:102EC0000F931F93CF93DF93CDB7DEB7CA1BDB0BF6
:102ED0000FB6F894DEBF0FBECDBF19942A8839888B
:102EE00048885F846E847D848C849B84AA84B984A2
:102EF000C884DF80EE80FD800C811B81AA81B981AE
:102F0000CE0FD11D0FB6F894DEBF0FBECDBFED01C1
:062F10000895F894FFCFC4
:102F16004D4E502044455445435445442000537477
:102F260072696E6B696E67204E6F64652121004E73
:102F36004F544520444554454354454421212100DE
:102F460036302064656772656520737563636573E3
:102F5600003132302064656772656520737563637E
:102F66006573002D3630206465677265652073755C
:102F76006365730020202020202020202020202090
:102F860020202020004D4F56494E47204F4E2046C8
:102F96004C4558212100456E746572656420445382
:102FA60074617220352000456E7465726564204434
:102FB6005374617220363100456E74657265642003
:102FC600445374617220363200456E7465726564CE
:102FD60020445374617220363300456E7465726501
:102FE6006420445374617220342000456E74657207
:102FF600656420445374617220362000456E746502
:1030060072656420445374617220372000456E74E3
:103016006572656420445374617220382000456EE1
:1030260074657265642044537461722039200045CA
:103036006E74657265642044537461722000454C59
:103046006F6F7020636F6D706C6574656400456E9C
:103056007465726564204453746172203132004590
:103066006E74657265642044537461722033200067
:10307600456E746572656420445374617220202025
:1030860000456E7465726564204453746172203124
:103096002000456E74657265642044537461722025
:1030A600322000466972737420666F72206C6F6FEF
:1030B60070203100466972737420666F72206C6FDF
:1030C6006F702020005768696C6520666F72206CEF
:1030D6006F6F702020004669727374207768696C80
:1030E60065206C6F6F7000456E746572696E67203F
:1030F6004D6F766520202000202020202020417260
:1031060072617920202020200020202052656369EA
:1031160065766564212121202000202020202020A2
:103126005461736B202020202020002020436F6DE7
:10313600706C657465642121212020002020496E71
:103146006974696174656421212120200020202092
:1031560057616974696E672121212020200020466D
:103166006F7220536C61766520426F74212000FFD8
:10317600FF0000000000000000000102020303033C
:1031860003040404040404040405050505050505F3
:1031960005050505050505050506060606060606D2
:1031A60006060606060606060606060606060606B9
:1031B60006060606060606060607070707070707A2
:1031C6000707070707070707070707070707070789
:1031D6000707070707070707070707070707070779
:1031E6000707070707070707070707070707070769
:1031F6000707070707070707070808080808080852
:103206000808080808080808080808080808080838
:103216000808080808080808080808080808080828
:103226000808080808080808080808080808080818
:103236000808080808080808080808080808080808
:1032460008080808080808080808080808080808F8
:1032560008080808080808080808080808080808E8
:1032660008080808080808080808080808080808D8
:1032760008080808080808080820002210000000AE
:00000001FF
