:100000000C9472000C948B000C948B000C948B005D
:100010000C948B000C948B000C948B000C948B0034
:100020000C948B000C948B000C948B000C948B0024
:100030000C948B000C948B000C948B000C948B0014
:100040000C948B000C948B000C948B000C948B0004
:100050000C948B000C948B000C948B000C948B00F4
:100060000C948B000C948B000C948B000C948B00E4
:100070000C948B000C948B000C948B000C948B00D4
:100080000C948B000C948B000C948B000C948B00C4
:100090000C948B000C948B000C948B000C948B00B4
:1000A0000C948B000C948B000C948B000C948B00A4
:1000B0000C948B000C948B000C948B000C948B0094
:1000C0000C948B000C948B000C948B000C948B0084
:1000D0000C948B000C948B000C948B000C948B0074
:1000E0000C948B0011241FBECFEFD1E2DEBFCDBF39
:1000F00000E00CBF12E0A0E0B2E0EAE5F2E000E0D0
:100100000BBF02C007900D92A030B107D9F70E9433
:10011000C9000C942B010C94000081B18F6081B94F
:1001200082B1807F82B9EAE0F1E0808188618083DA
:10013000EBE0F1E08081886180830895E1E2F1E005
:1001400010829FEF9093250181E08093240110920B
:1001500029019093280110922B0190932A0110926B
:100160002D0190932C0189EA809320018BE08083FC
:1001700008958093280160932A01089592B1907F99
:100180008F70892B82B9089582B1807F866082B991
:100190000895F89481B18F6081B982B1807F82B96E
:1001A00080910A01886180930A0180910B01886126
:1001B00080930B01109221019FEF9093250181E024
:1001C00080932401109229019093280110922B0111
:1001D00090932A0110922D0190932C0189EA80932B
:1001E00020018BE080932101789482B1807F86602A
:1001F00082B954E620E731E04FEF50932801509345
:100200002A0182B1807F866082B980E29EE4F90192
:100210003197F1F70197D9F71092280140932A01FD
:1002200082B1807F866082B980E29EE4F9013197D5
:10023000F1F70197D9F74093280110922A0182B172
:10024000807F866082B980E29EE4F9013197F1F700
:0A0250000197D9F7D2CFF894FFCF41
:00000001FF
