:100000000C9472000C9493000C9493000C94930045
:100010000C9493000C9453020C942E020C949300B5
:100020000C9493000C9493000C9493000C94930004
:100030000C9493000C9493000C9493000C949300F4
:100040000C9493000C9493000C9493000C949300E4
:100050000C9493000C9493000C9493000C949300D4
:100060000C9493000C9493000C9493000C949300C4
:100070000C9493000C9493000C9493000C949300B4
:100080000C9493000C9493000C9493000C949300A4
:100090000C9493000C9493000C9493000C94930094
:1000A0000C9493000C9493000C9493000C94930084
:1000B0000C9493000C9493000C9493000C94930074
:1000C0000C9493000C9493000C9493000C94930064
:1000D0000C9493000C9493000C9493000C94930054
:1000E0000C94930011241FBECFEFD1E2DEBFCDBF31
:1000F00000E00CBF13E0A0E0B2E0EEE5F5E100E0C7
:100100000BBF02C007900D92A830B107D9F713E0DA
:10011000A8E0B3E001C01D92A632B107E1F70E944A
:100120002B040C94AD0A0C94000086E69EE0FC01C2
:100130003197F1F74098419840E348B9429A20E05E
:1001400038E4F9013197F1F74298FC013197F1F762
:100150004098419848B9429AF9013197F1F742988D
:10016000FC013197F1F74098419848B9429AF9015A
:100170003197F1F742980197F1F74098419880E262
:1001800088B9429AC9010197F1F74298089598B148
:100190009F7098B928B1982F907F922B98B940986A
:1001A0004198429A20E038E4F9013197F1F74298FA
:1001B00098B19F7098B998B18295807F982B98B923
:1001C00040984198429AC9010197F1F742980895E1
:1001D00086E69EE00197F1F788E20E94C70081E081
:1001E0000E94C70086E00E94C7008EE00E94C70000
:1001F00080E80E94C700089598B19F7098B928B10F
:10020000982F907F922B98B9409A4198429A20E07B
:1002100038E4F9013197F1F7429898B19F7098B995
:1002200098B18295807F982B98B9409A4198429ACC
:10023000C9010197F1F74298089580E80E94C7002C
:100240000895CF93DF93EC0103C00E94FC00219638
:1002500088818823D1F7DF91CF910895823069F0AA
:10026000833018F48130A9F405C0833049F084301C
:1002700081F40BC0862F815805C0862F815402C09F
:10028000862F8D560E94C7000895862F8D520E949A
:10029000C70008950F931F93CF93DF938A01E9015D
:1002A000882311F0662319F40E941D0102C00E94E8
:1002B0002E01C530D10571F4C80160E177E20E94DA
:1002C000620ACB01C09690931603809315030E9497
:1002D000FC0005C0C430D10511F080E016C0C80193
:1002E00068EE73E00E94620ACB016093170390935B
:1002F00018036AE070E00E94620AC096909323039C
:10030000809322030E94FC0081E0C330D10521F0DC
:10031000813011F080E016C0C80164E670E00E94F0
:10032000620ACB0160931703909318036AE070E0B0
:100330000E94620AC09690931F0380931E030E943E
:10034000FC0081E0C230D10521F0813011F080E065
:1003500016C0C8016AE070E00E94620ACB01609397
:100360001703909318036AE070E00E94620AC09637
:1003700090931D0380931C030E94FC0081E0C13018
:10038000D10511F0813061F4C8016AE070E00E948B
:10039000620AC09690932103809320030E94FC0080
:1003A00026971CF085E40E94FC00DF91CF911F91FD
:1003B0000F91089581B18F6081B9EAE0F1E0808109
:1003C0008861808382B1807F82B9EBE0F1E0808137
:1003D0008861808308956C98749A08956D98759AD1
:1003E0000895A1E2B1E01C922FEF2093250181E056
:1003F00080932401109229012093280110922B014F
:1004000020932A01ECE2F1E08FEF90E0918380836A
:1004100010922D01208389EA809320018BE08C9338
:100420000895F894EAE6F0E0808182608083EC9A97
:1004300078940895F894EAE6F0E0808188608083FB
:10044000ED9A789408958093280160932A01089585
:1004500092B1907F8F70892B82B908951F920F926D
:100460000FB60F9211248F939F93AF93BF938091F8
:100470000F0390911003A0911103B0911203019604
:10048000A11DB11D80930F0390931003A09311033E
:10049000B0931203BF91AF919F918F910F900FBEB8
:1004A0000F901F9018951F920F920FB60F92112464
:1004B0008F939F93AF93BF9380910B0390910C0305
:1004C000A0910D03B0910E030196A11DB11D809363
:1004D0000B0390930C03A0930D03B0930E03BF91F5
:1004E000AF919F918F910F900FBE0F901F90189515
:1004F00082B1807F82B90895EF92FF920F931F938C
:10050000A0E0B0E0BC01CD010E94F40728E431EE88
:1005100042E850E40E94C4060E94EE047B018C0174
:1005200010920F03109210031092110310921203F5
:1005300010920B0310920C0310920D0310920E03F5
:1005400020910B0330910C0340910D0350910E0349
:1005500081E061E0A90122E030E00E944A0120919F
:100560000F0330911003409111035091120382E068
:1005700061E0A90122E030E00E944A0180910F036E
:1005800090911003A0911103B091120320910B03DD
:1005900030910C0340910D0350910E038E159F0571
:1005A000A007B10728F42E153F054007510740F278
:1005B00082B1807F82B91F910F91FF90EF900895D3
:1005C000EF92FF920F931F93A0E0B0E0BC01CD012A
:1005D0000E94F40725EE30ED4AEA50E40E94C4067A
:1005E0000E94EE047B018C0110920B0310920C030D
:1005F00010920D0310920E0320910B0330910C0307
:1006000040910D0350910E0381E061E0A90122E0C9
:1006100030E00E944A0120910F0330911003409175
:1006200011035091120382E061E0A90122E030E061
:100630000E944A0180910B0390910C03A0910D033D
:10064000B0910E03E816F9060A071B07A8F682B157
:10065000807F82B91F910F91FF90EF90089582B132
:10066000807F866082B9089582B1807F896082B977
:10067000089582B1807F856082B9089582B1807FBC
:100680008A6082B9089582B1807F856082B90895B9
:1006900082B1807F8A6082B9089582B1807F846050
:1006A00082B9089582B1807F826082B9089582B153
:1006B000807F816082B9089582B1807F886082B92D
:1006C000089522B1207F256022B90E947C020895FE
:1006D00022B1207F2A6022B90E947C02089522B1B3
:1006E000207F246022B9880F991F0E947C02089500
:1006F00022B1207F226022B9880F991F0E947C02BC
:10070000089522B1207F216022B9880F991F0E948D
:100710007C02089522B1207F286022B9880F991F9A
:100720000E947C02089587B1876F87B988B180786D
:1007300088B9089510BA11BA1092070110920801F1
:100740000895EAE7F0E0108210927B0010927C009E
:1007500086E8808380E880BF0895F89481B18F6037
:1007600081B9EAE0F1E080818861808382B1807F95
:1007700082B9EBE0F1E0808188618083A1E2B1E0A1
:100780001C922FEF2093250181E080932401109289
:1007900029012093280110922B0120932A01ECE2D9
:1007A000F1E08FEF90E09183808310922D01208300
:1007B00089EA809320018BE08C9387B1876F87B99A
:1007C00088B1807888B910BA11BA109207011092D6
:1007D00008016C98749A6D98759AEAE7F0E01082B7
:1007E00010927B0010927C0086E8808380E880BFB6
:1007F00078940895982F883018F088E080937B00D3
:100800009770906290937C0080917A0080648093CE
:100810007A0080917A0084FFFCCF809179009091DA
:100820007A00906190937A0010927B0008950F9364
:100830001F93182F062F842F0E94FA03482F8093AE
:100840001903812F602F50E023E030E00E944A011D
:100850001F910F910895EF92FF921F93CF93DF9313
:100860000E94AD030E9495000E94E80088EC8093EE
:10087000280180932A0182E061E048EC50E023E007
:1008800030E00E944A0182E065E048EC50E023E05D
:1008900030E00E944A0182B1807F866082B960E7C1
:1008A000E62E61E0F62E18EC83E00E94FA038093B6
:1008B000080382E00E94FA038093090381E00E940A
:1008C000FA0380930A0381E061E043E00E94170489
:1008D00081E065E042E00E94170481E069E041E0C8
:1008E0000E94170480910803853118F0C4E6D0E017
:1008F00002C0C0E0D0E080910903853108F02A965B
:1009000080910A03853108F0219682E069E0AE010A
:1009100023E030E00E944A01CB30D10519F0CE36F9
:10092000D105A1F41092280110922A018EE190E0E5
:100930000E9461038EE190E00E94680380E593ECE1
:10094000F7013197F1F70197D9F7AECFCA30D1054A
:1009500069F41093280110932A0182B1807F866088
:1009600082B982E061E048EC50E013C0C436D105A2
:1009700029F41092280110932A0107C0C130D10533
:1009800089F41093280110922A0182E061E040E08E
:1009900050E023E030E00E944A0182E065E048EC4C
:1009A00050E012C0CD2BA9F41093280110932A0116
:1009B00082E061E040E050E023E030E00E944A0144
:1009C00082E065E040E050E023E030E00E944A0130
:1009D0006BCF1092280110922A0166CFEF92FF92FE
:1009E0000F931F937B018C0120E030E040E05FE437
:1009F0000E94700788238CF0C801B70120E030E026
:100A000040E05FE40E9466060E94A0079B01AC01E3
:100A1000205030404040504806C0C801B7010E94F5
:100A2000A0079B01AC01B901CA011F910F91FF9072
:100A3000EF900895A0E0B0E0E0E2F5E00C94760AD3
:100A4000DC012B01FA019C91923008F439C1EB01D1
:100A50008881823008F433C1943069F4843009F01D
:100A60002FC111969C9111978981981709F428C17B
:100A7000A0E0B2E025C1843009F421C18230A9F49C
:100A8000923009F01DC19A01AD0188E0EA01099098
:100A9000AE01E90109929E018150C1F7E20189810D
:100AA00011969C918923818308C1923009F407C172
:100AB00012962D903C901397EB018A819B8114969E
:100AC000AD90BD90CD90DC901797EC80FD800E81AD
:100AD0001F819101281B390BB90137FF04C066271C
:100AE0007727621B730B603271050CF061C0121620
:100AF00013066CF537014801062E04C096948794BE
:100B0000779467940A94D2F721E030E040E050E017
:100B100004C0220F331F441F551F6A95D2F721507E
:100B20003040404050402E213F2140235123211589
:100B300031054105510521F021E030E040E050E071
:100B400079018A01E628F728082919293CC0232BB6
:100B5000D1F1260E371E35014601062E04C09694AB
:100B60008794779467940A94D2F721E030E040E0CC
:100B700050E004C0220F331F441F551F6A95D2F75F
:100B800021503040404050402A213B214C215D21E2
:100B9000211531054105510521F021E030E040E00B
:100BA00050E059016A01A628B728C828D9280BC0E7
:100BB000821593052CF01C01AA24BB24650103C0F7
:100BC000EE24FF24870111969C91D20111968C91FD
:100BD000981709F445C0992339F0A80197012A19FB
:100BE0003B094C095D0906C0A60195012E193F0974
:100BF000400B510B57FD08C011823382228224839F
:100C00003583468357831DC081E0818333822282EE
:100C100088279927DC01821B930BA40BB50B8483D7
:100C20009583A683B7830DC0220F331F441F551F22
:100C300024833583468357838281938101979383ED
:100C400082832481358146815781DA01C901019768
:100C5000A109B1098F5F9F4FAF4FBF4328F30BC06E
:100C6000918333822282EA0CFB1C0C1D1D1DE48241
:100C7000F5820683178383E0808324813581468152
:100C8000578157FF1AC0C901AA2797FDA095BA2F0F
:100C900081709070A070B0705695479537952795E4
:100CA000822B932BA42BB52B84839583A683B783A8
:100CB00082819381019693838283DF0101C0D201F7
:100CC000CD01CDB7DEB7E2E10C94920AA0E2B0E02C
:100CD000ECE6F6E00C94820A69837A838B839C832A
:100CE0002D833E834F835887E9E0EE2EF12CEC0EE6
:100CF000FD1ECE010196B7010E9491098E010F5E83
:100D00001F4FCE010596B8010E9491098A8991E092
:100D100089278A8BC701B801AE01475E5F4F0E94E9
:100D20001A050E94BC08A096E6E00C949E0AA0E278
:100D3000B0E0EDE9F6E00C94820A69837A838B8354
:100D40009C832D833E834F835887F9E0EF2EF12C4F
:100D5000EC0EFD1ECE010196B7010E9491098E0195
:100D60000F5E1F4FCE010596B8010E949109C70181
:100D7000B801AE01475E5F4F0E941A050E94BC0891
:100D8000A096E6E00C949E0AA8E1B0E0EAECF6E05A
:100D90000C947E0A69837A838B839C832D833E83A4
:100DA0004F835887B9E0EB2EF12CEC0EFD1ECE01DF
:100DB0000196B7010E9491098E010F5E1F4FCE016F
:100DC0000596B8010E9491092985223008F47EC059
:100DD0003989323010F4B8017CC08A859A89892714
:100DE0008A87243011F0223031F4231709F06EC0C5
:100DF00060E072E06EC0343039F41D861E861F86B6
:100E0000188A1C861B8604C0323021F484E089874E
:100E1000B7015FC02B853C858B899C89281B390BCA
:100E20003C872B87ED84FE840F851889AD88BE88AA
:100E3000CF88D88CEA14FB040C051D0540F4EE0C99
:100E4000FF1C001F111F215030403C872B8720E0E2
:100E500030E040E050E080E090E0A0E0B0E460E00E
:100E600070E0EA14FB040C051D0540F0282B392B1B
:100E70004A2B5B2BEA18FB080C091D09B695A795B0
:100E800097958795EE0CFF1C001F111F6F5F7F4F1A
:100E90006F31710531F7DA01C9018F779070A07059
:100EA000B07080349105A105B10561F427FD0AC039
:100EB000E114F1040105110529F0205C3F4F4F4F6B
:100EC0005F4F20782D873E874F87588BBE01675F25
:100ED0007F4FCB010E94BC086896EAE00C949A0A06
:100EE000A8E1B0E0E6E7F7E00C94820A69837A8330
:100EF0008B839C832D833E834F83588789E0E82E24
:100F0000F12CEC0EFD1ECE010196B7010E94910955
:100F10008E010F5E1F4FCE010596B8010E94910908
:100F20008985823040F08989823028F0C701B80174
:100F30000E94090A01C08FEF6896E6E00C949E0AB1
:100F4000ACE0B0E0E6EAF7E00C94860A69837A83C5
:100F50008B839C83CE010196BE016B5F7F4F0E9405
:100F600091098D81823061F1823050F1843021F419
:100F70008E81882351F12EC02F81388537FD20C006
:100F80006E812F3131051CF06623F9F023C08EE10C
:100F900090E0821B930B29853A854B855C8504C0C4
:100FA00056954795379527958A95D2F76623B1F0E0
:100FB00050954095309521953F4F4F4F5F4F0EC054
:100FC00020E030E040E050E009C02FEF3FEF4FEF6E
:100FD0005FE704C020E030E040E050E8B901CA011A
:100FE0002C96E2E00C94A20AA8E0B0E0EAEFF7E069
:100FF0000C947E0A7B018C016115710581059105B8
:1010000019F482E0898360C083E089838EE1C82E71
:10101000D12CDC82CB82ED82FE820F831887C8013F
:10102000B7010E946D08FC013197F7FF3BC02227F2
:1010300033272E1B3F0B57016801022E04C0D694A4
:10104000C794B794A7940A94D2F740E050E060E0C8
:1010500070E081E090E0A0E0B0E004C0880F991F4C
:10106000AA1FBB1F2A95D2F70197A109B1098E21AA
:101070009F21A023B1230097A105B10521F041E0F4
:1010800050E060E070E04A295B296C297D294D839E
:101090005E836F8378878EE190E08E1B9F0B9C832D
:1010A0008B8312C0309781F00E2E04C0EE0CFF1C13
:1010B000001F111F0A94D2F7ED82FE820F8318875A
:1010C000CE1ADF0ADC82CB821A82CE0101960E9400
:1010D000BC082896EAE00C949A0AEF92FF920F93CC
:1010E0001F937B018C0180E0E81680E0F80681E028
:1010F000080780E0180788F48FEFE816F10401056F
:10110000110531F028F088E090E0A0E0B0E017C0D1
:1011100080E090E0A0E0B0E012C080E0E81680E05F
:10112000F80680E0080781E0180728F088E190E0E1
:10113000A0E0B0E004C080E190E0A0E0B0E020E2F8
:1011400030E040E050E0281B390B4A0B5B0B04C039
:1011500016950795F794E7948A95D2F7F701E85F1B
:10116000FD4F8081281B310941095109C9011F9197
:101170000F91FF90EF900895DF92EF92FF920F93FF
:101180001F93FC01E480F58006811781D180808166
:10119000823048F480E090E0A0E1B0E0E82AF92A4B
:1011A0000A2B1B2BA5C0843009F49FC0823021F488
:1011B000EE24FF24870105C0E114F10401051105A7
:1011C00019F4E0E0F0E096C0628173819FEF62382D
:1011D00079070CF05BC022E83FEF261B370B2A3162
:1011E00031052CF020E030E040E050E02AC0B801AA
:1011F000A701022E04C076956795579547950A94E6
:10120000D2F781E090E0A0E0B0E004C0880F991F21
:10121000AA1FBB1F2A95D2F70197A109B1098E21F8
:101220009F21A023B1230097A105B10521F081E002
:1012300090E0A0E0B0E09A01AB01282B392B4A2BBB
:101240005B2BDA01C9018F779070A070B070803489
:101250009105A105B10539F427FF09C0205C3F4F76
:101260004F4F5F4F04C0215C3F4F4F4F5F4FE0E057
:10127000F0E02030A0E03A07A0E04A07A0E45A07D7
:1012800010F0E1E0F0E079018A0127C060387105D3
:1012900064F5FB01E158FF4FD801C7018F779070CB
:1012A000A070B07080349105A105B10539F4E7FE56
:1012B0000DC080E490E0A0E0B0E004C08FE390E0D7
:1012C000A0E0B0E0E80EF91E0A1F1B1F17FF05C0C3
:1012D00016950795F794E794319687E0169507954C
:1012E000F794E7948A95D1F705C0EE24FF2487018F
:1012F000EFEFF0E06E2F679566276795902F9F7749
:10130000D794DD24D7948E2F8695492F462B582FBE
:101310005D29B701CA011F910F91FF90EF90DF90F7
:101320000895FC01DB01408151812281622F6F779A
:1013300070E0221F2227221F9381892F880F822B82
:10134000282F30E0991F9927991F11969C93119788
:1013500021153105A9F5411551056105710511F4F6
:1013600082E037C082E89FEF13969C938E9312978A
:101370009A01AB0167E0220F331F441F551F6A9586
:10138000D1F783E08C930DC0220F331F441F551FEC
:1013900012968D919C911397019713969C938E931F
:1013A0001297203080E0380780E0480780E4580733
:1013B00058F314962D933D934D935C93179708958E
:1013C0002F3F310579F4411551056105710519F477
:1013D00084E08C93089564FF03C081E08C9312C075
:1013E0001C9210C02F57304013963C932E931297A7
:1013F00083E08C9387E0440F551F661F771F8A9503
:10140000D1F7706414964D935D936D937C93179709
:1014100008951F93DC01FB019C91923008F447C0B2
:101420008081823008F443C0943051F411961C91AD
:10143000843099F58181682F70E0611B71093FC08C
:10144000843021F0923031F48230B9F181818823E7
:1014500089F12DC011961C9111978230F1F0818194
:101460001817D9F412962D913C911397828193818C
:101470008217930794F028173907BCF014968D91C2
:101480009D910D90BC91A02D24813581468157817D
:10149000281739074A075B0718F4112341F00AC0DF
:1014A00082179307A407B50740F4112319F061E0F0
:1014B00070E005C06FEF7FEF02C060E070E0CB012D
:1014C0001F910895AA1BBB1B51E107C0AA1FBB1F98
:1014D000A617B70710F0A61BB70B881F991F5A95C0
:1014E000A9F780959095BC01CD0108952F923F9268
:1014F0004F925F926F927F928F929F92AF92BF9224
:10150000CF92DF92EF92FF920F931F93CF93DF93CF
:10151000CDB7DEB7CA1BDB0B0FB6F894DEBF0FBE2C
:10152000CDBF19942A88398848885F846E847D8469
:101530008C849B84AA84B984C884DF80EE80FD807B
:101540000C811B81AA81B981CE0FD11D0FB6F894F1
:0E155000DEBF0FBECDBFED010895F894FFCFB2
:10155E00000000000000000000010202030303036C
:10156E000404040404040404050505050505050525
:10157E000505050505050505060606060606060605
:10158E0006060606060606060606060606060606ED
:10159E0006060606060606060707070707070707D5
:1015AE0007070707070707070707070707070707BD
:1015BE0007070707070707070707070707070707AD
:1015CE00070707070707070707070707070707079D
:1015DE000707070707070707080808080808080885
:1015EE00080808080808080808080808080808086D
:1015FE00080808080808080808080808080808085D
:10160E00080808080808080808080808080808084C
:10161E00080808080808080808080808080808083C
:10162E00080808080808080808080808080808082C
:10163E00080808080808080808080808080808081C
:10164E00080808080808080808080808080808080C
:08165E00080808080808080844
:00000001FF
