:100000000C9472000C9493000C9493000C94930045
:100010000C9493000C944C040C9427040C949300BF
:100020000C9493000C9493000C9493000C94930004
:100030000C9493000C9493000C9493000C949300F4
:100040000C9493000C9493000C9493000C949300E4
:100050000C9493000C9493000C9493000C949300D4
:100060000C9493000C94E7080C9493000C94930068
:100070000C9493000C9493000C9493000C949300B4
:100080000C9493000C9493000C9493000C949300A4
:100090000C9493000C9493000C9493000C94930094
:1000A0000C9493000C9493000C9493000C94930084
:1000B0000C9493000C9493000C9493000C94930074
:1000C0000C9493000C9493000C9493000C942109CD
:1000D0000C9493000C9493000C9493000C94930054
:1000E0000C94930011241FBECFEFD1E2DEBFCDBF31
:1000F00000E00CBF14E0A0E0B2E0E0E2FEE200E0CD
:100100000BBF02C007900D92AE31B107D9F71AE2CA
:10011000AEE1B4E001C01D92AE38B107E1F70E9434
:10012000CC0F0C940E170C940000FC0120E030E082
:1001300080819181892B11F421E030E0C90108957B
:10014000CF93DF9320E030E062E670E040EC57E2CE
:1001500010C041935193019681339105D1F72F5FE0
:100160003F4F2133310529F441E050E062E670E071
:1001700029C0269FF001279FF00D369FF00D112416
:10018000E85CFB4F80E090E0E4CFCA01821B930B58
:1001900097FF03C0909581959F4F8130910511F491
:1001A000918380832F5F3F4F32962931310569F764
:1001B0004F5F5F4F4931510529F449E150E062E654
:1001C00070E024C0469FF001479FF00D569FF00D50
:1001D0001124E65CFB4F21E030E0D7CFCA01821B3F
:1001E000930B97FF03C0909581959F4F81309105A8
:1001F00011F4918380832F5F3F4F32962732310570
:1002000069F74F5F5F4F4732510561F0469FF0013C
:10021000479FF00D569FF00D1124E659FB4F29E141
:1002200030E0DCCF81E090E09093931480939214BF
:100230009093F3118093F21190933F1480933E14A6
:1002400090939F1480939E149093CB108093CA1028
:1002500090932B1480932A149093D9168093D816D8
:100260009093D9108093D810909375108093741048
:1002700090937516809374169093C7138093C6134A
:100280009093671080936610909377138093761302
:100290009093D7138093D61390933F0F80933E0F84
:1002A00090935F1380935E1390930D1680930C16BA
:1002B00090934D0F80934C0F9093E90E8093E80E2E
:1002C0009093A9158093A8159093FB128093FA122E
:1002D0009093DB0E8093DA0E9093130E8093120EA0
:1002E000909333128093321290935915809358153E
:1002F00090935912809358129093F5118093F411B2
:100300009093F5148093F4149093CB048093CA04D3
:1003100090936B0D80936A0D90933F1580933E15DB
:1003200090935F0D80935E0D9093DD148093DC14A9
:1003300090935D0D80935C0D909363118093621197
:100340009093C30B8093C20B909301118093001183
:100350009093C10B8093C00B9093B7168093B61601
:100360009093570A8093560A90935516809354168B
:100370009093550A8093540A9093CB0F8093CA0FA1
:100380009093AB088093AA089093690F8093680FAD
:100390009093A9088093A8089093E3158093E215A1
:1003A0009093430780934207909381158093801523
:1003B00090934107809340079093330E8093320EC1
:1003C00090939305809392059093D10D8093D00DD7
:1003D00090939105809390059093471280934612D5
:1003E0009093E7118093E6119093E7088093E608D5
:1003F0009093870880938608E2E0F7E12FEF3FEFC4
:1004000091838083338322830196349689319105C9
:10041000B9F781E090E0909363178093621785E0CD
:1004200090E090936B1780936A1789E090E0909327
:100430006F1780936E178DE090E0909377178093FD
:10044000761781E190E090937B1780937A1785E18E
:1004500090E0909383178093821785E290E09093C9
:1004600067178093661786E290E0909369178093F0
:10047000681787E290E0909373178093721788E271
:1004800090E0909375178093741789E290E09093B1
:100490007F1780937E178AE290E090938117809374
:1004A0008017C2EFD8E1E6E5F9E122EE3FEFC05652
:1004B000D04039832883C05ADF4F3D832C8337FFD8
:1004C00004C0C9018C549F4F06C0121613063CF499
:1004D000C901845B904099838883918380832E51E6
:1004E00030408FEF2C34380714F426E930E0C8533D
:1004F000DF4FE853FF4F81E2CA38D807C1F61092A8
:100500002F1810922E1884EB90E090938F18809300
:100510008E1890935B1880935A181092FB201092BB
:10052000FA206AE67FEF70932119609320194EE15B
:1005300050E05093612140936021A6EABFEFB09351
:100540002319A0932219EAE5F0E0F9AFE8AF26E914
:1005500030E03093D11A2093D01A82EE9FEF90931F
:100560001129809310297093D31A6093D21A509353
:10057000732940937229F093391CE093381CB0938F
:10058000F922A093F82230933B1C20933A1C9093BD
:100590005B2380935A235093E51D4093E41D709391
:1005A000E5296093E429F093E71DE093E61DB093FD
:1005B000472AA093462A9093511F8093501F30934F
:1005C0009124209390245093531F4093521F709373
:1005D000F3246093F224B093ED20A093EC20F093E9
:1005E0006D28E0936C289093EF208093EE20309359
:1005F000CF282093CE289D838C833093EF212093A6
:10060000EE2170931F2360931E2350937F2340930A
:100610007E23F0938525E0938425B0938528A093CD
:1006200084283093E9252093E8259093E928809346
:10063000E828909379228093782230933929209367
:1006400038295093DD224093DC2270939D296093DA
:100650009C2970930524609304245093052A4093A9
:10066000042AB0936924A0936824F093692AE09344
:10067000682A70936B2260936A2250938B26409372
:100680008A263093CF222093CE229093EF26809318
:10069000EE26F093F723E093F623B0935727A09329
:1006A000562750935B2440935A247093BB27609342
:1006B000BA27909383258093822530932328209313
:1006C0002228B093DB25A093DA25F0933B26E09314
:1006D0003A26709307276093062750936727409325
:1006E000662730933F2620933E2690939F26809343
:1006F0009E26F093CF27E093CE27B0932F28A09388
:100700002E2880E090E0DF91CF910895680F791F47
:10071000CB010895EF92FF920F931F93CF93DF9336
:100720008B017A01BC01E801AFEFBFEF40E050E080
:100730001BC0FB0180819181892B89F0FFEFAF3FC6
:10074000BF0761F0FD01EE0FFF1FE00FF11F2081D9
:10075000318188819981281739070CF0DA014F5FC0
:100760005F4F6E5F7F4F22964E155F0514F3CD01EC
:10077000DF91CF911F910F91FF90EF9008956150FD
:100780007040DC01FB01EE0FFF1FEA0FFB1F40E092
:1007900050E00EC02D913C911197808191818D93F5
:1007A0009D93318320834F5F5F4F6150704032973C
:1007B000461757077CF3089510BA11BA1092070133
:1007C00010920801089581B18F6081B982B1807F54
:1007D00082B9EAE0F1E0808188618083EBE0F1E0BA
:1007E00080818861808308956C98749A08956D98CB
:1007F000759A089510BA11BA109207011092080163
:1008000081B18F6081B982B1807F82B9EAE0F1E085
:10081000808188618083EBE0F1E080818861808362
:100820006C98749A6D98759A0895F894EAE6F0E0D9
:10083000808182608083EC9A78940895F894EAE647
:10084000F0E0808188608083ED9A789408951F920B
:100850000F920FB60F9211248F939F93AF93BF9374
:100860008091220490912304A0912404B091250446
:100870000196A11DB11D8093220490932304A0939F
:100880002404B0932504BF91AF919F918F910F9055
:100890000FBE0F901F9018951F920F920FB60F92D8
:1008A00011248F939F93AF93BF9380911E049091D7
:1008B0001F04A0912004B09121040196A11DB11D37
:1008C00080931E0490931F04A0932004B0932104EE
:1008D000BF91AF919F918F910F900FBE0F901F907E
:1008E0001895E1E2F1E010829FEF9093250181E0FD
:1008F00080932401109229019093280110922B01DA
:1009000090932A0110922D0190932C0189EA8093F3
:1009100020018BE080830895EAE7F0E010821092D6
:100920007B0080E280937C0080E880BF86E8808343
:100930000895982F883018F088E080937B00977096
:10094000906290937C0080917A00806480937A001A
:1009500080917A0084FFFCCF8091790090917A0099
:10096000906190937A0010927B0008958093280103
:1009700060932A01089592B1907F8F70892B82B97C
:10098000089582B1807F866082B9089582B1807FA8
:10099000896082B9089582B1807F856082B90895A7
:1009A00082B1807F8A6082B9089582B1807F84603D
:1009B00082B9089582B1807F826082B9089582B140
:1009C000807F816082B9089582B1807F886082B91A
:1009D000089582B1807F82B90895EF92FF920F93BC
:1009E0001F93A0E0B0E0BC01CD010E94501328E4A9
:1009F00031EE42E850E40E9420120E944A107B012E
:100A000000E010E0109222041092230410922404BB
:100A10001092250410921E0410921F0410922004BC
:100A2000109221048091220490912304A091240427
:100A3000B091250420911E0430911F0440912004A0
:100A4000509121048E159F05A007B10728F42E159B
:100A50003F054007510730F382B1807F82B91F9173
:100A60000F91FF90EF90089522B1207F256022B969
:100A70000E94ED04089522B1207F2A6022B90E94CD
:100A8000ED04089522B1207F246022B9880F991FB8
:100A90000E94ED04089522B1207F226022B9880FC0
:100AA000991F0E94ED04089522B1207F216022B990
:100AB000880F991F0E94ED04089522B1207F2860BD
:100AC00022B9880F991F0E94ED040895F8940E949E
:100AD000FA03EAE7F0E0108210927B0080E2809354
:100AE0007C0080E880BF86E88083E1E2F1E010824C
:100AF0009FEF9093250181E08093240110922901BA
:100B00009093280110922B0190932A0110922D01AD
:100B100090932C0189EA809320018BE08083F894E4
:100B2000EAE6F0E0808182608083EC9A7894F89421
:100B3000EAE6F0E0808188608083ED9A789478948A
:100B4000089583E00E9499048093B7171092B81714
:100B500082E00E9499048093FC161092FD1681E0B9
:100B60000E949904282F30E03093C3172093C217B6
:100B70004091B7175091B81749325105F4F0809160
:100B8000FC169091FD168897C4F482B1807F866030
:100B900082B988EC90E090932D0480932C048FEF21
:100BA00090E090932F0480932E0488EC809328018A
:100BB0008FEF80932A0181E020C02932310504F1B2
:100BC0008091FC169091FD168897D4F482B1807FB5
:100BD000866082B98FEF90E090932D0480932C046F
:100BE00088EC90E090932F0480932E048FEF8093F5
:100BF000280188EC80932A0182E0809326040895DE
:100C00008091FC169091FD1689329105C4F048320E
:100C10005105ACF428323105DCF582B1807F866065
:100C200082B98FEF90E090932D0480932C049093E1
:100C30002F0480932E048FEF8093280120C0283248
:100C4000310534F5889724F5483251050CF582B109
:100C5000807F866082B98AEA90E090932D04809329
:100C60002C048FEF90E090932F0480932E048091BA
:100C70002604813039F48AEA809328018FEF80932B
:100C80002A0108958FEF809328018AEA80932A0130
:100C90000895EF92FF920F931F93A0E0B0E0BC0184
:100CA000CD010E94501325EE30ED4AEA50E40E9437
:100CB00020120E944A107B018C0110922204109293
:100CC000230410922404109225040E94A10580910F
:100CD000220490912304A0912404B0912504E816E5
:100CE000F9060A071B0788F782B1807F82B91F9136
:100CF0000F91FF90EF90089522B1207F296022B9D3
:100D00000E94490608950E944906089586E69EE0DD
:100D1000FC013197F1F74098419840E348B9429A75
:100D200020E038E4F9013197F1F74298FC0131975E
:100D3000F1F74098419848B9429AF9013197F1F793
:100D40004298FC013197F1F74098419848B9429A8E
:100D5000F9013197F1F742980197F1F740984198DE
:100D600080E288B9429AC9010197F1F74298089543
:100D700098B19F7098B928B1982F907F922B98B90D
:100D800040984198429A20E038E4F9013197F1F710
:100D9000429898B19F7098B998B18295807F982BAE
:100DA00098B940984198429AC9010197F1F7429841
:100DB00008950E94860686E69EE00197F1F788E294
:100DC0000E94B80681E00E94B80686E00E94B8063C
:100DD0008EE00E94B80680E80E94B806089598B197
:100DE0009F7098B928B1982F907F922B98B9409A0C
:100DF0004198429A20E038E4F9013197F1F742989E
:100E000098B19F7098B998B18295807F982B98B9C6
:100E1000409A4198429AC9010197F1F74298089582
:100E200080E80E94B8060895CF93DF93EC0103C0D9
:100E30000E94EF06219688818823D1F7DF91CF9118
:100E40000895823069F0833018F48130A9F405C028
:100E5000833049F0843081F40BC0862F815805C05F
:100E6000862F815402C0862F8D560E94B8060895A1
:100E7000862F8D520E94B80608950F931F93CF932B
:100E8000DF938A01E901882311F0662319F40E9497
:100E9000100702C00E942107C530D10571F4C801B6
:100EA00060E177E20E94C316CB01C0969093891748
:100EB000809388170E94EF0605C0C430D10511F059
:100EC00080E016C0C80168EE73E00E94C316CB0133
:100ED0006093B2179093B3176AE070E00E94C31654
:100EE000C0969093C7178093C6170E94EF0681E0C3
:100EF000C330D10521F0813011F080E016C0C80167
:100F000064E670E00E94C316CB016093B217909321
:100F1000B3176AE070E00E94C316C0969093C117A1
:100F20008093C0170E94EF0681E0C230D10521F006
:100F3000813011F080E016C0C8016AE070E00E94C4
:100F4000C316CB016093B2179093B3176AE070E0B9
:100F50000E94C316C0969093B6178093B5170E944F
:100F6000EF0681E0C130D10511F0813061F4C80194
:100F70006AE070E00E94C316C0969093C5178093F4
:100F8000C4170E94EF0626971CF085E40E94EF0626
:100F9000DF91CF911F910F9108950F931F93182FF9
:100FA000062F842F0E949904482F8093B417812F15
:100FB00090E0602F70E050E023E030E00E943D07B9
:100FC0001F910F9108953B9A4398089587B1876FB9
:100FD00087B988B1807888B908953B9A439887B1DA
:100FE000876F87B988B1807888B90895E1ECF0E01F
:100FF00010821092C00086E08093C2008FE580933B
:10100000C4001092C50088E980830895E1EDF0E006
:1010100010821092D00086E08093D2008FE58093FA
:10102000D4001092D50088E98083089586B1886045
:1010300088B9089586B1877F88B90895CF92DF92E5
:10104000EF92FF920F931F93CF93DF93E090BE1721
:10105000F090BF170091BC171091BD17A091FA1620
:10106000B091FB16C0E0D0E040E050E060E7C62E53
:1010700061E0D62E3CC06C9111967C9111979B013A
:10108000C90108970B9728F02C51304025303105C5
:10109000A0F4F701E40FF51F6083718388EE93E0FD
:1010A000F6013197F1F70197D9F76093C600F8017F
:1010B000E40FF51F1182108216C0F701E40FF51F2F
:1010C0001182108288EE93E0F6013197F1F70197D3
:1010D000D9F71092C600F801E40FF51F8D919C918D
:1010E00011979183808321964E5F5F4F1296809176
:1010F000320490913304C817D9070CF4BCCFDF91A8
:10110000CF911F910F91FF90EF90DF90CF900895B6
:101110006091320470913304A091BC17B091BD1757
:1011200020E030E080E090E011C04D915C9111979B
:101130004115510541F0FC01EE0FFF1FE657F84E37
:101140005183408301962F5F3F4F12962617370732
:1011500064F390933504809334040895CF92DF9222
:10116000EF92FF920F931F93CF93DF932AE8C22E43
:1011700027E1D22E91E0E92EF12CC1E0D0E000E091
:1011800010E015C0C131D10529F482E0E82EF12C20
:10119000C1E0D0E0F601419151916F018E2D6C2F8D
:1011A00022E030E00E943D0722960F5F1F4F8091A2
:1011B0003404909135040817190724F3DF91CF9177
:1011C0001F910F91FF90EF90DF90CF9008951F92A5
:1011D0000F920FB60F9211248F938091C6008093C7
:1011E000BB1780933604109237048F910F900FBE77
:1011F0000F901F901895F8943B9A439887B1876F8A
:1012000087B988B1807888B9E1ECF0E0108210925B
:10121000C00026E02093C2009FE59093C400109286
:10122000C50088E98083E1EDF0E010821092D000E3
:101230002093D2009093D4001092D50080837894AC
:1012400008951F920F920FB60F920BB60F921124B2
:101250002F933F934F935F936F937F938F939F93BE
:10126000AF93BF93EF93FF932091D6002093BB17CA
:101270002093D600E0910D03F0910E038FEFEF3F26
:10128000F80761F5822F90E0C09790933304809324
:10129000320410920E0310920D03880F991F0E94C2
:1012A000BE158093FA169093FB16809132049091AC
:1012B0003304880F991F0E94BE158093BC1790932A
:1012C000BD178091320490913304880F991F0E94BA
:1012D000BE158093BE179093BF1727C0809132042C
:1012E00090913304E817F90704F58091FA1690916C
:1012F000FB16EE0FFF1FE80FF91F20831182E0910C
:101300000D03F0910E03EE0FFF1FE80FF91F808110
:101310009181C0979183808380910D0390910E03FA
:10132000019690930E0380930D03FF91EF91BF916F
:10133000AF919F918F917F916F915F914F913F916D
:101340002F910F900BBE0F900FBE0F901F9018950E
:101350006F927F928F929F92AF92BF92CF92DF92C5
:10136000EF92FF920F931F93CF93DF934C015B019A
:101370000E9466050E9486060E94D90686E090E0DB
:101380000E94BE15EC01FC01119211926F011B82AB
:101390001A8214E0612E712C680E791E1D821C8247
:1013A0000FEF1FEFB0E7EB2EB1E0FB2E80C186E020
:1013B0000E949904809331048A3508F049C081E085
:1013C00090E061E070E00E94210780E092E00E94DE
:1013D000140782E090E061E070E00E94210781E163
:1013E00092E00E94140782B1807F8A6082B988EE01
:1013F00093E020E731E0F9013197F1F70197D9F750
:1014000082B1807F8A6082B982E00E9499048093D1
:1014100028048035A8F382B1807F82B988EE93E0FA
:1014200020E731E0F9013197F1F70197D9F782B15F
:10143000807F866082B981E090E099838883F6019D
:10144000118300830F5F1F4FF3011183008333C1AA
:101450000E94A1058091FC169091FD1689970CF4CD
:10146000A6CF8091B7179091B81789973CF48091D7
:10147000C2179091C31789970CF419C182E090E0CC
:1014800061E070E00E94210782E292E00E9414076E
:101490000F5F1F4FF801EE0FFF1FE80DF91D0190C0
:1014A000F081E02DEC33F10521F08EEFE43DF807FB
:1014B00051F58CE390E00E94490688EE93E0F70135
:1014C0003197F1F70197D9F78EE190E00E9434054A
:1014D00082B1807F856082B982E00E94990490E0A9
:1014E0009093FD168093FC168E3691058CF382B195
:1014F000807F82B981E090E061E070E00E94210786
:1015000083E392E030C0E837F10521F08FEFE0315E
:10151000F80761F58FE090E00E94490688EE93E0BD
:10152000F7013197F1F70197D9F78EE190E00E942A
:10153000540582B1807F846082B982E00E94990460
:1015400090E09093FD168093FC168E3691058CF3F7
:1015500082B1807F82B981E090E061E070E00E941A
:10156000210784E492E00E9414078DC08FEFE43CD1
:10157000F80721F081E0EC32F80751F58CE390E0B8
:101580000E94490688EE93E0F7013197F1F7019741
:10159000D9F78EE190E00E943B0582B1807F8A609E
:1015A00082B982E00E94990490E09093FD168093A6
:1015B000FC168E3691058CF382B1807F82B981E072
:1015C00090E061E070E00E94210785E592E0CBCFDA
:1015D0008FEFE838F80719F0E03FF10551F58FE09B
:1015E00090E00E94490688EE93E0F7013197F1F709
:1015F0000197D9F78EE190E00E945D0582B1807F6E
:10160000826082B982E00E94990490E09093FD1676
:101610008093FC168E3691058CF382B1807F82B95F
:1016200081E090E061E070E00E94210786E692E0B0
:101630009ACFE43BF10519F0EC54FF4F21F582B14C
:10164000807F856082B988E893E1F7013197F1F7EF
:101650000197D9F782B1807F856082B982E00E94CC
:101660009904809328048E36A8F382B1807F82B9D2
:1016700088EE93E0F7013197F1F70197D9F782B13E
:10168000807F866082B981E090E061E070E00E9436
:10169000210787E792E00E94140782E090E061E072
:1016A00070E00E94210788E892E00E9414070A1562
:1016B0001B050CF47CCECE01DF91CF911F910F91D1
:1016C000FF90EF90DF90CF90BF90AF909F908F9062
:1016D0007F906F900895CF92DF92EF92FF920F93D9
:1016E0001F93CF93DF936C01162F072F7A0182E6A9
:1016F00090E00E94BE15EC0121E030E0D7012D936F
:101700003C9318830983AC01212F302FC901E1E0FC
:10171000F0E00EC0D7018D919C91119701968D93A9
:101720009C93DB018D919C91DA018D939C93319672
:10173000BC01660F771F6C0D7D1D4E5F5F4FDB0197
:101740008D919C91BFEF8F3F9B0721F7EE0FFF1FFD
:10175000EC0FFD1F91838083F70160817181CE01C1
:101760000E94BF03CE01DF91CF911F910F91FF9097
:10177000EF90DF90CF90089584E090E00E94BE1536
:10178000FC011182108213821282089584E090E09D
:101790000E94BE15FC011382128208950F931F93BD
:1017A000CF93DF93EC018B010E94C60BDC011196F5
:1017B0001C930E9388819981892B39F48A819B81AE
:1017C000892B19F4B983A88304C0EA81FB81B38310
:1017D000A283BB83AA83DF91CF911F910F910895BC
:1017E0008F929F92AF92BF92CF92DF92EF92FF9231
:1017F0000F931F93CF93DF938C015B017B010894C0
:10180000E108F108C701880F991F0E94BE15D82E64
:10181000C92EE8019C01B90141E050E0F1E38F2EAF
:10182000912C2CC02A813B81289DD001299DB00D8F
:10183000389DB00D11248C819D81A80FB91FAA0F6E
:10184000BB1FA853B84E89919991889DF001899D3D
:10185000F00D989DF00D1124E20FF31FEE0FFF1F06
:10186000E853F84E8D919C9120813181821B930B1E
:10187000FB0181939193BF014F5F5F4F4E155F0551
:101880008CF28D2D9C2DB5010E94A809EC01888158
:101890009981892BA1F0EA81FB81EE0FFF1FE00FF8
:1018A000F11F808191819B838A83EC81FD81EE0F02
:1018B000FF1FE00FF11F808191819D838C838D2D0F
:1018C0009C2D0E946B16CE01DF91CF911F910F913D
:1018D000FF90EF90DF90CF90BF90AF909F908F9050
:1018E0000895CF93DF93DC01ED91FC911197309730
:1018F00049F412968D919C911397892B19F4CFEF8F
:10190000DFEF10C0C081D1818281938111969C93B9
:101910008E93892B21F413961C921E921297CF015D
:101920000E946B16CE01DF91CF9108952F923F92C6
:101930004F925F926F927F928F929F92AF92BF92DF
:10194000CF92DF92EF92FF920F931F93DF93CF938B
:10195000CDB7DEB7C256D0400FB6F894DEBF0FBE8B
:10196000CDBF8C010E94BC0B2C0182E690E00E944E
:10197000BE151C015C01DC01FE013396CE018D59C0
:101980009F4F13961C921E921297119211921296CB
:10199000E817F907B1F7C201B8010E94CE0B43C0A6
:1019A000C2010E94710C3C01660C771C6A0C7B1C06
:1019B00022E630E0829F6001839FD00C929FD00C82
:1019C00011248AE394E0C80ED91EB3E08B2E912C2B
:1019D0008C0E9D1E710101E010E0F4018081918167
:1019E000892BA1F4F30180819181F601208131815D
:1019F000820F931FF70193838283C201B8010E9473
:101A0000CE0B21E030E0F401318320830F5F1F4FC4
:101A100082E090E0880E991EC80ED91EE80EF91ECD
:101A200001331105D1F6F20180819181892B09F0F2
:101A3000B7CFC501CE59DF4F0FB6F894DEBF0FBE4A
:101A4000CDBFCF91DF911F910F91FF90EF90DF906D
:101A5000CF90BF90AF909F908F907F906F905F904E
:101A60004F903F902F9008950E94960C0895CF9329
:101A7000DF93EC0103C0CE010E94710C8881998133
:101A8000892BC9F7DF91CF9108952F923F924F9202
:101A90005F926F927F928F929F92AF92BF92CF92FE
:101AA000DF92EF92FF920F931F93DF93CF93CDB707
:101AB000DEB7C85FD1400FB6F894DEBF0FBECDBF12
:101AC000C351DE4F79836883CD5ED1401C01220C67
:101AD000331C9E01295D3E4FCB50DE4F3983288356
:101AE000C55FD140A901420D531DC151DE4F59833D
:101AF0004883CF5ED14089E891E08C0F9D1F820D15
:101B0000931DCF50DE4F99838883C15FD140E3E6B8
:101B1000F0E0EC0FFD1FE20DF31DCD50DE4FF98319
:101B2000E883C35FD140C351DE4F88819981CD5E88
:101B3000D1400E94960CC551DE4F99838883CB5EBD
:101B4000D140C151DE4FE881F981CF5ED140118291
:101B50001082FC01E20DF31D80819181CF50DE4F98
:101B6000E881F981C15FD1409183808380E090E07A
:101B7000E5ECF0E0EC0FFD1FE80FF91F1182108279
:101B8000E3E6F0E0EC0FFD1FE80FF91F1182108271
:101B9000E1E0F0E0EC0FFD1FE80FF91F2FEF3FEF42
:101BA00031832083E9E8F1E0EC0FFD1FE80FF91F16
:101BB00040EC57E251834083E7E2F1E0EC0FFD1F78
:101BC000E80FF91F5183408302968236910581F612
:101BD00021E030E0CD50DE4FE881F981C35FD14094
:101BE0003183208391E0692E712CE5C0F80180815A
:101BF0009181892BB1F0FFEF6F3F7F0789F0FB01E7
:101C0000EE0FFF1F29E831E02C0F3D1FE20FF31FFD
:101C1000208131818D919C911197281739070CF003
:101C2000BA014F5F5F4F0E5F1F4F12964133510550
:101C3000E9F6CB01880F991FE3E6F0E0EC0FFD1FFA
:101C4000E80FF91F11821082E5ECF0E0EC0FFD1FA8
:101C5000E80FF91F41E050E051834083C351DE4F4C
:101C6000E881F981CD5ED1406E177F0709F4AEC0DF
:101C7000089461087108A5EC8A2E912C8C0E9D1E8B
:101C8000F3E6AF2EB12CAC0EBD1E22E630E0629F13
:101C9000D001639FB00D729FB00D1124A85CBB4FA3
:101CA000AE01495D5E4FC950DE4F59834883C75F1F
:101CB000D140C551DE4FC880D980CB5ED140E9E824
:101CC000EE2EE1E0FE2EEC0EFD1E8E010F5F1F4F8B
:101CD0002A01480E591EF40180819181892B09F057
:101CE00042C0F501808191814D915C911197892BC2
:101CF000E9F421E030E0318320830894611C711CF9
:101D0000F20180819181840F951FC950DE4FE881D7
:101D1000F981C75FD14091838083F60120813181B1
:101D2000820F931FF701918380831AC0F2012081F3
:101D30003181240F351FC950DE4FE881F981C75F1B
:101D4000D14080819181281739076CF43183208339
:101D5000F60180819181280F391FF701318320839B
:101D6000F8017183608322E030E0820E931EA20EA0
:101D7000B31E1296C950DE4F48815981C75FD140CA
:101D80004E5F5F4FC950DE4F59834883C75FD140D4
:101D9000C20ED31EE20EF31E0E5F1F4FCB50DE4F5E
:101DA00088819981C55FD1408816990609F093CF43
:101DB0006114710459F08E010D591F4FDE01A757B0
:101DC000BE4F40E050E06FEF7FEF10CF82E090E039
:101DD0000E94BE158C01FC0111821082CE01019679
:101DE000C351DE4F68817981CD5ED140A8010E9448
:101DF0006B0BF801608171810E94F00B7C01FC018A
:101E000080819181892BF9F4C7010E946B1680E0D3
:101E100090E0C850DE4F0FB6F894DEBF0FBECDBFC6
:101E2000CF91DF911F910F91FF90EF90DF90CF90B6
:101E3000BF90AF909F908F907F906F905F904F90EA
:101E40003F902F900895F7012481358182819381FD
:101E500041E350E0249FF001259FF00D349FF00DE9
:101E60001124E80FF91FEE0FFF1FE85CFB4F40EC59
:101E700057E25183408341E350E0849FF001859F06
:101E8000F00D949FF00D1124E20FF31FEE0FFF1FD2
:101E9000E85CFB4F80EC97E291838083C551DE4F75
:101EA00088819981CB5ED1400E946B16C8010E9447
:101EB0006B16C7010E946B1636CECF93DF930E943C
:101EC000450DC0E7D1E017C081E061E00E94210725
:101ED00089E992E00E94140782E061E00E942107F4
:101EE0008AEA92E00E94140788EE93E0FE0131979F
:101EF000F1F70197D9F78091360490913704880F54
:101F0000991FE091BC17F091BD17E80FF91F808170
:101F10009181892BC9F286B1886088B981E061E03E
:101F20000E9421078BEB92E00E94140780913604F7
:101F300090913704880F991FE091BC17F091BD175D
:101F4000E80FF91F4081518181E06EE022E030E02E
:101F50000E943D0782E061E00E94210789EC92E047
:101F60000E94140788E893E120E731E0F9013197F6
:101F7000F1F70197D9F786B1877F88B98091360448
:101F800090913704019690933704809336048093A0
:101F9000C600DF91CF9108950F931F93CF93DF93E6
:101FA0000E94FB080E9486060E94D90620910D031C
:101FB00030910E0380913204909133042817390731
:101FC00009F057C02F5F3F4F30930E0320930D034E
:101FD000215030402093C6000E941E0860913204B8
:101FE00070913304A091BC17B091BD1780E090E0D0
:101FF00020E030E011C04D915C91119741155105E1
:1020000041F0FC01EE0FFF1FE657F84E518340836D
:1020100001962F5F3F4F12962617370764F3909370
:10202000350480933404CAE8D7E100E010E009C029
:102030000F5F1F4F6A817B81888199810E945D0FAC
:10204000229680913404909135040817190784F37F
:1020500081E061E00E9421078AED92E00E9414076E
:1020600082E061E00E9421078BEE92E00E9414075B
:10207000EFCF81E061E00E9421078AED92E00E94AB
:10208000140782E061E00E9421078CEF92E00E9439
:1020900014078CCFEF92FF920F931F937B018C015B
:1020A00020E030E040E05FE40E94CC1288238CF016
:1020B000C801B70120E030E040E05FE40E94C211B7
:1020C0000E94FC129B01AC0120503040404050481F
:1020D00006C0C801B7010E94FC129B01AC01B90106
:1020E000CA011F910F91FF90EF900895A0E0B0E01A
:1020F000ECE7F0E10C94D716DC012B01FA019C917E
:10210000923008F439C1EB018881823008F433C180
:10211000943069F4843009F02FC111969C91119785
:102120008981981709F428C1AFE0B3E025C1843054
:1021300009F421C18230A9F4923009F01DC19A013D
:10214000AD0188E0EA010990AE01E90109929E0122
:102150008150C1F7E201898111969C918923818385
:1021600008C1923009F407C112962D903C90139744
:10217000EB018A819B811496AD90BD90CD90DC904F
:102180001797EC80FD800E811F819101281B390B70
:10219000B90137FF04C066277727621B730B6032D3
:1021A00071050CF061C0121613066CF53701480179
:1021B000062E04C096948794779467940A94D2F775
:1021C00021E030E040E050E004C0220F331F441F04
:1021D000551F6A95D2F721503040404050402E2183
:1021E0003F2140235123211531054105510521F09F
:1021F00021E030E040E050E079018A01E628F7284C
:10220000082919293CC0232BD1F1260E371E350190
:102210004601062E04C096948794779467940A9496
:10222000D2F721E030E040E050E004C0220F331F3D
:10223000441F551F6A95D2F721503040404050400E
:102240002A213B214C215D212115310541055105F4
:1022500021F021E030E040E050E059016A01A62879
:10226000B728C828D9280BC0821593052CF01C016B
:10227000AA24BB24650103C0EE24FF248701119624
:102280009C91D20111968C91981709F445C099231D
:1022900039F0A80197012A193B094C095D0906C0CC
:1022A000A60195012E193F09400B510B57FD08C09F
:1022B00011823382228224833583468357831DC053
:1022C00081E081833382228288279927DC01821B67
:1022D000930BA40BB50B84839583A683B7830DC0A2
:1022E000220F331F441F551F248335834683578392
:1022F00082819381019793838283248135814681F2
:102300005781DA01C9010197A109B1098F5F9F4F78
:10231000AF4FBF4328F30BC0918333822282EA0C74
:10232000FB1C0C1D1D1DE482F5820683178383E0D0
:102330008083248135814681578157FF1AC0C901A6
:10234000AA2797FDA095BA2F81709070A070B070E9
:102350005695479537952795822B932BA42BB52B14
:1023600084839583A683B783828193810196938327
:102370008283DF0101C0D201CD01CDB7DEB7E2E13A
:102380000C94F316A0E2B0E0E8ECF1E10C94E31653
:1023900069837A838B839C832D833E834F83588705
:1023A000E9E0EE2EF12CEC0EFD1ECE010196B701F8
:1023B0000E94ED148E010F5E1F4FCE010596B801ED
:1023C0000E94ED148A8991E089278A8BC701B801A0
:1023D000AE01475E5F4F0E9476100E941814A096CF
:1023E000E6E00C94FF16A0E2B0E0E9EFF1E10C9416
:1023F000E31669837A838B839C832D833E834F838B
:102400005887F9E0EF2EF12CEC0EFD1ECE0101965F
:10241000B7010E94ED148E010F5E1F4FCE0105968D
:10242000B8010E94ED14C701B801AE01475E5F4FCD
:102430000E9476100E941814A096E6E00C94FF16F5
:10244000A8E1B0E0E6E2F2E10C94DF1669837A835A
:102450008B839C832D833E834F835887B9E0EB2E7B
:10246000F12CEC0EFD1ECE010196B7010E94ED1479
:102470008E010F5E1F4FCE010596B8010E94ED142C
:102480002985223008F47EC03989323010F4B80131
:102490007CC08A859A8989278A87243011F0223066
:1024A00031F4231709F06EC06FE073E06EC0343072
:1024B00039F41D861E861F86188A1C861B8604C05A
:1024C000323021F484E08987B7015FC02B853C85D9
:1024D0008B899C89281B390B3C872B87ED84FE84D4
:1024E0000F851889AD88BE88CF88D88CEA14FB0484
:1024F0000C051D0540F4EE0CFF1C001F111F2150A0
:1025000030403C872B8720E030E040E050E080E026
:1025100090E0A0E0B0E460E070E0EA14FB040C0599
:102520001D0540F0282B392B4A2B5B2BEA18FB08A2
:102530000C091D09B695A79597958795EE0CFF1C7C
:10254000001F111F6F5F7F4F6F31710531F7DA0187
:10255000C9018F779070A070B07080349105A1058B
:10256000B10561F427FD0AC0E114F104010511056C
:1025700029F0205C3F4F4F4F5F4F20782D873E87DB
:102580004F87588BBE01675F7F4FCB010E941814A5
:102590006896EAE00C94FB16A8E1B0E0E2EDF2E107
:1025A0000C94E31669837A838B839C832D833E830B
:1025B0004F83588789E0E82EF12CEC0EFD1ECE01EA
:1025C0000196B7010E94ED148E010F5E1F4FCE01E0
:1025D0000596B8010E94ED148985823040F0898902
:1025E000823028F0C701B8010E94651501C08FEF45
:1025F0006896E6E00C94FF16ACE0B0E0E2E0F3E1B0
:102600000C94E71669837A838B839C83CE010196B1
:10261000BE016B5F7F4F0E94ED148D81823061F1AE
:10262000823050F1843021F48E81882351F12EC004
:102630002F81388537FD20C06E812F3131051CF088
:102640006623F9F023C08EE190E0821B930B29856D
:102650003A854B855C8504C05695479537952795F7
:102660008A95D2F76623B1F0509540953095219523
:102670003F4F4F4F5F4F0EC020E030E040E050E052
:1026800009C02FEF3FEF4FEF5FE704C020E030E0DD
:1026900040E050E8B901CA012C96E2E00C9403171F
:1026A000A8E0B0E0E6E5F3E10C94DF167B018C01D5
:1026B000611571058105910519F482E0898360C077
:1026C00083E089838EE1C82ED12CDC82CB82ED821F
:1026D000FE820F831887C801B7010E94C913FC014D
:1026E0003197F7FF3BC0222733272E1B3F0B5701A3
:1026F0006801022E04C0D694C794B794A7940A9494
:10270000D2F740E050E060E070E081E090E0A0E0CF
:10271000B0E004C0880F991FAA1FBB1F2A95D2F7EB
:102720000197A109B1098E219F21A023B123009710
:10273000A105B10521F041E050E060E070E04A29D8
:102740005B296C297D294D835E836F8378878EE1B9
:1027500090E08E1B9F0B9C838B8312C0309781F07F
:102760000E2E04C0EE0CFF1C001F111F0A94D2F79E
:10277000ED82FE820F831887CE1ADF0ADC82CB82BD
:102780001A82CE0101960E9418142896EAE00C9451
:10279000FB16EF92FF920F931F937B018C0180E059
:1027A000E81680E0F80681E0080780E0180788F462
:1027B0008FEFE816F1040105110531F028F088E0EB
:1027C00090E0A0E0B0E017C080E090E0A0E0B0E0D2
:1027D00012C080E0E81680E0F80680E0080781E09B
:1027E000180728F088E190E0A0E0B0E004C080E1A4
:1027F00090E0A0E0B0E020E230E040E050E0281BB4
:10280000390B4A0B5B0B04C016950795F794E794B8
:102810008A95D2F7F701E95EFC4F8081281B3109C8
:1028200041095109C9011F910F91FF90EF9008953F
:10283000DF92EF92FF920F931F93FC01E480F580EB
:1028400006811781D1808081823048F480E090E059
:10285000A0E1B0E0E82AF92A0A2B1B2BA5C084309E
:1028600009F49FC0823021F4EE24FF24870105C0C3
:10287000E114F1040105110519F4E0E0F0E096C05F
:10288000628173819FEF623879070CF05BC022E8A8
:102890003FEF261B370B2A3131052CF020E030E0CA
:1028A00040E050E02AC0B801A701022E04C076958E
:1028B0006795579547950A94D2F781E090E0A0E09C
:1028C000B0E004C0880F991FAA1FBB1F2A95D2F73A
:1028D0000197A109B1098E219F21A023B12300975F
:1028E000A105B10521F081E090E0A0E0B0E09A01FF
:1028F000AB01282B392B4A2B5B2BDA01C9018F77CF
:102900009070A070B07080349105A105B10539F4C4
:1029100027FF09C0205C3F4F4F4F5F4F04C0215C31
:102920003F4F4F4F5F4FE0E0F0E02030A0E03A072C
:10293000A0E04A07A0E45A0710F0E1E0F0E07901D6
:102940008A0127C06038710564F5FB01E158FF4F2B
:10295000D801C7018F779070A070B0708034910556
:10296000A105B10539F4E7FE0DC080E490E0A0E0D8
:10297000B0E004C08FE390E0A0E0B0E0E80EF91E04
:102980000A1F1B1F17FF05C016950795F794E794BC
:10299000319687E016950795F794E7948A95D1F7D5
:1029A00005C0EE24FF248701EFEFF0E06E2F67955E
:1029B00066276795902F9F77D794DD24D7948E2F25
:1029C0008695492F462B582F5D29B701CA011F91C3
:1029D0000F91FF90EF90DF900895FC01DB014081A3
:1029E00051812281622F6F7770E0221F2227221FE0
:1029F0009381892F880F822B282F30E0991F9927E8
:102A0000991F11969C93119721153105A9F5411530
:102A100051056105710511F482E037C082E89FEF2E
:102A200013969C938E9312979A01AB0167E0220F45
:102A3000331F441F551F6A95D1F783E08C930DC057
:102A4000220F331F441F551F12968D919C9113978F
:102A5000019713969C938E931297203080E038074D
:102A600080E0480780E4580758F314962D933D936F
:102A70004D935C93179708952F3F310579F44115D5
:102A800051056105710519F484E08C93089564FF84
:102A900003C081E08C9312C01C9210C02F573040AD
:102AA00013963C932E93129783E08C9387E0440F08
:102AB000551F661F771F8A95D1F7706414964D9342
:102AC0005D936D937C93179708951F93DC01FB0131
:102AD0009C91923008F447C08081823008F443C052
:102AE000943051F411961C91843099F58181682FAE
:102AF00070E0611B71093FC0843021F0923031F4E5
:102B00008230B9F18181882389F12DC011961C9101
:102B100011978230F1F081811817D9F412962D9116
:102B20003C911397828193818217930794F0281721
:102B30003907BCF014968D919D910D90BC91A02DFC
:102B40002481358146815781281739074A075B0759
:102B500018F4112341F00AC082179307A407B507A0
:102B600040F4112319F061E070E005C06FEF7FEFD2
:102B700002C060E070E0CB011F910895CF93DF9316
:102B8000BC018230910510F462E070E0A0918C2AC3
:102B9000B0918D2AED01E0E0F0E040E050E021C08E
:102BA000888199818617970769F48A819B8130977C
:102BB00019F09383828304C090938D2A80938C2A8A
:102BC000FE0134C06817790738F44115510519F032
:102BD0008417950708F4AC01FE018A819B819C0152
:102BE000E9012097E9F641155105A9F1CA01861BB3
:102BF000970B049708F4BA01E0E0F0E02AC08D9149
:102C00009C91119784179507F9F46417750781F45F
:102C100012968D919C911397309719F0938382832C
:102C200004C090938D2A80938C2AFD0132964FC068
:102C3000CA01861B970BFD01E80FF91F6193719381
:102C400002978D939C9343C0FD01828193819C01E7
:102C5000D9011097A1F680918A2A90918B2A892B0D
:102C600041F48091190490911A0490938B2A8093D7
:102C70008A2A40911B0450911C044115510541F4CE
:102C80004DB75EB78091170490911804481B590BFB
:102C900020918A2A30918B2A24173507B0F4CA0173
:102CA000821B930B8617970780F0AB014E5F5F4F37
:102CB0008417950750F0420F531F50938B2A40936F
:102CC0008A2AF9016193719302C0E0E0F0E0CF013C
:102CD000DF91CF910895CF93DF93009709F450C00F
:102CE000EC0122971B821A82A0918C2AB0918D2A26
:102CF000109709F140E050E0AC17BD0708F1BB8325
:102D0000AA83FE0121913191E20FF31FAE17BF0795
:102D100079F48D919C911197280F391F2E5F3F4FA9
:102D20003983288312968D919C9113979B838A8374
:102D30004115510571F4D0938D2AC0938C2A20C07F
:102D400012968D919C911397AD01009711F0DC01C3
:102D5000D3CFFA01D383C28321913191E20FF31FC4
:102D6000CE17DF0769F488819981280F391F2E5FFC
:102D70003F4FFA01318320838A819B819383828331
:102D8000DF91CF910895AA1BBB1B51E107C0AA1F79
:102D9000BB1FA617B70710F0A61BB70B881F991FFC
:102DA0005A95A9F780959095BC01CD0108952F9271
:102DB0003F924F925F926F927F928F929F92AF92CB
:102DC000BF92CF92DF92EF92FF920F931F93CF9318
:102DD000DF93CDB7DEB7CA1BDB0B0FB6F894DEBFAF
:102DE0000FBECDBF19942A88398848885F846E84C5
:102DF0007D848C849B84AA84B984C884DF80EE801F
:102E0000FD800C811B81AA81B981CE0FD11D0FB627
:102E1000F894DEBF0FBECDBFED010895F894FFCF4B
:102E2000202020204F4253545241434C4520202023
:102E3000002020202044455445435445442021206F
:102E400020004E4F544520444554454354454421A9
:102E500021210036302064656772656520737563D3
:102E60006365730031323020646567726565207375
:102E700075636573002D3630206465677265652063
:102E80007375636573002D31323020646567726538
:102E900020737563657300202020202020202020CF
:102EA00020202020202020004D4F56494E47204F03
:102EB0004E20464C4558212100202020576169743E
:102EC000696E672121212020200020466F72205347
:102ED0006C61766520426F742120004D4E50204475
:102EE000455445435445442000537472696E6B69E0
:102EF0006E67204E6F646521210020202020202055
:102F00005461736B202020202020002020436F6D0F
:102F1000706C657465642121212020002020496E99
:102F200069746961746564212121202000FFFF001C
:102F3000000000000000000001020203030303047C
:102F40000404040404040405050505050505050538
:102F50000505050505050506060606060606060618
:102F60000606060606060606060606060606060601
:102F700006060606060606070707070707070707E8
:102F800007070707070707070707070707070707D1
:102F900007070707070707070707070707070707C1
:102FA00007070707070707070707070707070707B1
:102FB0000707070707070708080808080808080898
:102FC0000808080808080808080808080808080881
:102FD0000808080808080808080808080808080871
:102FE0000808080808080808080808080808080861
:102FF0000808080808080808080808080808080851
:103000000808080808080808080808080808080840
:103010000808080808080808080808080808080830
:103020000808080808080808080808080808080820
:0E3030000808080808080820008E2A00000082
:00000001FF
