:100000000C9472000C948B000C948B000C948B005D
:100010000C948B000C948B000C948B000C948B0034
:100020000C948B000C948B000C948B000C948B0024
:100030000C948B000C948B000C948B000C948B0014
:100040000C948B000C948B000C948B000C948B0004
:100050000C948B000C948B000C948B000C948B00F4
:100060000C948B000C948B000C948B000C948B00E4
:100070000C948B000C948B000C948B000C948B00D4
:100080000C948B000C948B000C948B000C948B00C4
:100090000C948B000C948B000C948B000C948B00B4
:1000A0000C948B000C948B000C948B000C948B00A4
:1000B0000C948B000C948B000C948B000C948B0094
:1000C0000C948B000C948B000C948B000C948B0084
:1000D0000C948B000C948B000C948B000C948B0074
:1000E0000C948B0011241FBECFEFD1E2DEBFCDBF39
:1000F00000E00CBF12E0A0E0B2E0E8E6F1E000E0D2
:100100000BBF02C007900D92A030B107D9F70E9433
:100110009A000C94B2000C94000088E088B908950D
:100120003B9A4398089518B80895F8943B9A4398D9
:1001300078940895F8943B9A4398789448E020E79F
:1001400031E048B980E197E2F9013197F1F7019781
:10015000D9F718B880E197E2F9013197F1F70197E3
:08016000D9F7EFCFF894FFCFAF
:00000001FF
