:100000000C9472000C9493000C9493000C94930045
:100010000C9493000C9454040C942F040C949300AF
:100020000C9493000C9493000C9493000C94930004
:100030000C9493000C9493000C9493000C949300F4
:100040000C9493000C9493000C9493000C949300E4
:100050000C9493000C9493000C9493000C949300D4
:100060000C9493000C9453090C9493000C949300FB
:100070000C9493000C9493000C9493000C949300B4
:100080000C9493000C9493000C9493000C949300A4
:100090000C9493000C9493000C9493000C94930094
:1000A0000C9493000C9493000C9493000C94930084
:1000B0000C9493000C9493000C9493000C94930074
:1000C0000C9493000C9493000C9493000C94BF092F
:1000D0000C9493000C9493000C9493000C94930054
:1000E0000C94930011241FBECFEFD1E2DEBFCDBF31
:1000F00000E00CBF14E0A0E0B2E0EEE1F0E300E0CD
:100100000BBF02C007900D92A033B107D9F71AE2D6
:10011000A0E3B4E001C01D92A03AB107E1F70E944C
:10012000AA100C940D180C940000FC0120E030E0A3
:1001300080819181892B11F421E030E0C90108957B
:10014000CF93DF9320E030E062E670E040EC57E2CE
:1001500010C041935193019681339105D1F72F5FE0
:100160003F4F2133310529F441E050E062E670E071
:1001700029C0269FF001279FF00D369FF00D112416
:10018000E65BFB4F80E090E0E4CFCA01821B930B5B
:1001900097FF03C0909581959F4F8130910511F491
:1001A000918380832F5F3F4F32962931310569F764
:1001B0004F5F5F4F4931510529F449E150E062E654
:1001C00070E024C0469FF001479FF00D569FF00D50
:1001D0001124E45BFB4F21E030E0D7CFCA01821B42
:1001E000930B97FF03C0909581959F4F81309105A8
:1001F00011F4918380832F5F3F4F32962732310570
:1002000069F74F5F5F4F4732510561F0469FF0013C
:10021000479FF00D569FF00D1124E458FB4F29E144
:1002200030E0DCCF81E090E09093A5148093A4149B
:10023000909305128093041290935114809350145C
:100240009093B1148093B0149093DD108093DC10E0
:1002500090933D1480933C149093EB168093EA1690
:100260009093EB108093EA10909387108093861000
:1002700090938716809386169093D9138093D81302
:1002800090937910809378109093891380938813BA
:100290009093E9138093E8139093510F8093500F3C
:1002A000909371138093701390931F1680931E1672
:1002B00090935F0F80935E0F9093FB0E8093FA0EE6
:1002C0009093BB158093BA1590930D1380930C13E4
:1002D0009093ED0E8093EC0E9093250E8093240E58
:1002E000909345128093441290936B1580936A15F6
:1002F00090936B1280936A12909307128093061268
:1003000090930715809306159093DD048093DC0489
:1003100090937D0D80937C0D909351158093501593
:100320009093710D8093700D9093EF148093EE1461
:1003300090936F0D80936E0D90937511809374114F
:100340009093D50B8093D40B90931311809312113B
:100350009093D30B8093D20B9093C9168093C816B9
:100360009093690A8093680A909367168093661643
:100370009093670A8093660A9093DD0F8093DC0F59
:100380009093BD088093BC0890937B0F80937A0F65
:100390009093BB088093BA089093F5158093F41559
:1003A00090935507809354079093931580939215DB
:1003B00090935307809352079093450E8093440E79
:1003C0009093A5058093A4059093E30D8093E20D8F
:1003D0009093A3058093A20590935912809358128D
:1003E0009093F9118093F8119093F9088093F8088D
:1003F0009093990880939808E4E1F7E12FEF3FEF9D
:1004000091838083338322830196349689319105C9
:10041000B9F781E090E0909375178093741785E0A9
:1004200090E090937D1780937C1789E090E0909303
:100430008117809380178DE090E0909389178093C7
:10044000881781E190E090938D1780938C1785E158
:1004500090E0909395178093941785E290E09093A5
:1004600079178093781786E290E090937B178093BA
:100470007A1787E290E0909385178093841788E23B
:1004800090E0909387178093861789E290E090938D
:100490009117809390178AE290E09093931780933E
:1004A0009217C4E0D9E1E8E6F9E122EE3FEFC05649
:1004B000D04039832883C05ADF4F3D832C8337FFD8
:1004C00004C0C9018C549F4F06C0121613063CF499
:1004D000C901845B904099838883918380832E51E6
:1004E00030408FEF2C34380714F426E930E0C8533D
:1004F000DF4FE853FF4F81E2CC39D807C1F61092A5
:1005000041181092401884EB90E09093A1188093CA
:10051000A01890936D1880936C1810920D21109272
:100520000C216AE67FEF70933319609332194EE124
:1005300050E05093732140937221A6EABFEFB0932D
:100540003519A0933419EAE5F0E0F9AFE8AF26E9F0
:1005500030E03093E31A2093E21A82EE9FEF9093FB
:100560002329809322297093E51A6093E41A50930B
:10057000852940938429F0934B1CE0934A1CB09347
:100580000B23A0930A2330934D1C20934C1C909373
:100590006D2380936C235093F71D4093F61D709349
:1005A000F7296093F629F093F91DE093F81DB093B5
:1005B000592AA093582A9093631F8093621F309307
:1005C000A3242093A2245093651F4093641F70932B
:1005D000052560930425B093FF20A093FE20F0939F
:1005E0007F28E0937E28909301218093002130930F
:1005F000E1282093E0289D838C833093012220936F
:1006000000227093312360933023509391234093C1
:100610009023F0939725E0939625B0939728A09385
:1006200096283093FB252093FA259093FB288093FE
:10063000FA2890938B2280938A2230934B2920931F
:100640004A295093EF224093EE227093AF29609392
:10065000AE2970931724609316245093172A409361
:10066000162AB0937B24A0937A24F0937B2AE093FC
:100670007A2A70937D2260937C2250939D2640932A
:100680009C263093E1222093E022909301278093CF
:100690000027F0930924E0930824B0936927A093DE
:1006A000682750936D2440936C247093CD276093FA
:1006B000CC279093952580939425309335282093CB
:1006C0003428B093ED25A093EC25F0934D26E093CC
:1006D0004C267093192760931827509379274093DD
:1006E000782730935126209350269093B1268093FB
:1006F000B026F093E127E093E027B0934128A09340
:10070000402880E090E0DF91CF910895680F791F35
:10071000CB010895EF92FF920F931F93CF93DF9336
:100720008B017A01BC01E801AFEFBFEF40E050E080
:100730001BC0FB0180819181892B89F0FFEFAF3FC6
:10074000BF0761F0FD01EE0FFF1FE00FF11F2081D9
:10075000318188819981281739070CF0DA014F5FC0
:100760005F4F6E5F7F4F22964E155F0514F3CD01EC
:10077000DF91CF911F910F91FF90EF9008956150FD
:100780007040DC01FB01EE0FFF1FEA0FFB1F40E092
:1007900050E00EC02D913C911197808191818D93F5
:1007A0009D93318320834F5F5F4F6150704032973C
:1007B000461757077CF3089510BA11BA1092070133
:1007C00010920801089581B18F6081B982B1807F54
:1007D00082B9EAE0F1E0808188618083EBE0F1E0BA
:1007E00080818861808308956C98749A08956D98CB
:1007F000759A089587B1876F87B988B1807888B96D
:1008000010BA11BA109207011092080181B18F60DD
:1008100081B982B1807F82B9EAE0F1E080818861AC
:100820008083EBE0F1E08081886180833B9A43988C
:100830006C98749A6D98759A0895F894EAE6F0E0C9
:10084000808182608083EC9A78940895F894EAE637
:10085000F0E0808188608083ED9A789408951F92FB
:100860000F920FB60F9211248F939F93AF93BF9364
:100870008091340490913504A0913604B0913704EE
:100880000196A11DB11D8093340490933504A0936B
:100890003604B0933704BF91AF919F918F910F9021
:1008A0000FBE0F901F9018951F920F920FB60F92C8
:1008B00011248F939F93AF93BF93809130049091B5
:1008C0003104A0913204B09133040196A11DB11DF1
:1008D0008093300490933104A0933204B093330496
:1008E000BF91AF919F918F910F900FBE0F901F906E
:1008F0001895E1E8F0E010828CEF8093850081E0AC
:100900008093840093E0909389008FEF8093880018
:1009100090938B0080938A0090938D0080938C003D
:1009200090938700809386008BEA809380001092DA
:1009300082008CE080830895E1E2F1E010829FEF75
:100940009093250181E080932401109229019093D6
:10095000280110922B0190932A0110922D0190935F
:100960002C0189EA809320018BE080830895EAE7D7
:10097000F0E0108210927B0080E280937C0080E89F
:1009800080BF86E880830895982F883018F088E02B
:1009900080937B009770906290937C0080917A00A6
:1009A000806480937A0080917A0084FFFCCF8091EC
:1009B000790090917A00906190937A0010927B0078
:1009C00008958093280160932A01089592B1907F41
:1009D0008F70892B82B9089582B1807F866082B939
:1009E000089582B1807F896082B9089582B1807F45
:1009F000856082B9089582B1807F8A6082B9089546
:100A000082B1807F846082B9089582B1807F8260E4
:100A100082B9089582B1807F816082B9089582B1E0
:100A2000807F886082B9089582B1807F82B90895FD
:100A3000EF92FF920F931F93A0E0B0E0BC01CD01B5
:100A40000E944F1428E431EE42E850E40E941F1344
:100A50000E9449117B0100E010E0109234041092D2
:100A6000350410923604109237041092300410921C
:100A70003104109232041092330480913404909126
:100A80003504A0913604B0913704209130043091A0
:100A9000310440913204509133048E159F05A00714
:100AA000B10728F42E153F054007510730F382B1F6
:100AB000807F82B91F910F91FF90EF90089522B12E
:100AC000207F256022B90E941805089522B1207F59
:100AD0002A6022B90E941805089522B1207F24605F
:100AE00022B9880F991F0E941805089522B1207F0E
:100AF000226022B9880F991F0E941805089522B11B
:100B0000207F216022B9880F991F0E94180508953F
:100B100022B1207F286022B9880F991F0E941805F2
:100B20000895F8940E94FA03EAE7F0E01082109228
:100B30007B0080E280937C0080E880BF86E8808331
:100B4000E1E2F1E010829FEF9093250181E0809334
:100B50002401109229019093280110922B01909367
:100B60002A0110922D0190932C0189EA8093200193
:100B70008BE08083F894EAE6F0E0808182608083F5
:100B8000EC9A7894F894EAE6F0E0808188608083BB
:100B9000ED9A78947894089583E00E94C404809339
:100BA000C9171092CA1782E00E94C40480930E17DE
:100BB00010920F1781E00E94C404282F30E0309378
:100BC000D5172093D4174091C9175091CA174932AD
:100BD0005105F4F080910E1790910F178897C4F487
:100BE00082B1807F866082B98DE790E090933F0468
:100BF00080933E048AEF90E09093410480934004F8
:100C00008DE7809328018AEF80932A0181E020C03C
:100C10002932310504F180910E1790910F178897B2
:100C2000D4F482B1807F866082B98AEF90E090939D
:100C30003F0480933E048DE790E0909341048093BD
:100C400040048AEF809328018DE780932A0182E097
:100C500080933804089580910E1790910F17893270
:100C60009105C4F048325105ACF428323105DCF569
:100C700082B1807F866082B98AEF90E090933F04D2
:100C800080933E0490934104809340048AEF8093C4
:100C9000280120C02832310534F5889724F54832E0
:100CA00051050CF582B1807F866082B984E690E0C0
:100CB00090933F0480933E048AEF90E09093410428
:100CC0008093400480913804813039F484E6809325
:100CD00028018AEF80932A0108958AEF80932801E2
:100CE00084E680932A010895EF92FF920F931F9359
:100CF000A0E0B0E0BC01CD010E944F1425EE30ED24
:100D00004AEA50E40E941F130E9449117B018C01A2
:100D10001092340410923504109236041092370465
:100D20000E94CC058091340490913504A091360442
:100D3000B0913704E816F9060A071B0788F782B155
:100D4000807F82B91F910F91FF90EF90089522B19B
:100D5000207F296022B90E947406089522B1207F65
:100D6000266022B90E947406089586E69EE0FC0182
:100D70003197F1F74098419840E348B9429A20E012
:100D800038E4F9013197F1F74298FC013197F1F716
:100D90004098419848B9429AF9013197F1F7429841
:100DA000FC013197F1F74098419848B9429AF9010E
:100DB0003197F1F742980197F1F74098419880E216
:100DC00088B9429AC9010197F1F74298089598B1FC
:100DD0009F7098B928B1982F907F922B98B940981E
:100DE0004198429A20E038E4F9013197F1F74298AE
:100DF00098B19F7098B998B18295807F982B98B9D7
:100E000040984198429AC9010197F1F74298089594
:100E10000E94B50686E69EE00197F1F788E20E94FF
:100E2000E70681E00E94E70686E00E94E7068EE082
:100E30000E94E70680E80E94E706089598B19F7037
:100E400098B928B1982F907F922B98B9409A4198E1
:100E5000429A20E038E4F9013197F1F7429898B1CD
:100E60009F7098B998B18295807F982B98B9409AD5
:100E70004198429AC9010197F1F74298089580E894
:100E80000E94E7060895CF93DF93EC0103C00E9410
:100E90001E07219688818823D1F7DF91CF9108958D
:100EA000823069F0833018F48130A9F405C08330B2
:100EB00049F0843081F40BC0862F815805C0862FFD
:100EC000815402C0862F8D560E94E7060895862F12
:100ED0008D520E94E70608950F931F93CF93DF93DF
:100EE0008A01E901882311F0662319F40E943F0763
:100EF00002C00E945007C530D10571F4C80160E1FD
:100F000077E20E94C217CB01C09690939B17809303
:100F10009A170E941E0705C0C430D10511F080E069
:100F200016C0C80168EE73E00E94C217CB0160933F
:100F3000C4179093C5176AE070E00E94C217C0966C
:100F40009093D9178093D8170E941E0781E0C33071
:100F5000D10521F0813011F080E016C0C80164E6AF
:100F600070E00E94C217CB016093C4179093C5171D
:100F70006AE070E00E94C217C0969093D3178093E6
:100F8000D2170E941E0781E0C230D10521F08130C6
:100F900011F080E016C0C8016AE070E00E94C2173C
:100FA000CB016093C4179093C5176AE070E00E946C
:100FB000C217C0969093C8178093C7170E941E0748
:100FC00081E0C130D10511F0813061F4C8016AE0DF
:100FD00070E00E94C217C0969093D7178093D617DF
:100FE0000E941E0726971CF085E40E941E07DF91D1
:100FF000CF911F910F9108950F931F93182F062FD4
:10100000842F0E94C404482F8093C617812F90E03C
:10101000602F70E050E023E030E00E946C071F91E9
:101020000F910895279A2F9A08953B9A439808950F
:1010300087B1876F87B988B1807888B90895279A72
:101040002F9A87B1876F87B988B1807888B910BA2D
:1010500011BA109207011092080181B18F6081B915
:1010600082B1807F82B9EAE0F1E08081886180838B
:10107000EBE0F1E08081886180833B9A43986C9833
:10108000749A6D98759A0895E1ECF0E010821092D0
:10109000C00086E08093C2008FE58093C400109268
:1010A000C50088E980830895E1EDF0E01082109298
:1010B000D00086E08093D2008FE58093D400109218
:1010C000D50088E98083089586B1886088B908953D
:1010D00086B1877F88B9089510928D0090E0A0E0D6
:1010E000B0E0BC01CD010E944F142BE734E14EEE7D
:1010F0005FE30E941F1320E030E04CE052E40E94C6
:10110000F2120E94491160938C000895CF92DF92F1
:10111000EF92FF920F931F93CF93DF93E090D0173E
:10112000F090D1170091CE171091CF17A0910C1706
:10113000B0910D17C0E0D0E040E050E060E7C62E6F
:1011400061E0D62E3CC06C9111967C9111979B0169
:10115000C90108970B9728F02C51304025303105F4
:10116000A0F4F701E40FF51F6083718388EE93E02C
:10117000F6013197F1F70197D9F76093C600F801AE
:10118000E40FF51F1182108216C0F701E40FF51F5E
:101190001182108288EE93E0F6013197F1F7019702
:1011A000D9F71092C600F801E40FF51F8D919C91BC
:1011B00011979183808321964E5F5F4F12968091A5
:1011C000440490914504C817D9070CF4BCCFDF91B3
:1011D000CF911F910F91FF90EF90DF90CF900895E6
:1011E00081E090E090939D1780939C176091440458
:1011F00070914504A091CE17B091CF1720E030E058
:1012000011C04D915C9111974115510541F0FC01C0
:10121000EE0FFF1FE456F84E5183408301962F5F77
:101220003F4F12962617370764F390934704809335
:1012300046040895CF92DF92EF92FF920F931F938F
:10124000CF93DF932CE9C22E27E1D22E91E0E92E35
:10125000F12CC1E0D0E000E010E015C0C131D105B3
:1012600029F482E0E82EF12CC1E0D0E0F6014191B2
:1012700051916F018E2D6C2F22E030E00E946C079F
:1012800022960F5F1F4F80914604909147040817E4
:10129000190724F3DF91CF911F910F91FF90EF90E9
:1012A000DF90CF9008951F920F920FB60F921124E6
:1012B0008F938091C6008093CD178093480410923D
:1012C00049048F910F900FBE0F901F901895F894BE
:1012D0000E941F08EAE7F0E0108210927B0080E293
:1012E00080937C0080E880BF86E880830E94790438
:1012F000E1E2F1E010829FEF9093250181E080937D
:101300002401109229019093280110922B019093AF
:101310002A0110922D0190932C0189EA80932001DB
:101320008BE08083F894EAE6F0E08081826080833D
:10133000EC9A7894F894EAE6F0E080818860808303
:10134000ED9A7894E1ECF0E010821092C00026E073
:101350002093C2009FE59093C4001092C50088E9D5
:101360008083E1EDF0E010821092D0002093D20053
:101370009093D4001092D5008083789408951F92A2
:101380000F920FB60F920BB60F9211242F933F932B
:101390004F935F936F937F938F939F93AF93BF937D
:1013A000EF93FF932091D6002093CD172093D60082
:1013B000E0911F03F09120038FEFEF3FF80761F5F5
:1013C000822F90E0C097909345048093440410923C
:1013D000200310921F03880F991F0E94BD1680934F
:1013E0000C1790930D178091440490914504880F39
:1013F000991F0E94BD168093CE179093CF178091AE
:10140000440490914504880F991F0E94BD16809353
:10141000D0179093D11727C0809144049091450430
:10142000E817F90704F580910C1790910D17EE0F4E
:10143000FF1FE80FF91F20831182E0911F03F09135
:101440002003EE0FFF1FE80FF91F80819181C097E5
:101450009183808380911F03909120030196909344
:10146000200380931F03FF91EF91BF91AF919F9154
:101470008F917F916F915F914F913F912F910F903D
:101480000BBE0F900FBE0F901F9018958F929F92DA
:10149000AF92BF92DF92EF92FF920F931F93CF9381
:1014A000DF934C015B0186E090E00E94BD16EC01E9
:1014B000198218821B821A821D821C82EE24EA94F1
:1014C000FE2C00E711E0BAEFDB2E9FC186E00E9400
:1014D000C404809343048A3508F03FC081E090E063
:1014E00061E070E00E94500780E092E00E944307B4
:1014F00082E090E061E070E00E94500781E192E0BC
:101500000E94430782B1807F8A6082B988EB9BE0AA
:10151000F8013197F1F70197D9F782B1807F89609F
:1015200082B980ED97E0F8013197F1F70197D9F78B
:1015300082B1807F8A6082B982E00E94C404809375
:101540003A048E36A8F382B1807F82B988EE93E0A8
:10155000F8013197F1F70197D9F780910E17909123
:101560000F17C3970CF44FC18091C9179091CA17F8
:10157000C3973CF48091D4179091D517C3970CF47E
:1015800042C182E090E061E070E00E94500782E298
:1015900092E00E9443070894E11CF11C82B1807F15
:1015A00082B9F701EE0FFF1FE80DF91D0190F081E0
:1015B000E02DEC33F10521F08EEFE43DF80771F5F5
:1015C000D0922801D0922A018CE390E00E94AE06CE
:1015D00088EE93E0F8013197F1F70197D9F78EE1A2
:1015E00090E00E945F0582B1807F856082B982E0D1
:1015F0000E94C40490E090930F1780930E178B34D1
:1016000091058CF382B1807F82B981E090E061E046
:1016100070E00E94500783E392E03BC0E837F10599
:1016200021F08FEFE031F807B9F5D0922801D09280
:101630002A0182B1807F866082B98CEA9DE0F80140
:101640003197F1F70197D9F78AE590E00E945F059D
:1016500088E893E1F8013197F1F70197D9F782B162
:10166000807F856082B982E00E94C40490E09093FC
:101670000F1780930E178B3491058CF382B1807F06
:1016800082B981E090E061E070E00E94500784E45C
:1016900092E00E944307A0C08FEFE43CF80721F0DE
:1016A00081E0EC32F80771F5D0922801D0922A013E
:1016B0008CE390E00E94AE0688EE93E0F80131974B
:1016C000F1F70197D9F78EE190E00E94660582B1AB
:1016D000807F8A6082B982E00E94C40490E0909387
:1016E0000F1780930E178B3491058CF382B1807F96
:1016F00082B981E090E061E070E00E94500786E5E9
:1017000092E0C7CF8FEFE838F80719F0E03FF10516
:1017100051F5D0922801D0922A0182B1807F866053
:1017200082B98CEA9DE0F8013197F1F70197D9F77A
:101730008AE590E00E94660588E893E1F801319718
:10174000F1F70197D9F782B1807F8A6082B982E090
:101750000E94C40490E090930F1780930E178B346F
:1017600091058CF38BCFE43BF10519F0EC54FF4F5E
:1017700099F5D0922801D0922A0182B1807F8660AB
:1017800082B982B1807F8A6082B988EB9BE0F801E0
:101790003197F1F70197D9F782B1807F896082B9DB
:1017A00080ED97E0F8013197F1F70197D9F782B111
:1017B000807F8A6082B982E00E94C40480933A04E8
:1017C0008B34A8F382B1807F82B988EE93E0F80170
:1017D0003197F1F70197D9F781E090E061E070E08F
:1017E0000E94500787E692E00E94430782E090E063
:1017F00061E070E00E94500788E792E00E94430792
:10180000EA14FB0414F40E94CC05EA14FB040CF463
:101810005DCECE01DF91CF911F910F91FF90EF90A0
:10182000DF90BF90AF909F908F900895CF92DF92FE
:10183000EF92FF920F931F93CF93DF936C01162FBC
:10184000072F7A0182E690E00E94BD16EC0121E0AC
:1018500030E0D7012D933C9318830983AC01212FED
:10186000302FC901E1E0F0E00EC0D7018D919C91CD
:10187000119701968D939C93DB018D919C91DA01D8
:101880008D939C933196BC01660F771F6C0D7D1D67
:101890004E5F5F4FDB018D919C91BFEF8F3F9B07A8
:1018A00021F7EE0FFF1FEC0FFD1F91838083F701DF
:1018B00060817181CE010E94BF03CE01DF91CF9183
:1018C0001F910F91FF90EF90DF90CF90089584E0EB
:1018D00090E00E94BD16FC011182108213821282D8
:1018E000089584E090E00E94BD16FC0113821282EC
:1018F00008950F931F93CF93DF93EC018B010E9408
:10190000710CDC0111961C930E9388819981892BAF
:1019100039F48A819B81892B19F4B983A88304C087
:10192000EA81FB81B383A283BB83AA83DF91CF913A
:101930001F910F9108958F929F92AF92BF92CF9275
:10194000DF92EF92FF920F931F93CF93DF936C017F
:101950007B01CB01880F991F0E94BD168C01E60107
:10196000BC0141E050E057010894A108B108F1E33F
:101970008F2E912C2CC02A813B81289DD001299D3E
:10198000B00D389DB00D11248C819D81A80FB91F19
:10199000AA0FBB1FA652B84E89919991889DF0015C
:1019A000899DF00D989DF00D1124E20FF31FEE0FAD
:1019B000FF1FE652F84E8D919C9120813181821B50
:1019C000930BFB0181939193BF014F5F5F4F4A15CA
:1019D0005B058CF2F7013197EE0FFF1FE00FF11F4F
:1019E0008FEF9FEF91838083C801B7010E94460A61
:1019F000EC0188819981892BA1F0EA81FB81EE0FAE
:101A0000FF1FEC0DFD1D808191819B838A83EC81FA
:101A1000FD81EE0FFF1FEC0DFD1D808191819D83E7
:101A20008C83C8010E946A17CE01DF91CF911F916C
:101A30000F91FF90EF90DF90CF90BF90AF909F906D
:101A40008F900895CF93DF93DC01ED91FC91119776
:101A5000309749F412968D919C911397892B19F424
:101A6000CFEFDFEF10C0C081D181828193811196C9
:101A70009C938E93892B21F413961C921E9212979D
:101A8000CF010E946A17CE01DF91CF9108952F9266
:101A90003F924F925F926F927F928F929F92AF92FE
:101AA000BF92CF92DF92EF92FF920F931F93DF933B
:101AB000CF93CDB7DEB7C256D0400FB6F894DEBF95
:101AC0000FBECDBF8C010E94670C2C0182E690E016
:101AD0000E94BD161C015C01DC01FE013396CE01A3
:101AE0008D599F4F13961C921E921297119211922C
:101AF0001296E817F907B1F7C201B8010E94790CF4
:101B000043C0C2010E94220D3C01660C771C6A0C86
:101B10007B1C22E630E0829F6001839FD00C929F65
:101B2000D00C11248CE494E0C80ED91EB3E08B2EA7
:101B3000912C8C0E9D1E710101E010E0F40180815A
:101B40009181892BA1F4F30180819181F60120819B
:101B50003181820F931FF70193838283C201B80101
:101B60000E94790C21E030E0F401318320830F5F83
:101B70001F4F82E090E0880E991EC80ED91EE80E15
:101B8000F91E01331105D1F6F20180819181892B73
:101B900009F0B7CFC501CE59DF4F0FB6F894DEBFBD
:101BA0000FBECDBFCF91DF911F910F91FF90EF90AE
:101BB000DF90CF90BF90AF909F908F907F906F906D
:101BC0005F904F903F902F9008950E94470D089589
:101BD000CF93DF93EC0103C0CE010E94220D8881D8
:101BE0009981892BC9F7DF91CF9108952F923F9268
:101BF0004F925F926F927F928F929F92AF92BF921D
:101C0000CF92DF92EF92FF920F931F93DF93CF93C8
:101C1000CDB7DEB7C85FD1400FB6F894DEBF0FBEB8
:101C2000CDBFC351DE4F79836883CD5ED1401C01A7
:101C3000220C331C9E01295D3E4FCB50DE4F398371
:101C40002883C55FD140A901420D531DC151DE4F0C
:101C500059834883CF5ED14089E891E08C0F9D1F66
:101C6000820D931DCF50DE4F99838883C15FD14091
:101C7000E3E6F0E0EC0FFD1FE20DF31DCD50DE4F6B
:101C8000F983E883C35FD140C351DE4F88819981D6
:101C9000CD5ED1400E94470DC551DE4F99838883A8
:101CA000CB5ED140C151DE4FE881F981CF5ED1409A
:101CB00011821082FC01E20DF31D80819181CF50D1
:101CC000DE4FE881F981C15FD1409183808380E05C
:101CD00090E0E5ECF0E0EC0FFD1FE80FF91F11823A
:101CE0001082E3E6F0E0EC0FFD1FE80FF91F118210
:101CF0001082E1E0F0E0EC0FFD1FE80FF91F2FEF7D
:101D00003FEF31832083E9E8F1E0EC0FFD1FE80F9E
:101D1000F91F40EC57E251834083E7E2F1E0EC0F1A
:101D2000FD1FE80FF91F518340830296823691050B
:101D300081F621E030E0CD50DE4FE881F981C35FCC
:101D4000D1403183208391E0692E712CE5C0F801E8
:101D500080819181892BB1F0FFEF6F3F7F0789F080
:101D6000FB01EE0FFF1F29E831E02C0F3D1FE20FB2
:101D7000F31F208131818D919C911197281739078C
:101D80000CF0BA014F5F5F4F0E5F1F4F1296413349
:101D90005105E9F6CB01880F991FE3E6F0E0EC0F5F
:101DA000FD1FE80FF91F11821082E5ECF0E0EC0F47
:101DB000FD1FE80FF91F41E050E051834083C351FC
:101DC000DE4FE881F981CD5ED1406E177F0709F4BF
:101DD000AEC0089461087108A5EC8A2E912C8C0E77
:101DE0009D1EF3E6AF2EB12CAC0EBD1E22E630E0F8
:101DF000629FD001639FB00D729FB00D1124A65B4E
:101E0000BB4FAE01495D5E4FC950DE4F59834883D9
:101E1000C75FD140C551DE4FC880D980CB5ED1406D
:101E2000E9E8EE2EE1E0FE2EEC0EFD1E8E010F5FC6
:101E30001F4F2A01480E591EF40180819181892B80
:101E400009F042C0F501808191814D915C9111971B
:101E5000892BE9F421E030E0318320830894611C70
:101E6000711CF20180819181840F951FC950DE4F52
:101E7000E881F981C75FD14091838083F601208199
:101E80003181820F931FF701918380831AC0F20181
:101E900020813181240F351FC950DE4FE881F9813F
:101EA000C75FD14080819181281739076CF4318355
:101EB0002083F60180819181280F391FF70131833A
:101EC0002083F8017183608322E030E0820E931E4C
:101ED000A20EB31E1296C950DE4F48815981C75FCA
:101EE000D1404E5F5F4FC950DE4F59834883C75F73
:101EF000D140C20ED31EE20EF31E0E5F1F4FCB5019
:101F0000DE4F88819981C55FD1408816990609F016
:101F100093CF6114710459F08E010D591F4FDE01EA
:101F2000A757BE4F40E050E06FEF7FEF10CF82E049
:101F300090E00E94BD168C01FC0111821082CE013E
:101F40000196C351DE4F68817981CD5ED140A801F1
:101F50000E94160CF801608171810E949B0C7C012B
:101F6000FC0180819181892BF9F4C7010E946A17D5
:101F700080E090E0C850DE4F0FB6F894DEBF0FBE91
:101F8000CDBFCF91DF911F910F91FF90EF90DF9028
:101F9000CF90BF90AF909F908F907F906F905F9009
:101FA0004F903F902F900895F701248135818281D1
:101FB000938141E350E0249FF001259FF00D349F71
:101FC000F00D1124E80FF91FEE0FFF1FE65BFB4F2A
:101FD00040EC57E25183408341E350E0849FF0019D
:101FE000859FF00D949FF00D1124E20FF31FEE0F6B
:101FF000FF1FE65BFB4F80EC97E291838083C55126
:10200000DE4F88819981CB5ED1400E946A17C8015A
:102010000E946A17C7010E946A1736CE1F93CF939A
:10202000DF930E94F60DC0E7D1E01EC082B1807F31
:1020300082B91092280110922A0181E061E00E9489
:10204000500789E892E00E94430782E061E00E9425
:1020500050078AE992E00E94430788EE93E0FE0170
:102060003197F1F70197D9F780914804909149048D
:10207000880F991FE091CE17F091CF17E80FF91F45
:1020800080819181892B91F281E061E00E9450076B
:102090008BEA92E00E9443078091480490914904A2
:1020A000880F991FE091CE17F091CF17E80FF91F15
:1020B0004081518181E06EE022E030E00E946C07B7
:1020C00082E061E00E94500789EB92E00E944307A2
:1020D00019E6C0E0D8E4812F0E946C08CE01019778
:1020E000F1F71F5F123DB9F784EF91E020E731E08F
:1020F000F9013197F1F70197D9F7C0E0D8E4812FC2
:102100000E946C08CE010197F1F71150C1F784EFDE
:1021100091E020E731E0F9013197F1F70197D9F724
:10212000C0E0D0E9812F0E946C08CE010197F1F741
:102130001F5F1936B9F780914804909149040196C0
:1021400090934904809348048093C600DF91CF9117
:102150001F9108950F931F93CF93DF930E946709F8
:102160000E94B5060E94080789E60E946C0820912B
:102170001F03309120038091440490914504281757
:10218000390709F075C081E061E00E9450078AECD0
:1021900092E00E94430782E061E00E9450078BEDCD
:1021A00092E00E94430780E29EE420E731E0F901DB
:1021B0003197F1F70197D9F780911F039091200390
:1021C00001969093200380931F0380914404809391
:1021D000C6000E9486080E94F008CCE9D7E100E022
:1021E00010E009C00F5F1F4F6A817B818881998150
:1021F0000E940E1022968091460490914704019708
:10220000081719077CF320E030E040E751E086B181
:10221000886088B980ED97E0FA013197F1F701976E
:10222000D9F786B1877F88B984EF91E0FA013197B9
:10223000F1F70197D9F72F5F3F4F2431310539F777
:1022400082B1807F82B91092280110922A0181E028
:1022500061E00E9450078CEE92E00E94430782E00A
:1022600061E00E9450078DEF92E00E944307E8CFA3
:1022700081E061E00E9450078CEE92E00E944307EB
:1022800082E061E00E9450078EE093E00E944307E5
:102290006ECFEF92FF920F931F937B018C0120E092
:1022A00030E040E05FE40E94CB1388238CF0C8014B
:1022B000B70120E030E040E05FE40E94C1120E94DC
:1022C000FB139B01AC01205030404040504806C0F9
:1022D000C801B7010E94FB139B01AC01B901CA01FF
:1022E0001F910F91FF90EF900895A0E0B0E0EBE711
:1022F000F1E10C94D617DC012B01FA019C9192308C
:1023000008F439C1EB018881823008F433C194307C
:1023100069F4843009F02FC111969C91119789813D
:10232000981709F428C1A1E2B3E025C1843009F46B
:1023300021C18230A9F4923009F01DC19A01AD018A
:1023400088E0EA010990AE01E90109929E018150FD
:10235000C1F7E201898111969C918923818308C18B
:10236000923009F407C112962D903C901397EB011F
:102370008A819B811496AD90BD90CD90DC9017978B
:10238000EC80FD800E811F819101281B390BB90162
:1023900037FF04C066277727621B730B6032710515
:1023A0000CF061C0121613066CF537014801062EB9
:1023B00004C096948794779467940A94D2F721E0A6
:1023C00030E040E050E004C0220F331F441F551F8F
:1023D0006A95D2F721503040404050402E213F2195
:1023E00040235123211531054105510521F021E0FC
:1023F00030E040E050E079018A01E628F72808291A
:1024000019293CC0232BD1F1260E371E3501460178
:10241000062E04C096948794779467940A94D2F712
:1024200021E030E040E050E004C0220F331F441FA1
:10243000551F6A95D2F721503040404050402A2124
:102440003B214C215D21211531054105510521F02C
:1024500021E030E040E050E059016A01A628B728A9
:10246000C828D9280BC0821593052CF01C01AA247A
:10247000BB24650103C0EE24FF24870111969C91C3
:10248000D20111968C91981709F445C0992339F01F
:10249000A80197012A193B094C095D0906C0A6014C
:1024A00095012E193F09400B510B57FD08C01182B1
:1024B0003382228224833583468357831DC081E083
:1024C00081833382228288279927DC01821B930B28
:1024D000A40BB50B84839583A683B7830DC0220F0D
:1024E000331F441F551F24833583468357838281BE
:1024F000938101979383828324813581468157811B
:10250000DA01C9010197A109B1098F5F9F4FAF4F50
:10251000BF4328F30BC0918333822282EA0CFB1C59
:102520000C1D1D1DE482F5820683178383E08083E2
:10253000248135814681578157FF1AC0C901AA27D6
:1025400097FDA095BA2F81709070A070B0705695CD
:10255000479537952795822B932BA42BB52B8483F6
:102560009583A683B7838281938101969383828327
:10257000DF0101C0D201CD01CDB7DEB7E2E10C949D
:10258000F217A0E2B0E0E7ECF2E10C94E217698305
:102590007A838B839C832D833E834F835887E9E026
:1025A000EE2EF12CEC0EFD1ECE010196B7010E941D
:1025B000EC158E010F5E1F4FCE010596B8010E94EB
:1025C000EC158A8991E089278A8BC701B801AE0191
:1025D000475E5F4F0E9475110E941715A096E6E0B6
:1025E0000C94FE17A0E2B0E0E8EFF2E10C94E217E1
:1025F00069837A838B839C832D833E834F835887A3
:10260000F9E0EF2EF12CEC0EFD1ECE010196B70184
:102610000E94EC158E010F5E1F4FCE010596B8018A
:102620000E94EC15C701B801AE01475E5F4F0E94E2
:1026300075110E941715A096E6E00C94FE17A8E10C
:10264000B0E0E5E2F3E10C94DE1769837A838B83D3
:102650009C832D833E834F835887B9E0EB2EF12C6A
:10266000EC0EFD1ECE010196B7010E94EC158E0105
:102670000F5E1F4FCE010596B8010E94EC1529850B
:10268000223008F47EC03989323010F4B8017CC0A1
:102690008A859A8989278A87243011F0223031F47B
:1026A000231709F06EC061E273E06EC0343039F474
:1026B0001D861E861F86188A1C861B8604C0323023
:1026C00021F484E08987B7015FC02B853C858B8925
:1026D0009C89281B390B3C872B87ED84FE840F8552
:1026E0001889AD88BE88CF88D88CEA14FB040C0505
:1026F0001D0540F4EE0CFF1C001F111F215030403F
:102700003C872B8720E030E040E050E080E090E024
:10271000A0E0B0E460E070E0EA14FB040C051D05E5
:1027200040F0282B392B4A2B5B2BEA18FB080C09AD
:102730001D09B695A79597958795EE0CFF1C001F70
:10274000111F6F5F7F4F6F31710531F7DA01C901DA
:102750008F779070A070B07080349105A105B1059D
:1027600061F427FD0AC0E114F1040105110529F007
:10277000205C3F4F4F4F5F4F20782D873E874F871C
:10278000588BBE01675F7F4FCB010E94171568967B
:10279000EAE00C94FA17A8E1B0E0E1EDF3E10C9463
:1027A000E21769837A838B839C832D833E834F83D7
:1027B000588789E0E82EF12CEC0EFD1ECE01019623
:1027C000B7010E94EC158E010F5E1F4FCE010596DA
:1027D000B8010E94EC158985823040F089898230E9
:1027E00028F0C701B8010E94641601C08FEF6896F7
:1027F000E6E00C94FE17ACE0B0E0E1E0F4E10C940C
:10280000E61769837A838B839C83CE010196BE0190
:102810006B5F7F4F0E94EC158D81823061F18230B9
:1028200050F1843021F48E81882351F12EC02F8104
:10283000388537FD20C06E812F3131051CF06623AD
:10284000F9F023C08EE190E0821B930B29853A8535
:102850004B855C8504C056954795379527958A9595
:10286000D2F76623B1F050954095309521953F4FB2
:102870004F4F5F4F0EC020E030E040E050E009C015
:102880002FEF3FEF4FEF5FE704C020E030E040E084
:1028900050E8B901CA012C96E2E00C940218A8E0B5
:1028A000B0E0E5E5F4E10C94DE177B018C016115E5
:1028B00071058105910519F482E0898360C083E088
:1028C00089838EE1C82ED12CDC82CB82ED82FE8200
:1028D0000F831887C801B7010E94C814FC01319703
:1028E000F7FF3BC0222733272E1B3F0B5701680100
:1028F000022E04C0D694C794B794A7940A94D2F732
:1029000040E050E060E070E081E090E0A0E0B0E006
:1029100004C0880F991FAA1FBB1F2A95D2F70197E1
:10292000A109B1098E219F21A023B1230097A10500
:10293000B10521F041E050E060E070E04A295B29F8
:102940006C297D294D835E836F8378878EE190E0CB
:102950008E1B9F0B9C838B8312C0309781F00E2EB1
:1029600004C0EE0CFF1C001F111F0A94D2F7ED8269
:10297000FE820F831887CE1ADF0ADC82CB821A828E
:10298000CE0101960E9417152896EAE00C94FA17DA
:10299000EF92FF920F931F937B018C0180E0E8166A
:1029A00080E0F80681E0080780E0180788F48FEFE0
:1029B000E816F1040105110531F028F088E090E0F7
:1029C000A0E0B0E017C080E090E0A0E0B0E012C06E
:1029D00080E0E81680E0F80680E0080781E018074C
:1029E00028F088E190E0A0E0B0E004C080E190E051
:1029F000A0E0B0E020E230E040E050E0281B390BDE
:102A00004A0B5B0B04C016950795F794E7948A95DB
:102A1000D2F7F701E75DFC4F8081281B310941099E
:102A20005109C9011F910F91FF90EF900895DF9216
:102A3000EF92FF920F931F93FC01E480F5800681D3
:102A40001781D1808081823048F480E090E0A0E15D
:102A5000B0E0E82AF92A0A2B1B2BA5C0843009F420
:102A60009FC0823021F4EE24FF24870105C0E114C9
:102A7000F1040105110519F4E0E0F0E096C062816F
:102A800073819FEF623879070CF05BC022E83FEF5B
:102A9000261B370B2A3131052CF020E030E040E0D6
:102AA00050E02AC0B801A701022E04C076956795B0
:102AB000579547950A94D2F781E090E0A0E0B0E006
:102AC00004C0880F991FAA1FBB1F2A95D2F7019730
:102AD000A109B1098E219F21A023B1230097A1054F
:102AE000B10521F081E090E0A0E0B0E09A01AB01F7
:102AF000282B392B4A2B5B2BDA01C9018F77907079
:102B0000A070B07080349105A105B10539F427FF9C
:102B100009C0205C3F4F4F4F5F4F04C0215C3F4FC7
:102B20004F4F5F4FE0E0F0E02030A0E03A07A0E038
:102B30004A07A0E45A0710F0E1E0F0E079018A01C9
:102B400027C06038710564F5FB01E158FF4FD801DB
:102B5000C7018F779070A070B07080349105A10587
:102B6000B10539F4E7FE0DC080E490E0A0E0B0E0EC
:102B700004C08FE390E0A0E0B0E0E80EF91E0A1F69
:102B80001B1F17FF05C016950795F794E79431961C
:102B900087E016950795F794E7948A95D1F705C0D5
:102BA000EE24FF248701EFEFF0E06E2F6795662794
:102BB0006795902F9F77D794DD24D7948E2F869595
:102BC000492F462B582F5D29B701CA011F910F913C
:102BD000FF90EF90DF900895FC01DB01408151816F
:102BE0002281622F6F7770E0221F2227221F93819C
:102BF000892F880F822B282F30E0991F9927991F42
:102C000011969C93119721153105A9F54115510590
:102C10006105710511F482E037C082E89FEF1396D9
:102C20009C938E9312979A01AB0167E0220F331F9A
:102C3000441F551F6A95D1F783E08C930DC0220F76
:102C4000331F441F551F12968D919C911397019726
:102C500013969C938E931297203080E0380780E083
:102C6000480780E4580758F314962D933D934D93ED
:102C70005C93179708952F3F310579F4411551055D
:102C80006105710519F484E08C93089564FF03C015
:102C900081E08C9312C01C9210C02F5730401396C5
:102CA0003C932E93129783E08C9387E0440F551F3B
:102CB000661F771F8A95D1F7706414964D935D93C4
:102CC0006D937C93179708951F93DC01FB019C91F2
:102CD000923008F447C08081823008F443C09430B9
:102CE00051F411961C91843099F58181682F70E020
:102CF000611B71093FC0843021F0923031F4823081
:102D0000B9F18181882389F12DC011961C91119709
:102D10008230F1F081811817D9F412962D913C91EF
:102D20001397828193818217930794F028173907AC
:102D3000BCF014968D919D910D90BC91A02D248195
:102D4000358146815781281739074A075B0718F4F0
:102D5000112341F00AC082179307A407B50740F476
:102D6000112319F061E070E005C06FEF7FEF02C042
:102D700060E070E0CB011F910895CF93DF93BC0119
:102D80008230910510F462E070E0A0919E2AB0912B
:102D90009F2AED01E0E0F0E040E050E021C08881B2
:102DA00099818617970769F48A819B81309719F07A
:102DB0009383828304C090939F2A80939E2AFE016E
:102DC00034C06817790738F44115510519F0841794
:102DD000950708F4AC01FE018A819B819C01E90101
:102DE0002097E9F641155105A9F1CA01861B970BF9
:102DF000049708F4BA01E0E0F0E02AC08D919C91BC
:102E0000119784179507F9F46417750781F41296E2
:102E10008D919C911397309719F09383828304C00E
:102E200090939F2A80939E2AFD0132964FC0CA013B
:102E3000861B970BFD01E80FF91F619371930297B1
:102E40008D939C9343C0FD01828193819C01D901A4
:102E50001097A1F680919C2A90919D2A892B41F48C
:102E600080912B0490912C0490939D2A80939C2A0E
:102E700040912D0450912E044115510541F44DB758
:102E80005EB78091290490912A04481B590B209128
:102E90009C2A30919D2A24173507B0F4CA01821B61
:102EA000930B8617970780F0AB014E5F5F4F841737
:102EB000950750F0420F531F50939D2A40939C2A30
:102EC000F9016193719302C0E0E0F0E0CF01DF917E
:102ED000CF910895CF93DF93009709F450C0EC0190
:102EE00022971B821A82A0919E2AB0919F2A109746
:102EF00009F140E050E0AC17BD0708F1BB83AA839D
:102F0000FE0121913191E20FF31FAE17BF0779F453
:102F10008D919C911197280F391F2E5F3F4F398358
:102F2000288312968D919C9113979B838A834115D8
:102F3000510571F4D0939F2AC0939E2A20C0129607
:102F40008D919C911397AD01009711F0DC01D3CFC7
:102F5000FA01D383C28321913191E20FF31FCE177F
:102F6000DF0769F488819981280F391F2E5F3F4F51
:102F7000FA01318320838A819B8193838283DF914D
:102F8000CF910895AA1BBB1B51E107C0AA1FBB1F0D
:102F9000A617B70710F0A61BB70B881F991F5A95E5
:102FA000A9F780959095BC01CD0108952F923F928D
:102FB0004F925F926F927F928F929F92AF92BF9249
:102FC000CF92DF92EF92FF920F931F93CF93DF93F5
:102FD000CDB7DEB7CA1BDB0B0FB6F894DEBF0FBE52
:102FE000CDBF19942A88398848885F846E847D848F
:102FF0008C849B84AA84B984C884DF80EE80FD80A1
:103000000C811B81AA81B981CE0FD11D0FB6F89416
:0E301000DEBF0FBECDBFED010895F894FFCFD7
:10301E00202020204F4253545241434C4520202023
:10302E00002020202044455445435445442021206F
:10303E0020004E4F544520444554454354454421A9
:10304E0021210036302064656772656520737563D3
:10305E006365730031323020646567726565207375
:10306E007563636573002D36302064656772656520
:10307E0020737563657300202020202020202020DF
:10308E0020202020202020004D4F56494E47204F13
:10309E004E20464C4558212100202020576169744E
:1030AE00696E672121212020200020466F72205357
:1030BE006C61766520426F742120004D4E50204485
:1030CE00455445435445442000537472696E6B69F0
:1030DE006E67204E6F646521210020202020202065
:1030EE00417272617920202020200020202052651C
:1030FE00636965766564212121202000202020202F
:10310E0020205461736B202020202020002020439B
:10311E006F6D706C65746564212121202000202064
:10312E00496E69746961746564212121202000FF54
:10313E00FF00000000000000000001020203030374
:10314E00030404040404040404050505050505052B
:10315E00050505050505050505060606060606060A
:10316E0006060606060606060606060606060606F1
:10317E0006060606060606060607070707070707DA
:10318E0007070707070707070707070707070707C1
:10319E0007070707070707070707070707070707B1
:1031AE0007070707070707070707070707070707A1
:1031BE00070707070707070707080808080808088A
:1031CE000808080808080808080808080808080871
:1031DE000808080808080808080808080808080861
:1031EE000808080808080808080808080808080851
:1031FE000808080808080808080808080808080841
:10320E000808080808080808080808080808080830
:10321E000808080808080808080808080808080820
:10322E000808080808080808080808080808080810
:10323E000808080808080808082000A02A0000004E
:00000001FF
