:100000000C9472000C9493000C9493000C94930045
:100010000C9493000C9493000C9493000C94930014
:100020000C9493000C9493000C9493000C94930004
:100030000C9493000C9493000C9493000C949300F4
:100040000C9493000C9493000C9493000C949300E4
:100050000C9493000C9493000C9493000C949300D4
:100060000C9493000C9493000C9493000C949300C4
:100070000C9493000C9493000C9493000C949300B4
:100080000C9493000C9493000C9493000C949300A4
:100090000C9493000C9493000C9493000C94930094
:1000A0000C9493000C9493000C9493000C94930084
:1000B0000C9493000C9493000C9493000C94930074
:1000C0000C9493000C9493000C9493000C94930064
:1000D0000C9493000C9493000C9493000C94930054
:1000E0000C94930011241FBECFEFD1E2DEBFCDBF31
:1000F00000E00CBF12E0A0E0B2E0E6EDF4E000E0CA
:100100000BBF02C007900D92A030B107D9F712E0E3
:10011000A0E0B2E001C01D92A931B107E1F70E9451
:100120003F020C9469020C94000086E69EE0FC01FC
:100130003197F1F74098419840E348B9429A20E05E
:1001400038E4F9013197F1F74298FC013197F1F762
:100150004098419848B9429AF9013197F1F742988D
:10016000FC013197F1F74098419848B9429AF9015A
:100170003197F1F742980197F1F74098419880E262
:1001800088B9429AC9010197F1F74298089598B148
:100190009F7098B928B1982F907F922B98B940986A
:1001A0004198429A20E038E4F9013197F1F74298FA
:1001B00098B19F7098B998B18295807F982B98B923
:1001C00040984198429AC9010197F1F742980895E1
:1001D00086E69EE00197F1F788E20E94C70081E081
:1001E0000E94C70086E00E94C7008EE00E94C70000
:1001F00080E80E94C700089598B19F7098B928B10F
:10020000982F907F922B98B9409A4198429A20E07B
:1002100038E4F9013197F1F7429898B19F7098B995
:1002200098B18295807F982B98B9409A4198429ACC
:10023000C9010197F1F74298089580E80E94C7002C
:100240000895CF93DF93EC0103C00E94FC00219638
:1002500088818823D1F7DF91CF910895823069F0AA
:10026000833018F48130A9F405C0833049F084301C
:1002700081F40BC0862F815805C0862F815402C09F
:10028000862F8D560E94C7000895862F8D520E949A
:10029000C70008950F931F93CF93DF938A01E9015D
:1002A000882311F0662319F40E941D0102C00E94E8
:1002B0002E01C530D10571F4C80160E177E20E94DA
:1002C0005502CB01C09690930102809300020E94D8
:1002D000FC0005C0C430D10511F080E016C0C80193
:1002E00068EE73E00E945502CB0160930602909382
:1002F00007026AE070E00E945502C09690931602D1
:10030000809315020E94FC0081E0C330D10521F0EA
:10031000813011F080E016C0C80164E670E00E94F0
:100320005502CB0160930602909307026AE070E0E9
:100330000E945502C09690931202809311020E946F
:10034000FC0081E0C230D10521F0813011F080E065
:1003500016C0C8016AE070E00E945502CB016093AC
:100360000602909307026AE070E00E945502C09670
:100370009093100280930F020E94FC0081E0C13034
:10038000D10511F0813061F4C8016AE070E00E948B
:100390005502C09690931402809313020E94FC00B1
:1003A00026971CF085E40E94FC00DF91CF911F91FD
:1003B0000F91089587B1876F87B988B1807888B920
:1003C000089510BA11BA1092070110920801089509
:1003D000EAE7F0E0108210927B0010927C0086E841
:1003E000808380E880BF0895F89487B1876F87B9CC
:1003F00088B1807888B910BA11BA109207011092AA
:100400000801EAE7F0E0108210927B0010927C0075
:1004100086E8808380E880BF78940895982F88309C
:1004200018F088E080937B009770906290937C0036
:1004300080917A00806480937A0080917A0084FFB2
:10044000FCCF8091790090917A00906190937A002E
:1004500010927B0008950F931F93182F062F842F5F
:100460000E940E02482F80930802812F602F50E0D7
:1004700023E030E00E944A011F910F9108950E94ED
:10048000F4010E9495000E94E80081E061E041E0F3
:100490000E942B0281E065E042E00E942B0281E095
:1004A00069E043E00E942B02F0CFAA1BBB1B51E185
:1004B00007C0AA1FBB1FA617B70710F0A61BB70BD4
:1004C000881F991F5A95A9F780959095BC01CD0179
:0604D0000895F894FFCF2F
:00000001FF
