:100000000C9472000C948B000C948B000C948B005D
:100010000C948B000C948B000C948B000C948B0034
:100020000C948B000C948B000C948B000C948B0024
:100030000C948B000C948B000C948B000C948B0014
:100040000C948B000C948B000C948B000C948B0004
:100050000C948B000C948B000C948B000C948B00F4
:100060000C948B000C948B000C948B000C948B00E4
:100070000C948B000C948B000C948B000C948B00D4
:100080000C948B000C948B000C948B000C948B00C4
:100090000C948B000C948B000C948B000C948B00B4
:1000A0000C948B000C948B000C948B000C948B00A4
:1000B0000C948B000C948B000C948B000C948B0094
:1000C0000C948B000C948B000C948B000C948B0084
:1000D0000C948B000C948B000C948B000C948B0074
:1000E0000C948B0011241FBECFEFD1E2DEBFCDBF39
:1000F00000E00CBF12E0A0E0B2E0E0E5F2E000E0DA
:100100000BBF02C007900D92A030B107D9F70E9433
:10011000F7000C9426010C94000081B18F6081B926
:10012000EAE0F1E080818861808382B1807F82B9DA
:10013000EBE0F1E0808188618083089581B18F6078
:1001400081B9EAE0F1E080818861808382B1807FBB
:1001500082B9EBE0F1E08081886180830895E1E27B
:10016000F1E010829FEF9093250181E080932401BC
:10017000109229019093280110922B0190932A014B
:1001800010922D0190932C0189EA809320018BE03D
:10019000808308958093280160932A01089592B185
:1001A000907F8F70892B82B9089582B1807F86609D
:1001B00082B9089582B1807F896082B9089582B141
:1001C000807F856082B9089582B1807F8A6082B91C
:1001D000089582B1807F846082B9089582B1807F62
:1001E000826082B9089582B1807F82B9089581B119
:1001F0008F6081B980910A01886180930A0182B180
:10020000807F82B980910B01886180930B011092ED
:1002100021019FEF9093250181E0809324011092AA
:1002200029019093280110922B0190932A0110929A
:100230002D0190932C0189EA809320018BE080931B
:10024000210182B1807F826082B9FBCFF894FFCF19
:00000001FF
