:100000000C9472000C9493000C9493000C94930045
:100010000C9493000C9493000C9493000C94930014
:100020000C9493000C9493000C9493000C94930004
:100030000C9493000C9493000C9493000C949300F4
:100040000C9493000C9493000C9493000C949300E4
:100050000C9493000C9493000C9493000C949300D4
:100060000C9493000C9493000C9493000C949300C4
:100070000C9493000C9493000C9493000C949300B4
:100080000C9493000C9493000C9493000C949300A4
:100090000C9493000C9493000C9493000C94930094
:1000A0000C9493000C9493000C9493000C94930084
:1000B0000C9493000C9493000C9493000C94930074
:1000C0000C9493000C9493000C9493000C94930064
:1000D0000C9493000C9493000C9493000C94930054
:1000E0000C94930011241FBECFEFD1E2DEBFCDBF31
:1000F00000E00CBF12E0A0E0B2E0ECE4F4E000E0CD
:100100000BBF02C007900D92A032B107D9F712E0E1
:10011000A0E2B2E001C01D92AE32B107E1F70E9449
:10012000EA010C9424020C94000086E69EE0FC0197
:100130003197F1F74098419840E348B9429A20E05E
:1001400038E4F9013197F1F74298FC013197F1F762
:100150004098419848B9429AF9013197F1F742988D
:10016000FC013197F1F74098419848B9429AF9015A
:100170003197F1F742980197F1F74098419880E262
:1001800088B9429AC9010197F1F74298089598B148
:100190009F7098B928B1982F907F922B98B940986A
:1001A0004198429A20E038E4F9013197F1F74298FA
:1001B00098B19F7098B998B18295807F982B98B923
:1001C00040984198429AC9010197F1F742980895E1
:1001D00086E69EE00197F1F788E20E94C70081E081
:1001E0000E94C70086E00E94C7008EE00E94C70000
:1001F00080E80E94C700089598B19F7098B928B10F
:10020000982F907F922B98B9409A4198429A20E07B
:1002100038E4F9013197F1F7429898B19F7098B995
:1002200098B18295807F982B98B9409A4198429ACC
:10023000C9010197F1F74298089580E80E94C7002C
:100240000895CF93DF93EC0103C00E94FC00219638
:1002500088818823D1F7DF91CF910895823069F0AA
:10026000833018F48130A9F405C0833049F084301C
:1002700081F40BC0862F815805C0862F815402C09F
:10028000862F8D560E94C7000895862F8D520E949A
:10029000C70008950F931F93CF93DF938A01E9015D
:1002A000882311F0662319F40E941D0102C00E94E8
:1002B0002E01C530D10571F4C80160E177E20E94DA
:1002C0001002CB01C09690932102809320020E94DD
:1002D000FC0005C0C430D10511F080E016C0C80193
:1002E00068EE73E00E941002CB01609322029093AB
:1002F00023026AE070E00E941002C09690932D02E3
:1003000080932C020E94FC0081E0C330D10521F0D3
:10031000813011F080E016C0C80164E670E00E94F0
:100320001002CB0160932202909323026AE070E0F6
:100330000E941002C09690932902809328020E9486
:10034000FC0081E0C230D10521F0813011F080E065
:1003500016C0C8016AE070E00E941002CB016093F1
:100360002202909323026AE070E00E941002C0967D
:1003700090932702809326020E94FC0081E0C13006
:10038000D10511F0813061F4C8016AE070E00E948B
:100390001002C09690932B0280932A020E94FC00C8
:1003A00026971CF085E40E94FC00DF91CF911F91FD
:1003B0000F91089587B1876F87B988B1807888B920
:1003C0000895F89487B1876F87B988B1807888B924
:1003D00078940895F89487B1876F87B988B1807849
:1003E00088B978940E94E80088E20E94C70081E002
:1003F0000E94C7008CE00E94C70081E061E00E947B
:100400002E0180E092E00E94210182E063E00E94E0
:100410002E0183E192E00E94210180E090E00895A6
:10042000AA1BBB1B51E107C0AA1FBB1FA617B7071A
:1004300010F0A61BB70B881F991F5A95A9F7809536
:0C0440009095BC01CD010895F894FFCF09
:10044C004974277320416C6C2041626F75742E2E99
:10045C002E2E004265696E67204372617A79000026
:00000001FF
